:020000040800F2
:10000000500F00209D0100089B390008A32900081B
:1000100099390008990A00084B46000800000000C2
:10002000000000000000000000000000A1410008E6
:10003000790B00080000000029400008A3410008D7
:10004000B7010008B7010008B7010008B7010008B0
:10005000B7010008B7010008B7010008B7010008A0
:10006000B7010008B7010008B7010008B701000890
:10007000B7010008B7010008B7010008B701000880
:10008000B7010008B7010008B7010008B701000870
:10009000B7010008B7010008B7010008B701000860
:1000A0008D420008B7010008B7010008A942000806
:1000B000B7010008B5420008B7010008B701000801
:1000C000B7010008B7010008B7010008B701000830
:1000D000B7010008B7010008B7010008B701000820
:1000E000B7010008B7010008B7010008B701000810
:1000F000B7010008B7010008B7010008B701000800
:10010000B7010008B7010008B7010008B7010008EF
:10011000B7010008B7010008B7010008B7010008DF
:10012000B7010008B7010008B7010008B7010008CF
:10013000B7010008B7010008B7010008B7010008BF
:10014000B7010008B7010008B7010008B7010008AF
:10015000B7010008B7010008B7010008B70100089F
:10016000B7010008B7010008B7010008B70100088F
:10017000B7010008B7010008B7010008000000003F
:10018000B7010008B7010008DFF80CD000F04CFB05
:100190000048004765530008500F0020064880477C
:1001A00006480047FEE7FEE7FEE7FEE7FEE7FEE75C
:1001B000FEE7FEE7FEE7FEE7394200088901000896
:1001C0002DE9F05F0546002092469B46884606468C
:1001D000814640241BE0284641464746224600F01F
:1001E0001BFA53465A46C01A914110D3114618467D
:1001F000224600F002FA2D1A67EB01084F4622460C
:100200000120002100F0F9F917EB00094E41201EF2
:10021000A4F10104DFDC484631462A464346BDE8E6
:10022000F09F40EA01039B0703D009E008C9121FB1
:1002300008C0042AFAD203E011F8013B00F8013BA0
:10024000521EF9D27047D2B201E000F8012B491ECC
:10025000FBD270470022F6E710B513460A46044663
:100260001946FFF7F0FF204610BD2DE9FE4F8046EE
:1002700081EA0300C00F0C46009021F0004123F0FA
:100280000045B8EB0200A94105D240462146904600
:100290001C460B46024623F00040104347D0270D72
:1002A000C7F30A00C3F30A510290401A0190402894
:1002B0006BDAC3F3130040F4801B0098924620B120
:1002C0000023D2EB030A63EB0B0B01985946C0F1F4
:1002D0004002504600F091F906460D4650465946F8
:1002E000019A00F0A9F910EB08006141002487EAA7
:1002F000115284EAE7731A4340D0009A62B3019A1C
:10030000012A4FEA075215DC001B61EB02014FF096
:10031000004202EA0752CDE90042001C41F580117B
:1003200032462B4600F0E0F903B0BDE8F08F4046BE
:100330002146F9E7001B61EB0201001C41F5801327
:1003400000185B412018A2F5001747EB030140EAB3
:10035000D570B6196D4111E06D084FEA360645EAD1
:10036000C0754FEA0752001B61EB0201001C41F50A
:10037000801149084FEA30000019514132462B469E
:1003800003B0BDE8F04F00F0A0B900980122400092
:100390000023D0EB020263EBE073009821464FEAA2
:1003A000E074B8EB000061EB0401E9E783F000437F
:1003B0005BE781F0004158E72DE9FE4F81EA030435
:1003C00004F0004421F0004100944FF0000B23F0B2
:1003D000004350EA01045ED052EA03045BD0C3F349
:1003E0000A54C1F30A552C44A4F2F3340194A0FB3F
:1003F0000254C1F3130141F48011C3F3130343F416
:10040000801301FB024400FB034E840A970A44EA6E
:10041000815447EA8357A4FB076802958D0A05FBC0
:1004200007854FEA932C04FB0C542705029D4FEAE5
:10043000065847EA1637B5EB08056EEB070C870E32
:10044000920E47EA811742EA8312A7FB0201B6EB3C
:100450000B0164EB00042B0D43EA0C335E1844EBF4
:100460001C50DA465146E7FB0201C5F313044FEA7C
:100470000B3343EA14534FEA0432019C43EA060368
:10048000A4F10C040294009CCDE900B400F02CF916
:1004900003B0BDE8F08F00200146F9E72DE9F04DEB
:1004A00081EA030404F0004B21F0004514464FF0AC
:1004B000000A23F0004150EA050220D054EA01026C
:1004C0001DD0C5F30A570246C5F31303C1F3130049
:1004D000C1F30A5640F4801543F48013A7EB0608D5
:1004E000101BD64608F2FD3873EB050002D308F165
:1004F000010801E092185B41B8F1000F03DA002017
:100500000146BDE8F08D00204FF480110646844678
:100510000EE0171B73EB050705D3121B63EB0503F6
:1005200006434CEA010C49084FEA300092185B413F
:1005300050EA0107EDD152EA030012D082EA04002A
:1005400083EA0501084305D0101BAB4106D2012206
:10055000002306E000224FF0004302E06FF00102AA
:1005600053101AEB06004CEB085110EB0A0041EB5C
:100570000B01BDE8F04D00F0A8B80EB5C10F80EA40
:10058000E0700844CA07002140F233438DE80E00B2
:100590000A460B4600F0A8F803B000BD00F0004288
:1005A00030F000400AD0C10D01F56071C0F31600B3
:1005B00042EA0151C208400711437047002001463A
:1005C000704701F0004330B421F0004150EA0102CD
:1005D00006D00A0DA2F56072C1F31301002A02DCF5
:1005E00030BC00207047440F44EAC104C100E01849
:1005F00030BC00EBC25000F031B8202A04DB203AB6
:1006000000FA02F1002070479140C2F1200320FA65
:1006100003F3194390407047202A04DB203A21FA63
:1006200002F00021704721FA02F3D040C2F120020B
:100630009140084319467047202A06DBCB17203A21
:1006400041FA02F043EAE07306E041FA02F3D040D7
:10065000C2F1200291400843194670470029A8BF03
:100660007047401C490008BF20F00100704710B4DB
:10067000B0FA80FC00FA0CF050EA010404BF10BC90
:10068000704749B1CCF1200421FA04F411FA0CF1BD
:1006900018BF012121430843A3EB0C01CB1D4FEAF6
:1006A00000614FEA102042BF002010BC704700EBF1
:1006B000C35010440029A4BF10BC7047401C49001F
:1006C00008BF20F0010010BC704710B5141E73F174
:1006D000000408DA401C41F1000192185B411A4302
:1006E00001D120F0010010BD2DE9F04D92469B464E
:1006F00011B1B1FA81F202E0B0FA80F220329046F4
:10070000FFF77BFF04460F4640EA0A0041EA0B016F
:1007100053465A46084313D0114653EA010019D0F4
:10072000C8F140025046FFF777FF05460E46504697
:1007300059464246FFF761FF084305D0012004E017
:1007400020463946BDE8F08D0020054346EAE076B4
:100750002C4337430A986305E40AA0EB0800002203
:10076000FD0A44EA47540A3002D500200146E9E771
:10077000010510196941DDE9084500196941BDE825
:10078000F04DA2E72DE9F04D00231A461B1A8A41CD
:1007900003DB00200146BDE8F08DC1F30A52C1F32E
:1007A000130141F480154FF0000BD10702D100185E
:1007B0006D41521E0027044640F2FF11384601EBFE
:1007C000620A3E468046024600204FF48011FFF741
:1007D00023FFC2197141BB1846EB0100B4EB030CB7
:1007E00075EB000C04D3E41A65EB000517460E46C2
:1007F000241908F101006D4180463428E3DDF91920
:1008000046EB0600091BA84103D24FF0FF32134606
:1008100001E0002213461BEB070046EB0A51BDE83E
:10082000F04DFFF752BF0000064C074D06E0E068B0
:1008300040F0010394E8070098471034AC42F6D327
:10084000FFF7A6FC90560008B056000870B58C184B
:1008500010F8015B15F0070301D110F8013B2A11D4
:1008600006D110F8012B03E010F8016B01F8016BC1
:100870005B1EF9D12B0705D40023521E0DD401F8BD
:10088000013BFAE710F8013BCB1A921C03E013F886
:10089000015B01F8015B521EF9D5A142D8D30020BB
:1008A00070BD00002DE9F05F764C00EE100A2DEDD2
:1008B000028BDFF8D4B1B8EEC00AA578D4ED020AF5
:1008C000DDE90C763BF915C070EE800A00EE10CA27
:1008D0000BF1C80C0BF5C87EB8EEC00AABF5167A62
:1008E0000AF1C80970EEC02A00EE101AC4ED022AFF
:1008F000B8EEC00AD4ED030A3CF915C070EE800AC8
:1009000000EE10CAB8EEC00A70EEC00A00EE102A5F
:10091000C4ED030AB8EEC00A94ED041A3EF915C0FE
:1009200031EE001A00EE10CAB8EEC00A31EE402ACD
:1009300000EE103A84ED042AB8EEC00A94ED081ACD
:100940003AF915C031EE001A00EE10CAB8EEC00A2E
:1009500031EE403A00EE107A84ED083AB8EEC00A63
:1009600094ED091A39F915C031EE001A00EE10CADB
:1009700009F1C80CB8EEC00A31EE401A00EE106A58
:1009800084ED091AB8EEC00AD4ED0A1A3CF91580B4
:1009900071EE801A00EE108AB8EEC00A71EEC01A2D
:1009A0009FED3A0AC4ED0A1AC2EE803A2BF8150000
:1009B00009F5167020F815102EF815202AF81530B4
:1009C00029F815702CF81560FDEEE32A04F14802B1
:1009D00012EE900AC0EE802A01B21180FDEEE20A0A
:1009E00010EE900AC2EE000A00B250808046FDEE82
:1009F000E00A10EE900AC3EE000A06B2968004F1F7
:100A00005400FDEEE00A10EE902AC1EE000A0280CA
:100A1000FDEEE00A10EE902AC1EE800A4280BDEEA3
:100A2000E00A10EE102A82800846FFF7A6FD9FED2F
:100A3000188B53EC182BFFF7BFFCFFF7C2FD09F230
:100A4000646738604046FFF798FD53EC182BFFF7BA
:100A5000B3FCFFF7B6FD78603046FFF78EFD53EC30
:100A6000182BFFF7A9FCFFF7ACFD6D1CB860E8B2CE
:100A7000A070642801D10020A070BDEC028BBDE8FD
:100A8000F09F000020000020840400200000C842E5
:100A9000000000000000403FFEE700000E48016833
:100AA00021F080710160016841F0807101600B48A4
:100AB000016821F001010160016841F0010101605C
:100AC0000021416000BF00BF00BF406808B10020A6
:100AD0007047012070470000FCED00E0001000E0CE
:100AE0002DE9F84304464FF47A77DFF82C800B4D5C
:100AF0000DE000976E6800F001FDB0FBF8F0009982
:100B00004843009068680099801B8842FAD3641EAD
:100B1000EFD2BDE8F883000040420F00001000E073
:100B200031B5084D6C6800F0E9FC0749B0FBF1F005
:100B300000994843009068680099001B8842FAD3E6
:100B400038BD0000001000E040420F0031B5084DF4
:100B50006C6800F0D3FC0749B0FBF1F00099484302
:100B6000009068680099001B8842FAD338BD0000E5
:100B7000001000E040420F00704700004FF40041B9
:100B8000014800F0F6B80000000C024070B50446C1
:100B900000F0FCF80546601C02D0044800780444CC
:100BA00000F0F4F8401BA042FAD370BD1C020020F4
:100BB0002DE9F84F00224FF0010803254FF00F0EEA
:100BC0000B6808FA02F42340A3426ED14E68012E4E
:100BD00005D0022E03D0112E01D0122E12D186681C
:100BE0004FEA420C05FA0CF7BE43CF6807FA0CF740
:100BF000374387604668A6430C79C4F300149440D9
:100C000034434460C668570005FA07FC8C6826EA3E
:100C10000C06BC403443C4604C68022C01D0122C3A
:100C200013D1D40800EB8404A346D4F820905407D1
:100C30004FEAD46A0EFA0AF629EA06090E6906FA9C
:100C40000AF646EA0906CBF8206006680C7926EA1F
:100C50000C0604F00304BC40344304604C68E40018
:100C600065D5364C266846F480462660246822F016
:100C7000030604F480440094314C3444A446D4F870
:100C800008489607370F0EFA07F6B4432D4EB042C8
:100C900001D1002624E02C4EB04201D101261FE0F4
:100CA0002A4EB04202D102261AE040E0284EB0425D
:100CB00001D1032614E0274EB04201D104260FE0F3
:100CC000254EB04201D105260AE0244EB04201D1A2
:100CD000062605E0224EB04201D1072600E0082694
:100CE000BE402643CCF808681E4E34684F689C43CB
:100CF000FF0300D51C4334601A4C241D26684F683E
:100D00009E43BF0300D51E432660164E0836346846
:100D10004F689C43FF0200D51C433460114E0C36D3
:100D200034684F689C43BF0200D51C433460521C9A
:100D3000102AFFF445AFBDE8F88F000044380240A8
:100D40000030014000000240000402400008024060
:100D5000000C024000100240001402400018024043
:100D6000001C0240003C01400069084000D0012006
:100D70007047426931EA020200D10904816170477B
:100D80000AB1816170470904FBE7000001488068EF
:100D9000704700001C02002070B5040025D094F8B4
:100DA0003D00002520B984F83C50204600F03EFA72
:100DB000242084F83D002068016821F001010160D1
:100DC0002068016841F4004101602068016821F455
:100DD0000041016000F098FB4D4A6168914201D8E2
:100DE0004C4900E04C49884201D2012070BD4B497A
:100DF0002368B0FBF1F15E6826F03F060E435E60AB
:100E00006368934206D94FF4967359434FF47A734B
:100E1000B1FBF3F12368491C1E6A26F03F063143FB
:100E200019626168914210D84900401EB0FBF1F28E
:100E3000521CC2F30B02042A01D2042022E0B0FBB0
:100E4000F1F0401CC0F30B001CE0A268F2B301EB10
:100E5000C10303EB0116431EB3FBF6F35B1C43F423
:100E600080431B0549D092B301EBC10202EB011193
:100E7000401EB0FBF1F0401CC0F30B0040F480407A
:100E800040F400402168CA694CF6FF739A4310434E
:100E9000C861D4E9071001432068026822F0C0024B
:100EA00011430160D4E9030101432068826848F2DC
:100EB000FF339A4311438160D4E905010843216857
:100EC000CA6822F0FF021043C86001E00EE016E09D
:100ED0002068016841F0010101602564202084F848
:100EE0003D00256384F83E50002070BD01EB4106B3
:100EF000431EB3FBF6F35B1CB3E70120C2E701EB33
:100F00004101401EB0FBF1F0401CC0F30B00B7E7FD
:100F1000A086010080841E0000093D0040420F00B1
:100F20002DE9F84F1F4690468A460446DDF8289082
:100F3000FFF72CFF054694F83D00202875D11923B2
:100F400001226C492046009501F02EFE0028F5D1C3
:100F500094F83C00012868D0012084F83C00206807
:100F60000168C90703D1016841F0010101602068EF
:100F7000016821F400610160222084F83D00102006
:100F800084F83E0000262664C4F824806785608DBE
:100F900020855948E0622B464A465146204601F0DA
:100FA00019FD002878D1208D544F68B1012814D044
:100FB00002282068016816D041F480610160206831
:100FC00041698069009087E02068416981690091EA
:100FD000016841F4007101607EE02068016821F43D
:100FE00080610160F0E721F48061016020680168A0
:100FF00041F40061E2E7032848D801280AD002281A
:1010000014D04B46002239462046009501F0CCFD15
:10101000D8BB27E02A464946204601F044FEA0BB43
:1010200020680069616A08704DE061E04B4600226B
:1010300039462046009501F0B7FD30BB20680168B5
:1010400041F40071016020680069616A0870606A9B
:10105000401C6062218D491E2185618D491E61857C
:1010600021682EE02068016821F480610160206819
:101070000069616A0870606A401C6062208D401ED1
:101080002085608D401E6085D0E705E02A464946F0
:10109000204601F008FE10B10120BDE8F88F20685D
:1010A0000069616A0870606A401C6062218D491E97
:1010B0002185618D491E618521684A69D2435207A5
:1010C0000AD409690170606A401C6062208D401E6C
:1010D0002085608D401E6085208D00288BD12020CA
:1010E00084F83D0084F83E6084F83C600020D4E73A
:1010F0000220D2E7020010000000FFFF0400010000
:101100002DE9F84F1F4690468A460446DDF82890A0
:10111000FFF73CFE054694F83D0020287FD11923B7
:10112000012240492046009501F03EFD002876D17D
:1011300094F83C00012872D0012084F83C0020681B
:101140000168C90703D1016841F00101016020680D
:10115000016821F400610160212084F83D00102025
:1011600084F83E0000262664C4F824806785608DDC
:1011700020852D48E0622B464A465146204601F024
:101180009FFC90B9206841698069009036E02A464A
:101190004946204601F0BAFD50B1206C042804D124
:1011A0002068016841F4007101600120BDE8F88FFA
:1011B000606A216800780861606A401C6062618D25
:1011C000491E6185218D491E89B221852268536996
:1011D000DB435B070BD451B100781061606A401C9F
:1011E0006062608D401E6085208D401E20852A46ED
:1011F0004946204601F0B2FC0028CED1208D0028BF
:10120000C5D154F83D0B016841F400710160202004
:1012100004F81E09E67766770020C7E7FFE702209B
:10122000C4E70000020010000000FFFF10B586B008
:10123000044614216846FFF70DF8134920688842D8
:1012400020D11248016841F002010160006869463E
:1012500000F002000590C0200090122001900120B3
:10126000029003200390042004900948FFF7A0FC9B
:1012700006481030016841F400110160006800F474
:101280000010059006B010BD0054004030380240F8
:10129000000402400248816802781144816070476E
:1012A0001C0200200B4810B5016841F40071016078
:1012B000016841F480610160016841F4807101605E
:1012C000032000F06FF8002000F006F800F024F88A
:1012D000002010BD003C024070B50D4D04464FF497
:1012E0007A712878B1FBF0F00A490968B1FBF0F097
:1012F00000F0B3FD48B9102C07D200222146501E41
:1013000000F030F800206C6070BD012070BD00005E
:101310001C020020180200200A4808B5016841F4A8
:1013200080410160006800F4804000900548001F83
:10133000016841F080510160006800F08050009029
:1013400008BD000044380240002809DB00F01F02FD
:10135000012191404009800000F1E020C0F8001117
:1013600070470000F0B40E4B1B680C46C3F3022319
:10137000C3F10705042D00D90425191D072901D241
:10138000002300E0DB1E012606FA05F1491E21407C
:1013900099409E40761E16403143F0BC03F06EB972
:1013A0000CED00E0064900F0070208684FF6FF0365
:1013B000184040EA0220034A1043086070470000CA
:1013C0000CED00E00000FA052DE9F0470E4605009F
:1013D00065D0DFF81481D8F80000F7B200F00F00F4
:1013E000B04207D288F80070D8F8000000F00F0073
:1013F000B04254D128683D4C810712D5400703D52F
:10140000206840F4E05020602878000703D5206869
:1014100040F4604020602068A96820F0F000084394
:1014200020602878C0072DD0304968680839012825
:1014300012D0022813D0032811D009688907002987
:101440002DDA216821F0030101432160FFF79EFCA2
:10145000814641F2883A0EE009688903EFE709689E
:101460008901ECE7FFF792FCA0EB0901514502D995
:101470000320BDE8F0872068696800F00C00B0EB3D
:10148000810FEFD1D8F80010404601F00F01B142B2
:1014900007D90770006800F00F00B04201D00120AA
:1014A000E7E72878400705D52068E96820F4E05090
:1014B000084320602878000706D52068296920F4B1
:1014C000604040EAC100206000F02EF82168084A20
:1014D000C1F30311515CC840064908600648006822
:1014E000FFF7FAFE0020C4E7003C02400838024043
:1014F00082550008180200202002002001480068E0
:101500007047000018020020044805490068096877
:10151000044AC1F38221515CC84070471802002080
:101520000838024092550008154810B5006810F0C0
:101530000C02144813D04110042A0FD0082A0ED1EF
:101540000F4C241F2268236802F03F025B0207D57C
:101550002068C0F38810A0FB010106E0084610BD1A
:101560002168C1F38811A1FB00010023FEF728FECA
:101570002168C1F30141491C4900B0FBF1F010BDE5
:10158000083802400024F4002DE9F84F04006ED022
:101590002078DFF83C93C007A9F104054AD009F18F
:1015A00004000168C1F38101012908D00068C0F37B
:1015B000810002280AD1D9F80000400206D5286827
:1015C000800337D560680028E1D033E06068B0F56B
:1015D000803F10D0B0F5A02F286810D020F48030C4
:1015E0002860286820F4802028606068A8B1FFF790
:1015F000CDFB06460DE0286840F48030F4E740F467
:1016000080202860F7E700BFFFF7C0FB801B64283D
:1016100073D828688003F7D50CE0FFF7B7FB0646C0
:1016200005E000BFFFF7B2FB801B6428F0D82868F4
:101630008003F7D42078DFF89C8280074FF0000AFF
:101640003ED5A348001D016811F00C0F08D00068BA
:10165000C0F3810002280BD1D9F80000400207D462
:101660002868800716D5E068012800D112E02BE138
:10167000E068B8B10120C8F80000FFF787FB064614
:1016800005E000BFFFF782FB801B0228C0D8286856
:101690008007F7D52868216920F0F80040EAC100EA
:1016A00028600DE0C8F800A0FFF770FB064604E0D4
:1016B000FFF76CFB801B02281FD828688007F7D42F
:1016C0002078000722D5824E83486169703671B157
:1016D00001210160FFF75AFB074604E0FFF756FBC4
:1016E000C01B022809D830688007F7D50EE0C0F883
:1016F00000A0FFF74BFB074605E082E0FFF746FB43
:10170000C01B02287DD830688007F7D420784007B6
:1017100068D5DFF8BCB100270BF13C0BDBF800000B
:10172000C0000BD4DBF8001041F08051CBF8001062
:10173000DBF80000012700F080500090674E306811
:10174000C00510D4306840F480703060FFF71EFB95
:10175000009005E0FFF71AFB0099401A022850D8C4
:101760003068C005F6D55A4EA0686C3601280FD0F7
:101770000528306810D020F001003060306820F07B
:1017800004003060A068B8B1FFF700FB00900FE0E4
:10179000306840F00100F4E740F004003060F7E703
:1017A000FFF7F4FA0099411A41F28830814266D875
:1017B00030688007F4D50EE0FFF7E8FA009007E004
:1017C000FFF7E4FA0099411A41F28830814256D875
:1017D00030688007F4D42FB1DBF8001021F080517D
:1017E000CBF80010A069C8B33949091D0968C1F3D5
:1017F000810102294AD00228504607D0C8F860006B
:1018000000E03CE0FFF7C2FA04463BE04746C8F878
:101810006000FFF7BBFA064605E000BFFFF7B6FA27
:10182000801B02282BD828688001F7D4D4E907014F
:101830000843A16A2A4A490802EB0141626A41EA67
:101840008211084394F82C1040EA0161C9F8001095
:1018500001203866FFF79AFA044606E036E000BF3A
:10186000FFF794FA001B022809D828688001F7D5F1
:101870002CE000BFFFF78AFA001B022802D90320E0
:10188000BDE8F88F28688001F4D41FE00128F7D064
:10189000D9F80000E26900F48001914214D1226A73
:1018A00000F03F0191420FD147F6C071626A0140DA
:1018B000914209D1A26A00F44031914204D1E16A17
:1018C00000F07060884201D00120D9E70020D7E7FE
:1018D0000438024000004742800E4742007000403A
:1018E0000000FFFF70B5040005D00025A56294F844
:1018F000510010B106E0012070BD84F85050204620
:1019000000F030F8022084F851002068016821F0CE
:1019100040010160D4E901010843D4E903121143F5
:10192000084361690843218B01F400710843E169B0
:101930000843216A0843A16A084321680860A06936
:10194000042101EA1040616A084321684860206868
:10195000C16921F40061C1616565012084F851000D
:10196000002070BD10B586B0044614216846FEF70D
:1019700071FC13492068884220D112480021026876
:1019800042F480520260006800F4805005900D48D7
:101990001438026842F001020260006800F00100A1
:1019A0000590E02000900220CDE901010320039082
:1019B0000520049069460448FFF7FAF806B010BD08
:1019C0000030014044380240000002402DE9F84F49
:1019D000044640680025984616460F464FF0040B13
:1019E000B0F5827F01D1A06888B194F85000012839
:1019F00018D0012084F85000FFF7C8F9814694F808
:101A000051004FF0000A01280ED002257DE084F835
:101A100051B013460A462046CDF8008000F02CF95C
:101A2000BDE8F88F0220FBE7002F6DD0002E6BD0B1
:101A300084F851B0C4F854A0A763A687E687C4F819
:101A400030A0A4F834A0A4F836A0C4F840A0C4F88C
:101A500044A0A068B0F5004F04D12068016821F4CB
:101A60008041016020680168490603D4016841F0A3
:101A700040010160E068D8B139E020688168C90799
:101A800009D0007BA16B0870A06B401CA063E08FA5
:101A9000401EE0870CE0FFF779F9A0EB0901414512
:101AA00003D3B8F1FF3F03D036E0B8F1000F33D0D5
:101AB000E08F0028E1D11DE020688168C90709D0C6
:101AC000C068A16B0880A06B801CA063E08F401EE3
:101AD000E0870CE0FFF75AF9A0EB0901414503D379
:101AE000B8F1FF3F03D017E0B8F1000F14D0E08F3A
:101AF0000028E1D14A464146204602F0ADFA08B13D
:101B000020206065606D00B10125012084F851003E
:101B100084F850A0284683E70325F6E72DE9F84F1F
:101B2000044690F8500000271D46164689460128B5
:101B30000DD04FF0010B84F850B0FFF727F9804625
:101B400094F85100BA46012804D002278EE0022002
:101B5000BDE8F88FB9F1000F7DD0002E7BD00320B7
:101B600084F85100C4F854A0C4F83090A686E686E4
:101B7000C4F838A0A4F83CA0A4F83EA0C4F844A03F
:101B8000C4F840A0A068B0F5004F04D120680168F7
:101B900041F48041016020680168490603D401686E
:101BA00041F040010160E068B0F5006F606803D06B
:101BB00030B3012E24D040E008B1012E1CD1206B9F
:101BC00021680088C86006E020688168890709D517
:101BD000216B0988C160206B801C2063E08E401E51
:101BE000E08609E0FFF7D2F8A0EB0800A84202D394
:101BF000681C01D031E07DB3E08E0028E4D11FE005
:101C0000206B21680078087306E0206881688907E6
:101C100009D5216B09780173206B401C2063E08E8D
:101C2000401EE08609E0FFF7B1F8A0EB0800A842EB
:101C300002D3681C01D010E075B1E08E0028E4D119
:101C400042462946204602F035FA08B12020606558
:101C5000A06820B107E008E0FFE7032706E020685E
:101C6000C16880680090606D00B1012784F851B0B0
:101C700084F850A038466BE72DE9F84F044690F8F9
:101C8000500000270A9E1D4692468B464FF00109E0
:101C900001280ED0012084F85000FFF777F8804625
:101CA00094F85100616801280CD0B1F5827F07D10A
:101CB00002E00220BDE8F88FA16809B9042801D02C
:101CC0000227C2E0BBF1000F27D0BAF1000F24D0E9
:101CD0001DB394F85100042802D0052084F8510067
:101CE00000206065C4F838A0E587A587C4F830B047
:101CF000E586A5862064606420680168490603D4EF
:101D0000016841F040010160E068B0F5006F606873
:101D100005D0E8B3012D46D07FE0012795E008B15A
:101D2000012D39D1206B21680088C860206B801C90
:101D30002063E08E401EE0862EE0206881688907DF
:101D40000FD5E18E69B1B9F1010F0AD1216B098874
:101D5000C160206B801C2063E08E401EE0864FF047
:101D6000000920688168C9070CD0E18F51B1C068B3
:101D7000A16B0880A06B801CA063E08F401EE087F1
:101D80004FF00109FFF702F8A0EB0800B04200E0B5
:101D900009E001D3701C50D1E08E0028CDD1E08F36
:101DA0000028CAD13FE0206B216800780873206BBF
:101DB000401C2063E08E401EE0862EE02068816893
:101DC00089070FD5E18E69B1B9F1010F0AD1216BF5
:101DD00009780173206B401C2063E08E401EE08672
:101DE0004FF0000920688168C9070CD0E18F51B11C
:101DF000C068A16B0870A06B401CA063E08F401E00
:101E0000E0874FF00109FEF7C1FFA0EB0800B042E8
:101E100002D3701C01D010E07EB1E08E0028CDD13D
:101E2000E08F0028CAD142463146204602F042F9EE
:101E300028B101272020606507E0032705E0A0689E
:101E400018B92068C16880680090012084F85100AA
:101E5000002084F8500038462CE710B5401EB0F141
:101E6000807F01D3012010BD4FF0E02460610F217D
:101E7000601702F003FC0020A06107202061002011
:101E800010BD70477047000070B590F83C20012AE3
:101E900032D0012480F83C40022280F83D200368C3
:101EA0005A689D6822F070060A6832435A60134BE4
:101EB00002689A4214D0B2F1804F11D0104B9A426E
:101EC0000ED0104B9A420BD00F4B9A4208D00F4BBA
:101ED0009A4205D00E4B9A4202D00E4B9A4204D140
:101EE000496825F080031943916080F83D40002146
:101EF00080F83C10084670BD022070BD0000014013
:101F00000004004000080040000C004000040140B4
:101F1000004001400018004010B5040003D094F8C0
:101F20003D0010B107E0012010BD002084F83C0006
:101F3000204600F00DF8022084F83D00211D2068A5
:101F400002F0BEF9012084F83D00002010BD000021
:101F5000F0B587B0044614216846FEF77BF93E4A87
:101F600024683C4B00253C49143A02263B489C42DD
:101F700029D10B6843F001030B60096801F00101EE
:101F80000591116841F010011160116801F0100114
:101F900005914FF4D4410091CDE901650121CDE9CE
:101FA00003516946FEF704FE002201211820FFF7C5
:101FB000D9F91820FFF7C8F9002211461B20FFF7B6
:101FC000D1F91B2015E0244B1B1FB4F1804F14D016
:101FD000234FBC421AD1186840F0020018601868FC
:101FE000002200F00200059002211D20FFF7BAF93F
:101FF0001D20FFF7A9F907B0F0BD186840F00100F7
:102000001860186800F001000590F4E7154B9C4239
:10201000F1D10B6843F480330B60096801F480311F
:102020000591116841F010011160116801F0100173
:10203000059120210091CDE901650321CDE90351EE
:102040006946FEF7B5FD002201211820FFF78AF945
:102050001820CEE700000140443802400010024042
:1020600000040040004001400168CA6842F00102DB
:10207000CA600068816801F00701062903D0016881
:1020800041F0010101600020704770B5044690F8EE
:102090003C00012817D0012584F83C50022084F828
:1020A0003D002068826822F0770222F47F4282603D
:1020B0000868502830D00DDC20284DD005DC98B3BE
:1020C00010283BD148E0022070BD302844D0402881
:1020D00034D139E0602828D0702806D0B0F5805F70
:1020E0002CD0B0F5005F29D10AE0CB68D1E90121FD
:1020F000206802F056F92068816841F0770109E014
:10210000CB68D1E90121206802F04BF92068816891
:1021100041F48041816011E0CA684968206802F09A
:1021200015FA5021206807E016E0CA68496820685F
:1021300002F05EFA6021206802F03DF984F83D501B
:10214000002084F83C0070BDCA684968206802F02D
:10215000FDF940212068EFE7226801461046EBE7D1
:102160002DE9F041054600683649DFF8DC8000269D
:10217000884251D1287F354C354F01280DD141027D
:102180004046FEF7F1FD012820680AD0406B00EEC2
:10219000100AB8EE400A87ED0A0A287F022802D00A
:1021A00010E04662F9E74FF400614046FEF7DCFDBF
:1021B000012820680AD0806B00EE100AB8EE400AB1
:1021C00087ED080A287F042802D010E04662F9E76C
:1021D0004FF400514046FEF7C7FD0128206819D092
:1021E000C06B00EE100AB8EE400A87ED090A287F9E
:1021F00008280DD1C1024046FEF7B6FD012820682F
:102200001DD0006C00EE100AB8EE400A87ED0B0AF4
:10221000BDE8F0814662EAE70E498842F8D1287F9E
:102220000128F5D120214046FEF79EFD0A490128EC
:10223000086804D0406B064980318864E8E746624C
:10224000E6E700000000014000100240100A0020F4
:102250009800002000400140100B00202DE9F041C3
:10226000044690F83C000D4601283DD0012684F834
:102270003C60022084F83D00AAB3042A46D02068BE
:10228000082A55D0D5E90027E968036A23F480536A
:102290000362D0F81CC0036A2CF4407C4CEA072788
:1022A0004FF6FF7C27F470470CEA013139434FF4B5
:1022B000204723F4204307EA02321A43C161026235
:1022C0002068C16921F44061C1612068C169AA68C0
:1022D00041EA0221C0F81C1084F83D60002084F817
:1022E0003C00BDE8F08101E00220FAE7D5E90012E8
:1022F000EB68206802F03CF92068816921F00C014C
:10230000816120688169AA6811430FE0D5E9001254
:10231000EB68206802F07EF92068816921F4406151
:10232000816120688169AA6841EA02218161D3E75D
:10233000D5E9002C2F7B016A21F480710162C1690B
:10234000036A21F0030141EA0C0121F0F00C390786
:102350004FF420674CEA116123F4206307EA02225C
:102360001A43C16102622068C16921F00C01C16198
:102370002068C169AA681143ACE710B5040003D016
:1023800094F83D0010B107E0012010BD002084F852
:102390003C00204600F00CF8022084F83D00211D8E
:1023A000206801F08DFF012084F83D00002010BD61
:1023B00010B586B0044614216846FDF74BFF13495B
:1023C000206888421FD112480021026842F00202B0
:1023D0000260006800F0020005900D4814380268A1
:1023E00042F004020260006800F004000590402002
:1023F00000900220CDE901010320CDE903106946D8
:102400000448FEF7D5FB06B010BD000000040140F3
:10241000443802400008024010B50268044631B159
:10242000042908D008291AD00C2908D11BE0D0684B
:1024300040F0020002E0D06840F00400D0600122C9
:10244000206801F0A1FF2068816801F007010629DA
:1024500003D0016841F001010160002010BDD06887
:1024600040F00800EAE7D06840F01000E6E770B5F9
:102470000446006801694FF00005C943890715D477
:10248000C168C943890711D4E91E01610120207781
:10249000206880698007204602D0FFF761FE04E0D3
:1024A00000F0C0F8204600F042F925772068016965
:1024B000C943490717D4C168C943490713D46FF00A
:1024C00004010161022020772068806910F4407FB8
:1024D000204602D0FFF744FE04E000F0A3F82046B7
:1024E00000F025F9257720680169C943090716D44A
:1024F000C168C943090712D46FF0080101610420C3
:1025000020772068C0698007204602D0FFF728FEA8
:1025100004E000F087F8204600F009F925772068EC
:102520000169C943C90617D4C168C943C90613D490
:102530006FF010010161082020772068C06910F455
:10254000407F204602D0FFF70BFE04E000F06AF85F
:10255000204600F0ECF8257720680169C943C907D7
:1025600008D1C168C943C90704D1891E0161204649
:1025700000F000F920680169C943090609D4C1685F
:10258000C943090605D46FF0800101612046FFF7B9
:1025900078FC20680169C943490609D4C168C94368
:1025A000490605D46FF040010161204600F0F8F9BA
:1025B00020680169C94389060BD4C168C9438906EB
:1025C00007D46FF0200101612046BDE87040FFF79D
:1025D00059BC70BD10B586B0044614216846FDF79D
:1025E00039FE2068B0F1804F15D10C4800210268F7
:1025F00042F001020260006800F0010005900F2027
:1026000000900220CDE901010120CDE903106946C7
:102610000348FEF7CDFA06B010BD00003038024086
:1026200000000240704770B5044690F83C000D462B
:1026300001280DD0012684F83C60022084F83D007A
:1026400042B1042A18D0082A2AD00C2A4DD139E0E8
:10265000022070BD206801F0B7FE2068816941F05A
:10266000080181612068816921F00401816120688D
:1026700081692A69114311E0206801F0D5FE2068C4
:10268000816941F4006181612068816921F4806180
:102690008161206881692A6941EA0221816124E01F
:1026A000206801F0F7FE2068C16941F00801C161AE
:1026B0002068C16921F00401C1612068C1692A69EB
:1026C000114311E0206801F019FF2068C16941F44D
:1026D0000061C1612068C16921F48061C161206825
:1026E000C1692A6941EA0221C16184F83D60002084
:1026F00084F83C0070BD10B5040003D094F83D0090
:1027000010B107E0012010BD002084F83C002046F5
:1027100000F00CF8022084F83D00211D206801F033
:10272000CFFD012084F83D00002010BD70477047A8
:1027300010B504460068012201F026FE0B4920680E
:10274000884202D00A49884203D1416C41F40041D9
:1027500041642068816801F00701062903D00168FF
:1027600041F001010160002010BD000000000140A7
:1027700000040140F0B500688349A9B0884252D1F5
:10278000824C00262078401CC0B220700A282FD12D
:1027900036227F4912A8FDF744FD7D4DE88EADF845
:1027A0007E0005F12C00C1682091008AADF88400FC
:1027B000E88FADF88600112205F1400122A8FDF74F
:1027C00030FD95F851008DF89900686D27904822EA
:1027D00016A96846FDF725FD12AD95E80F0002F039
:1027E00079FC02F095FD206302F09CFD6063267089
:1027F000E0694FF47A77012817D001F017FC2781A0
:10280000E780A7806780E7806780E188604898302C
:1028100002685163618802689163A1880268D1638C
:1028200021890068016429B0F0BD00F0ABFD00F023
:10283000A9FC564D8035686C401C6864B0F5FA7F81
:1028400003D1286C401CC5E91006286C142800D15F
:10285000E6615049E06A88427EDDE089401C80B232
:10286000E0810A28CFD1E681208A401C80B22082F4
:1028700003280BD101F0E8F82682608A401C80B260
:102880006082022802D1668201F088F801F060FAC5
:102890004149A06A88420ADD95ED170ADFED3F0A3B
:1028A00030EE200ABCEEC00A84ED060A00E0A66104
:1028B000D4ED060AD4ED141A94ED1F1AB8EE600A8E
:1028C00030EE610A30EE412A95ED0A0A32EE402AD6
:1028D000BCEEC22A12EE100A6080B8EE602A32EE18
:1028E000612A32EE012A32EE002ABCEEC22A12EE32
:1028F000100AA080B8EE602A32EE212A32EE012AB8
:1029000032EE402ABCEEC22A12EE100AE080F8EE47
:10291000600A70EEA10A70EEC10A30EE800ABCEEC9
:10292000C00A10EE100A2081618840F24C408142BA
:1029300000D26080A188814200D2A080E1888142DB
:1029400000D2E0802189814200D22081618840F25A
:10295000D660814202D900E00EE06080A188814209
:1029600000D9A080E188814200D9E080218981429C
:102970007FF649AF208146E701F058FB6780A780CA
:10298000E78027813FE70000000400409800002016
:10299000B80900200080BB440000964400007A443F
:1029A0007047FEE701684A69D24352050FD46FF4BD
:1029B00080624A61002140F8301F202242738173F7
:1029C000026942F004020261017301207047002095
:1029D000704700002DE9F84F0446C06A1E46934632
:1029E0000D4621680A6842F480620A60082807D010
:1029F000012805D010F5803F02D0206B112804D1AA
:102A00002068016841F4807101604FF001195B4654
:102A1000002249462046009600F0C6F84FF40078A0
:102A200040B120680068C00501D5C4F8408003208B
:102A3000BDE8F88F2069DFF884A0B0F5804F0FD093
:102A40000620216800EAD51747F0F00008613346F8
:102A50005A460AF10601204600F0DAF858BB03E0B6
:102A6000E8B240F001001CE02168E8B2086133469A
:102A70005A465146204600F0CBF8E0B9206841693B
:102A800081690091016841F4807101605B46002218
:102A900049462046009600F087F80028C1D147F04B
:102AA000F1002168086133465A465146204600F03D
:102AB000AFF80028BCD00120BAE7000002000100F6
:102AC000F8B50446C06A1E460D461746082807D0CA
:102AD000012805D010F5803F02D0206B122804D1C8
:102AE0002068016841F480710160134600224FF0B4
:102AF00001112046009600F057F840B120680068A8
:102B0000C00502D54FF4007020640320F8BD206991
:102B1000B0F5804F0ED00620216800EAD51040F0B5
:102B2000F000086133463A460B49204600F070F841
:102B300078B902E005F0FE0000E0E8B22168086123
:102B4000054933463A46891F204600F061F80028BF
:102B5000DCD00120F8BD00000800010070B5164669
:102B60000D4604460DE02046FFF71CFF08B101208A
:102B700070BD681C05D0FEF709F9801BA84207D874
:102B800035B120684069C0434007ECD4002070BDD7
:102B9000002044F8300F20216173A073216941F0B7
:102BA000200121612073E2E72DE9F0471E4690469F
:102BB0000D460446C1F30747DDF8209008E0701C7D
:102BC00006D0FEF7E3F8A0EB0900B0420FD876B1CB
:102BD0002068012F18D0806925EA00000004000C4D
:102BE00014D000214145EAD00020BDE8F087002044
:102BF00044F8300F20216173A073216941F0200156
:102C0000216120730120F0E74069E5E70121E9E750
:102C10002DE9F0479A4691460E46044600254FF0AE
:102C20002008C1F3074725E020684069C0434005FC
:102C300014D42068016841F40071016021686FF4C8
:102C400080604861256384F83D8084F83E50206CA4
:102C500040F00400206484F83C501FE0B9F1FF3FCD
:102C600008D0FEF793F8A0EB0A0149450CD8B9F15A
:102C7000000F09D02068012F13D0806926EA0000D8
:102C80000004000C0BD0CFE744F8305F84F80D80CF
:102C9000A573206940F02000206125730120BDE864
:102CA000F0874069EAE72DE9F041002590460E469D
:102CB0000446202717E04069C043C0060CD454F8EE
:102CC000301B6FF01000486144F810596777A57702
:102CD000206A2062257717E0FEF758F8A0EB08007D
:102CE000B04208D83EB120684169C9434906E2D4E0
:102CF0000020BDE8F08144F8305F6773A573206958
:102D000040F02000206125730120F2E770B51646DF
:102D10000D4604460DE02046FFF744FE08B10120B1
:102D200070BD681C05D0FEF731F8801BA84207D89B
:102D300035B120684069C0430006ECD4002070BD66
:102D4000002044F8300F20216173A073216941F005
:102D5000200121612073E2E710B52DED0A0B2DED66
:102D6000108B88B0F0EE418AB0EE609AF0EE409A97
:102D70009FEDD60A8DED000A8DED010A8DED020A58
:102D80009FEDD38AD34C94ED000AD4ED000A20EED7
:102D9000201A8DED071AD4ED000A94ED050A20EEF5
:102DA00080DA94ED000AD4ED060A60EE20CA94EDB4
:102DB000000AD4ED070A20EE205A94ED050AD4ED5E
:102DC000050A60EE20FA94ED050AD4ED060A60EEDD
:102DD000204A94ED050AD4ED070A20EE20CA94EDAE
:102DE000060AD4ED060A60EE20BA94ED060AD4ED88
:102DF000070A20EE20BA94ED070AD4ED070A60EE28
:102E000020AA21EEA10A02EE020A02EEA20A02F0B4
:102E100093FA61EE805ACDED1B5A62EE005ACDED69
:102E20001C5A62EE805A23EE030ACDED1D5A03EEC2
:102E3000A30A04EE040A02F07FFAF6EE002A63EE1B
:102E400000EA72EEEB0A23EE80EAB0EE00AA64EE2E
:102E500000DA2EEE8A0A70EEEA0A2EEE0A2A34EE24
:102E6000C54ACDED060A20EE201A6DEE8A1A7CEED8
:102E70002C0A72EEEF2A02EE041A3CEE6CFA8DED8B
:102E8000054A32EEEA3A72EEEB3A01EEA01A74EE1F
:102E9000850ACDED043A60EE200A20EE0F0A42EEDC
:102EA000030A3BEE4D3A41EE830A3BEE0D3A02EE49
:102EB000030A01EEA30A8DED030A21EE010A00EEDA
:102EC000A00A10EE100AFDF769FB41EC100B01F0AF
:102ED000FBFF51EC100BFDF774FB9DED071A00EEA4
:102EE000900A9DED030A31EE6F1A20EE8A2A9DEDBD
:102EF000054A7DEE0B3A31EE6B1A20EE0A0ADDED43
:102F0000060A63EE8A2A31EE2A3A22EE041A62EEAB
:102F1000200ADDED1C5A6FEE0A1A00EE231A7CEE31
:102F20008C3A40EE0F0A22EE232ADDED043A00EE41
:102F3000232A25EE830ADDED1D5A05EEE20A6EEE28
:102F4000023A4DEEC13A2EEE811A0EEE601A30EEC4
:102F5000230A65EEA13ADDED1B5AB5EEC00A45EE37
:102F6000C33A2DEEA03A65EEA22ADDED1C5A0EEE14
:102F7000C23A45EEE12A33EE832A72EE810AF1EE7F
:102F800010FA23D0B5EEC02AF1EE10FA1ED0F5EEFD
:102F9000C00AF1EE10FA19D0B1EE023A9DED001A16
:102FA000DDED011ADDED022A00EE081A42EE081AE4
:102FB00040EE882A40EE039A02EE039A40EE838A9E
:102FC00079EE819A39EE219A78EEA28A94ED050A7B
:102FD000D4ED060A29EEC00A00EEC90AD4ED070AAC
:102FE00000EEE80AD4ED000A40EE080AC4ED000A3B
:102FF00094ED000AD4ED060A20EE290A00EEA80A94
:10300000D4ED070A00EEC90AD4ED050A40EE080A1D
:10301000C4ED050A94ED000AD4ED050A20EE090A74
:1030200000EEE80AD4ED070A00EEA90AD4ED060A7C
:1030300040EE080AC4ED060A94ED000AD4ED050A34
:1030400020EE280A00EE890AD4ED060A00EEE90A0D
:10305000D4ED070A40EE080AC4ED070A94ED000A11
:10306000D4ED000A94ED051A20EE200AD4ED050AED
:1030700000EE810AD4ED060A94ED061A00EE810AEC
:10308000D4ED070A94ED071A00EE810A02F054F914
:10309000D4ED000A60EE800AC4ED000AD4ED050A02
:1030A00060EE800AC4ED050AD4ED060A60EE800ADF
:1030B000C4ED060AD4ED070A20EE800A84ED070A63
:1030C00008B0BDEC108B0AB010BD0000000000007D
:1030D000A69BC43C000000202548B0F9001000EE7B
:1030E000101A2449F8EEC00A91ED010AB0F9021055
:1030F000B0F90400C0EE804A00EE901AB8EEE01A73
:10310000C1EE000A01EE100A1B48F8EEC11AB0F930
:10311000001081EE801A00EE101AB0F90210B0F91A
:103120000400F8EEC01A00EE101AB8EEC02A00EE45
:10313000100A1248F8EEC02AB0F9001000EE101A7A
:10314000B0F90210B0F90400B8EEC03A00EE101A5F
:10315000F8EEC03A00EE100AB8EEC04A9FED080A39
:1031600021EE001A60EE800A24EE800AFFF7F4BD1B
:103170005C00002000000020680000207400002097
:10318000295C8F3C10B52DED088BFFF7A5FF534C44
:10319000F8EE008AB0EE008A94ED050AD4ED070A35
:1031A00094ED061A20EE280A20EE200AD4ED000A3B
:1031B00060EE880A00EE810A10EE100AFDF7EEF9C3
:1031C00041EC100B01F06CFA9FED459B51EC100B9C
:1031D00053EC192BFDF7F0F8FDF7F3F9E06094EDEF
:1031E000050AD4ED050A94ED061A20EE280AB7EE7A
:1031F00000BA20EE200AD4ED060A60EE880A00EE3E
:10320000C10A30EE0B0A10EE100AFDF7C7F994ED73
:10321000060AD4ED070A94ED051A20EE080A41ECDF
:103220001A0B20EE200AD4ED000A60EE880A00EEA8
:10323000810A10EE100AFDF7B1F941EC100BB0EE67
:103240004A1AF0EE6A1A01F047FD53EC192B51ECC3
:10325000100BFDF7B1F8FDF7B4F9A06094ED060A84
:10326000D4ED060A94ED071A20EE080A20EE200A93
:10327000D4ED070A60EE880A00EE810A30EE4B0AB0
:1032800010EE100AFDF78AF994ED050AD4ED060A4E
:1032900094ED071A20EE280A41EC1A0B20EE200AC2
:1032A000D4ED000A60EE880A00EEC10A10EE100AA2
:1032B000FDF774F941EC100BB0EE4A1AF0EE6A1A01
:1032C00001F00AFD53EC192B51EC100BFDF774F8CB
:1032D000FDF777F92061BDEC088B10BD00000020E0
:1032E0000000006066A64C40174810B5016886B023
:1032F00041F0080101600068144C00F008000590DE
:103300004FF4805000900120019003900220029021
:1033100069462046FDF74CFC4FF40050009069468A
:103320002046FDF745FC4FF480400090694620465A
:10333000FDF73EFC4FF40040009069462046FDF743
:1033400037FC06B010BD000030380240000C0240CF
:10335000B0EE002AF7EE002A21EE021A9FED082AAD
:1033600021EE022A82EE821A31EE212A81EE821AA1
:1033700070EE601AB0EE600A01EE210A704700009C
:10338000F90F4940F0B5574A15212DED028B83B056
:103390003B2002F0A5F8534C534B208840BA00B2B2
:1033A0001880618849BA09B25980A28852BA12B20B
:1033B0009A8023895DBA4C4B183B1E88AE1B9D1D1D
:1033C0002E8066895F8876BAF61B6E80A6899B88F8
:1033D00076BAF31AAB8005F11E06B4F90E303380CD
:1033E000B4F910707780B4F91240B480CDE900745C
:1033F000FDF758FAA5F10C019FED3C3AB1F9000038
:10340000B2EE041A00EE100AA81DF0EE431AB0F94D
:103410000020F8EEC00A00EE102AB8EEC00AFFF74E
:1034200097FFBDEEC00AF0EE431AB2EE041A10EE9A
:10343000102A2A80B1F9022000EE102AB0F90220E9
:10344000F8EEC00A00EE102AB8EEC00AFFF780FFBF
:10345000BDEEC00AF0EE431AB2EE041A10EE102AC6
:103460006A80B1F90420B0F9040000EE102AF8EEE9
:10347000C00A00EE100AB8EEC00AFFF769FFBDEE01
:10348000C00A10EE100A04B2AC80B5F90000088042
:10349000B5F902504D808C80FDF76FF89FED148BCD
:1034A00053EC182BFCF7FAFFFDF78BF80D4E18368E
:1034B00030602846FDF761F853EC182BFCF7EEFF5F
:1034C000FDF77FF870602046FDF757F853EC182B96
:1034D000FCF7E4FFFDF775F8B06003B0BDEC028BBC
:1034E000F0BD0000340900206E0000206F12033B85
:1034F000FCA9F1D24D6260402DE9F04786B014215D
:103500006846FCF7A7FE3F480024016841F010011F
:103510000160016801F010010591016841F080012E
:103520000160016801F080010591016841F004012A
:103530000160016801F004010591016841F0010199
:103540000160016801F001010591016841F002018B
:103550000160016801F002010591016841F0080174
:1035600001600068284F00F0080005900022022149
:103570003846FDF705FCDFF8948001220221404621
:10358000FDF7FEFBDFF88890012280214846FDF719
:10359000F7FBDFF880A000224FF470415046FDF7A2
:1035A000EFFB02260125CDE90065CDE9024669461B
:1035B0003846FDF7FDFACDE90065CDE902466946DA
:1035C0004046FDF7F5FA8020CDE90005CDE9024639
:1035D00069464846FDF7ECFA4FF45040CDE9000546
:1035E00069465046CDE90245FDF7E2FA68030090CE
:1035F000CDE90154694650460394FDF7D9FA06B067
:10360000BDE8F08730380240000802400004024064
:1036100000100240000C02400D4810B50B4901603B
:103620000C49416000214FF480428160C0E90312DF
:1036300041618161C1610162FDF7AEFB002803D0E9
:10364000BDE81040FDF79ABA10BD000000540040DC
:1036500064090020801A0600104810B50E49016068
:103660004FF482714160002102228160C0E903129F
:1036700001224261520282612022C0E90721416297
:1036800081620A21C162FEF72DF9002803D0BDE84E
:103690001040FDF773BA10BD00300140B80900209A
:1036A00010B58AB000243448049405940694079415
:1036B000089409940094019402942E4903940160A3
:1036C0005321C0E9011447F22F51C0E903144461AA
:1036D0008461FEF721FC08B1FDF750FA4FF48050E9
:1036E000049004A92448FEF7D0FC08B1FDF746FA7F
:1036F0002148FEF742FE08B1FDF740FA089408A9F8
:103700001D480994FEF7C0FB08B1FDF737FA0A20FF
:1037100000900120CDE901040F20039000226946AA
:103720001548FEF79BFD08B1FDF728FA042269460B
:103730001148FEF793FD08B1FDF720FA082269460B
:103740000D48FEF78BFD08B1FDF718FA0C2269460B
:103750000948FEF783FD08B1FDF710FA0422694617
:103760000548FEF77BFD002801D0FDF707FA0AB0F7
:1037700010BD000000000140100A002010B58EB0FE
:1037800000240794089409940A940B941C21684619
:103790000C94FCF75FFD2A484FF0804101605321F3
:1037A000C0E9011444F61F61C0E903148461FEF707
:1037B000B3FB08B1FDF7E2F94FF48050079007A979
:1037C0001F48FEF762FC08B1FDF7D8F91C48FEF768
:1037D00092FF08B1FDF7D2F90B940BA918480C948D
:1037E000FEF752FB08B1FDF7C9F96020CDE90004EE
:1037F00002940022694612480494FEF714FF08B1AF
:10380000FDF7BCF9042269460D48FEF70CFF08B12C
:10381000FDF7B4F9082269460948FEF704FF08B12C
:10382000FDF7ACF90C2269460548FEF7FCFE08B12D
:10383000FDF7A4F90248FEF7CDFE0EB010BD000062
:10384000500A002010B586B0002417480094019457
:103850000294039404941349059401605321C0E930
:10386000011440F69F71C0E903148461FEF754FB14
:1038700008B1FDF783F94FF48050009069460A487B
:10388000FEF703FC08B1FDF779F9049404A9064892
:103890000594FEF7F9FA002801D0FDF76FF906B09C
:1038A00010BD000000040040900A002010B586B052
:1038B0000024174805940494009401940294134939
:1038C0000394C0E900148460C460046144618461AD
:1038D000FEF753FD08B1FDF751F9049404A90C4813
:1038E0000594FEF7D1FA08B1FDF748F90120CDE9BA
:1038F000004002940022694605480394FEF7AEFC9E
:10390000002801D0FDF73AF906B010BD00040140CF
:10391000D00A002010B588B000241E4805940694F3
:10392000079404940094019402941949039401604B
:103930005321C0E9011442F20F71C0E903148461FC
:10394000FEF7EAFA08B1FDF719F94FF48050049038
:1039500004A91048FEF799FB08B1FDF70FF90D48CF
:10396000FEF70BFD08B1FDF709F90A2000900120D0
:10397000CDE9010404200390002269460548FEF7C2
:103980006DFC002801D0FDF7F9F808B010BD00006B
:1039900000400140100B0020FEE7704726489FEDD5
:1039A000271A9FED270AD0ED0A0A10EE810AD0ED02
:1039B0000E0A803030EE600A80ED150AD0ED1C0A48
:1039C00090ED1A1A41EE000AC0ED1C0A90ED1D1A86
:1039D000F4EEC10AF1EE10FA06DCB1EE411AF4EE93
:1039E000C10AF1EE10FA01D280ED1C1AD0ED1C0ACA
:1039F00090ED191AD0ED1B1A41EE000A90ED161A3F
:103A000030EE411A41EE810AC0ED170A90ED181A06
:103A1000F4EEC10AF1EE10FA02DD80ED171A08E0AB
:103A2000F5EEC00AF1EE10FA03D2DFED060AC0EDA2
:103A3000170A80ED160A7047980000206666663EF9
:103A400000007A430000000070B5BC4C40F2D55233
:103A50002DED088B04F1800594ED080ABCEEC00A38
:103A600010EE100A80B2608194ED090A9042BCEE1B
:103A7000C00A10EE101A89B2A18102D9A0F2D55065
:103A800005E040F2C552904207D2A0F2C55000EEC8
:103A9000100AB8EEC00A85ED130A95ED131AB2EEBE
:103AA0000E0AB1F5BF6FC1EE000AC5ED130A02D9C7
:103AB000A1F5BF6107E0B1F5BD6F02D395ED141A12
:103AC00007E0A1F5BD6101EE101AB8EEC11A85ED4F
:103AD000141AC1EE008A9A48C5ED148A90ED000AC6
:103AE00030EEC08A84ED108A18EE100AFCF756FDFD
:103AF000944E96ED001B53EC112BFCF75DFC41EC52
:103B0000190B606CFCF74AFD53EC192BFCF7ADFB6D
:103B1000FCF757FD00EE100A84ED110AD4ED130AEC
:103B2000B4EEE00AF1EE10FA06DCF1EE600AB4EE53
:103B3000E00AF1EE10FA01D2C4ED110A94ED120A76
:103B400038EE400A10EE100AFCF728FD96ED021B35
:103B500053EC112BFCF730FC41EC1A0B606CFCF7BA
:103B60001DFD41EC1B0B18EE100AFCF717FD95ED3F
:103B70001E9B53EC192BFCF71FFC53EC1B2BFCF783
:103B800074FB53EC1A2BFCF711FCFCF71AFDE063F5
:103B90006D4884ED128A90ED000A38EEC08A84EDFB
:103BA0001B8A18EE100AFCF7F9FC96ED0A1B53EC81
:103BB000112BFCF701FC41EC1A0B206FFCF7EEFC1B
:103BC00053EC1A2BFCF751FBFCF7FBFC00EE100A40
:103BD00084ED1C0AD4ED1E0AB4EEE00AF1EE10FAF0
:103BE00006DCF1EE600AB4EEE00AF1EE10FA01D262
:103BF000C4ED1C0A94ED1D0A38EE400A10EE100ABE
:103C0000FCF7CCFC96ED0C1B53EC112BFCF7D4FB12
:103C100041EC1A0B206FFCF7C1FC41EC1B0B18EEBA
:103C2000100AFCF7BBFC53EC192BFCF7C5FB53EC5B
:103C30001B2BFCF71AFB53EC1A2BFCF7B7FBFCF71A
:103C4000C0FCA066414884ED1D8A90ED000AB1EEEB
:103C5000408A85ED068A18EE100AFCF79FFC96ED67
:103C6000161B53EC112BFCF7A7FB41EC190BE86971
:103C7000FCF794FC53EC192BFCF7F7FAFCF7A1FCCA
:103C800000EE100A85ED070AD5ED098AB4EEE80AC0
:103C9000F1EE10FA02DDC5ED078A08E0F1EE680AE0
:103CA000B4EEE00AF1EE10FA01D2C5ED070A95ED87
:103CB000080A38EE400A10EE100AFCF76FFC96ED89
:103CC000181B53EC112BFCF777FB41EC190BE8693F
:103CD000FCF764FC41EC1A0B18EE100AFCF75EFCD2
:103CE00096ED141B53EC112BFCF766FB53EC1A2BCF
:103CF000FCF7BBFA53EC192BFCF758FBFCF761FC03
:103D000000EE100A85ED050AB4EEE80AF1EE10FAAD
:103D100002DDC5ED058A08E0F1EE680AB4EEE00ABE
:103D2000F1EE10FA01D2C5ED050A85ED088A606949
:103D3000401C6061BDEC088B70BD00009800002045
:103D400008000020980100200C0000201000002036
:103D50002DE9F041B24FB34C2DED068B97ED000AE3
:103D6000D4ED0F0A30EEC08A84ED158A18EE100AE1
:103D7000FCF714FC04F5807696ED061B53EC112B32
:103D8000FCF71AFB41EC190BA06DFCF707FC53EC98
:103D9000192BFCF76AFAFCF714FC00EE100A84ED0C
:103DA000160AD4ED180AB4EEE00AF1EE10FA06DCB9
:103DB000F1EE600AB4EEE00AF1EE10FA01D2C4EDC1
:103DC000160A94ED170A38EE400A10EE100AFCF7B6
:103DD000E5FB96ED081B53EC112BFCF7EDFA41ECDB
:103DE000190BA06DFCF7DAFB41EC1A0B18EE100A68
:103DF000FCF7D4FB96ED041B53EC112BFCF7DCFA1B
:103E000053EC1A2BFCF731FA53EC192BFCF72DFA73
:103E1000FCF7D7FB00EE100A84ED140AD4ED190A62
:103E2000B4EEE00AF1EE10FA06DCF1EE600AB4EE50
:103E3000E00AF1EE10FA01D2C4ED140A84ED178AFB
:103E400097ED010AD4ED1A0A764D30EEC08A80351E
:103E500085ED008A18EE100AFCF7A0FB96ED101B0A
:103E600053EC112BFCF7A8FA41EC190B6868FCF72E
:103E700095FB53EC192BFCF7F8F9FCF7A2FB00EECD
:103E8000100A85ED010AD5ED030AB4EEE00AF1EE61
:103E900010FA06DCF1EE600AB4EEE00AF1EE10FA78
:103EA00001D2C5ED010A95ED020A38EE400A10EE86
:103EB000100AFCF773FB96ED121B53EC112BFCF769
:103EC0007BFA41EC190B6868FCF768FB41EC1A0BB4
:103ED00018EE100AFCF762FB96ED0E1B53EC112B4B
:103EE000FCF76AFA53EC1A2BFCF7BFF953EC192BC9
:103EF000FCF7BBF9FCF765FB00EE100A84ED1F0A26
:103F0000D5ED040AB4EEE00AF1EE10FA06DCF1EEAB
:103F1000600AB4EEE00AF1EE10FA01D2C4ED1F0A15
:103F200085ED028A97ED020AD5ED050A30EEC08ACA
:103F300085ED0B8A18EE100AFCF730FB96ED1C1B82
:103F400053EC112BFCF738FA41EC190B286BFCF7FA
:103F500025FB53EC192BFCF788F9FCF732FB00EE3C
:103F6000100A304885ED0C0AD5ED0F0A8030D0EDEF
:103F70000E8AB4EEE00AF1EE10FA02DDC5ED0C8A0D
:103F80000AE0F1EE600AB4EEE00AF1EE10FA03D2B4
:103F9000B1EE680A85ED0C0A95ED0D0A38EE400A7F
:103FA00010EE100AFCF7FAFA96ED1E1B53EC112BDB
:103FB000FCF702FA41EC190B286BFCF7EFFA41EC25
:103FC0001A0B18EE100AFCF7E9FA96ED1A1B53ECDF
:103FD000112BFCF7F1F953EC1A2BFCF746F953ECD3
:103FE000192BFCF742F9FCF7ECFA00EE100A85ED0C
:103FF0000A0AB4EEE80AF1EE10FA02DDC5ED0A8A0B
:1040000008E0F1EE680AB4EEE00AF1EE10FA01D22F
:10401000C5ED0A0A85ED0D8ABDEC068BBDE8F08181
:104020004C090020980000207047000009489FEDCF
:10403000080AA0F1800180ED0C0A80ED010A81EDF3
:10404000160A80ED0D0A80ED020A81ED170A70470D
:104050000000000018010020F8B5044640684FF445
:104060008273984221D1A0684FF48065B0F5004F6B
:1040700001D0A8420AD12068066826F040060660F2
:104080006068984211D1A068A8420ED000920B46F9
:1040900000228021204600F039F8002804D0606D0D
:1040A00040F0200060650320F8BD00920B4600221E
:1040B0000121EFE738B504461248134B0068B0FB06
:1040C000F3F04FF47A73584300906068B0F5827F44
:1040D0000DD10B46009200228021204600F016F8F8
:1040E00070B1606D40F020006065032038BD00981D
:1040F00030B1401E009020688068C0430006F6D5AD
:10410000002038BD1802002000366E012DE9F04174
:104110001D4617460E460446DDF8188008E0681C68
:1041200006D0FCF733FEA0EB0800A8420BD255B135
:104130002068806836EA000030D00020B842EED116
:104140000020BDE8F0812068416821F0E001416075
:104150006068B0F5827F0BD1A068B0F5004F02D047
:10416000B0F5806F04D12068016821F04001016042
:10417000A06AB0F5005F09D12068016821F4005100
:1041800001602068016841F400510160012084F859
:104190005100002084F850000320D2E70120CDE731
:1041A0007047FDF777B8000030B593B0302168460E
:1041B000FCF750F814210CA8FCF74CF81C4800251B
:1041C000016841F080510160006800F0805011905A
:1041D0001848016841F4804101600068022400F43D
:1041E0008040119001200090000401908001CDE9F1
:1041F000064008AA0420542182E813000B90684668
:10420000FDF7C2F908B1FCF7B9FC0CA90F2081E851
:1042100031004FF48050CDE90F0502210CA8FDF7C5
:10422000D3F8002801D0FCF7A9FC13B030BD000082
:1042300040380240007000401048016841F47001AD
:1042400001600F48016841F0010101600C4A002142
:104250000832116002680B4B1A400260031D0A4AC3
:104260001A60026822F48022026005480C30016066
:1042700002495806803908607047000088ED00E068
:1042800000380240FFFFF6FE1030002410B504484D
:10429000FEF7EDF8BDE810400248FEF7E8B8000070
:1042A000100A0020100B00200148FEF7E0B80000C3
:1042B000100A00200148FEF7DAB80000900A00203A
:1042C000F0B50268254C264D264E274F274B4FF060
:1042D000804CA04209D0604507D0A84205D0B0422A
:1042E00003D0B84201D0984204D122F0700E4A683F
:1042F00042EA0E02A0421BD0604519D0A84217D056
:10430000B04215D0B84213D0984211D0184DA842EF
:104310000ED0184DA8420BD0174DA84208D0174D0B
:10432000A84205D0164DA84202D0164DA84203D18E
:1043300022F44075CA682A434D6922F080022A435C
:1043400002608A68C2620A688262A04201D0984212
:1043500001D10969016301214161F0BD0000014003
:104360000004004000080040000C00400004014030
:104370000040014000440140004801400018004056
:10438000001C00400020004010B501F01F03012177
:10439000046A99408C430462016A9A4011430162A5
:1043A00010BD10B5846842EA032224F47F440A4316
:1043B0002243826010BD826822F070020A4342F0FC
:1043C0000701816070470000F0B5026A22F0010227
:1043D0000262036A42688469124E24F073050C6815
:1043E0002C4323F002058B682B430D4DA84201D0CE
:1043F000B04205D123F00807CB683B4323F0040308
:10440000A84201D0B04205D14D6922F44072154353
:104410008A692A4342608461496841630362F0BD4E
:104420000000014000040140F0B5026A22F01002D1
:104430000262026A436884690D6824F4E64444EA2F
:1044400005248D6822F0200242EA05120F4D104E1D
:10445000A84201D0B04206D1CF6822F0800242EAE1
:10446000071222F04002A84201D0B04207D14D69A4
:1044700023F4406343EA85038D6943EA850343607F
:104480008461496881630262F0BD00000000014060
:1044900000040140F0B5026A22F480720262026AEE
:1044A0004368C46922F4007224F073050C68124E4C
:1044B0002C438D6842EA05220E4DA84201D0B0423D
:1044C00006D1CF6822F4006242EA072222F4806219
:1044D000A84201D0B04207D14D6923F4405343EACA
:1044E00005138D6943EA05134360C4614968C163DC
:1044F0000262F0BD000001400004014030B5026AD4
:1045000022F480520262046A4268C3690D6823F48F
:10451000E64343EA05238D6824F4005444EA053455
:10452000084DA84202D0084DA84204D14D6922F49A
:10453000804242EA85124260C361496801640462B4
:1045400030BD0000000001400004014010B5036AC6
:10455000046A24F001040462846924F0F00444EA4B
:10456000021423F00A020A438461026210BD0000B3
:1045700070B5046A24F0010404628469056A154E6A
:10458000B04214D0B0F1804F11D0134EB0420ED0D3
:10459000124EB0420BD0124EB04208D0114EB04273
:1045A00005D0114EB04202D0104EB04203D124F0DB
:1045B0000304144301E044F001041A0724F0F0045A
:1045C00044EA126225F00A0301F00A0119438261EC
:1045D000016270BD0000014000040040000800407E
:1045E000000C004000040140004001400018004061
:1045F00010B5036A23F0100303628369046A23F48D
:10460000704343EA023224F0A00343EA01118261BD
:10461000016210BD30B5046A24F01004046284699C
:10462000056A24F4407444EA022222F470444FF6EE
:10463000FF7202EA03322243A02425F0A00304EA19
:10464000011119438261016230BDFEE703B4019894
:104650004100009850EAC12018BF04204A0D18BF3D
:1046600040F0010040F2FF72B2EB515F08BF40F032
:104670000200012808BF052002B070470907090E93
:10468000002804DB00F1E02080F80014704700F0FF
:104690000F0000F1E02080F8141D704700000000BA
:1046A00070B5C1482DED020B2DED0E8B82B0119D22
:1046B00025F000449FEDBEDB9FEDBFEB84423EDB67
:1046C000A4F140511098A1F17F6108430FD0BC487C
:1046D000844202DC28D1109830B39DED100B02B05B
:1046E000BDEC0E8B02B0BDE8704000F0A6BC9DEDA5
:1046F000100B53EC1D2B51EC100BFBF75DFE9DEDE9
:10470000100B41EC180B53EC1E2B51EC100BFBF76C
:1047100053FE53EC182BFBF7A8FD41EC100B02B035
:10472000BDEC0E8B02B070BD012000F0CDFC02B0DC
:10473000BDEC0E8B02B0BDE8704000F095BCA14806
:104740009FEDA18B844256DA9DED100BB4F1795F99
:104750000ADA51EC100BFFF779FF042808BF00F0CC
:1047600093FC9DED100BDAE753EC102B51EC100B82
:10477000FBF722FE41EC190B95480621B0EE490AE1
:10478000F0EE690A784400F0DCFB53EC192B51EC95
:10479000100BFBF711FE41EC1A0B8E48B0EE490AE4
:1047A000F0EE690A0421784400F0CBFB53EC192B9E
:1047B00051EC100BFBF700FE53EC182BFBF755FDEB
:1047C00041EC100B51EC1A0B53EC102BFBF766FE6F
:1047D000CDE900019DED000B53EC102B9DED100B6E
:1047E00051EC100BFBF7E8FD9DED101B53EC112B6A
:1047F000FBF73BFDD2E09DED100B51EC100B00F0F0
:104800007BFD53EC182BFBF7D4FD9FED730BCDE92B
:10481000000153EC102B9DED000B51EC100BFBF73E
:10482000CBFD41EC190B6E480621B0EE490AF0EEC3
:10483000690A784400F085FB53EC192B51EC100BFE
:10484000FBF7BAFD41EC1B0B6648B0EE490AF0EEEF
:10485000690A0421784400F074FB53EC192B51ECE5
:10486000100BFBF7A9FD53EC182BFBF7FEFC41ECFA
:104870001C0B51EC190B00F04DFE41EC180B5A4883
:104880009FED5BABA04222DC53EC1C2B51EC1B0BCD
:10489000FBF704FECDE900019DED000B51EC180B78
:1048A00053EC102BFBF788FD53EC182BFBF7DDFCCA
:1048B00053EC1A2BFBF780FD53EC1D2BFBF776FD19
:1048C00053EC1E2BFBF775FD41EC100B5FE08DEDFB
:1048D000008B002000909DED000B51EC180B53EC69
:1048E000102BFBF7C2FC9DED000B41EC1E0B53ECB3
:1048F000102B51EC100BFBF75FFD53EC192BFBF762
:1049000058FD53EC1E2BFBF7C9FD41EC190B53EC82
:104910001C2B51EC1B0BFBF7C1FD41EC1B0B53ECAB
:104920001A2B51EC190BFBF747FD53EC1D2BFBF732
:1049300040FD41EC190B53EC1A2B51EC180BFBF713
:104940003BFD53EC1B2BFBF737FD53EC192BFBF70F
:104950002DFD9DED000B41EC180B53EC1A2B51EC87
:10496000100BFBF729FD9FED249B53EC192BFBF754
:1049700020FD41EC100B51EC180B53EC102BFBF706
:1049800015FD53EC192BFBF714FD41EC100B002D1A
:104990003FF7C5AE51EC100B81F0004141EC100B1C
:1049A000BDE60000000000000000F03F0000000035
:1049B000075C143326A6913C182D4454FB21F93F83
:1049C0000000F07F0000E03F000000000000F03F2A
:1049D000180E0000260E0000000000000000E03F5E
:1049E0006A0D0000780D00003333EF3F0000000037
:1049F0000000000000000040182D4454FB21E93F56
:104A000070B59B482DED020B2DED068B079D25F013
:104A10000044A04218DC9748844202DC0AD1069880
:104A200040B19DED060BBDEC068B02B0BDE87040B9
:104A300000F003BB002DCCBF9FED8F0B9FED900BC3
:104A4000BDEC068B02B070BD8F48A04215DD8F48CB
:104A5000A042D8BF4FF0FF3458DD9DED060B51EC5E
:104A6000100BFFF7F3FD042808BF00F00DFB9DEDD0
:104A7000060BBDEC068B02B070BD9DED060B51EC34
:104A8000100B00F039FCCDE9060181489FED828BC7
:104A9000A0423CDD8248A0421FDD00249FED82AB96
:104AA0009DED060B53EC1A2B51EC100BFBF7DDFBC5
:104AB0009DED060B41EC190B53EC1A2B51EC100B2E
:104AC000FBF77AFC53EC182BFBF770FC53EC192B1B
:104AD000FBF7E4FCCDE9060149E09DED060B01245E
:104AE00053EC182B51EC100BFBF7BFFB9DED060BA5
:104AF00041EC190B53EC182B51EC100BFBF756FC47
:104B000053EC192BFBF7CAFCCDE906012FE06848EE
:104B1000A0421FDD02249FED689B9DED060B53EC28
:104B2000192B51EC100BFBF747FC53EC182BFBF740
:104B30009CFB9DED060B41EC180B53EC192B51EC33
:104B4000100BFBF733FC53EC182BFBF7A7FCCDE95C
:104B500006010CE09DED060B032453EC102B9FED9A
:104B6000580B51EC100BFBF799FCCDE906019DEDBC
:104B7000060B53EC102B51EC100BFBF71DFC41EC1A
:104B8000180B53EC182BFBF717FC41EC190B4E4894
:104B90000621B0EE490AF0EE690A784400F0D1F936
:104BA00053EC182B51EC100BFBF706FC41EC180BE7
:104BB0004648B0EE490AF0EE690A0521784400F053
:104BC000C0F953EC192B51EC100BFBF7F5FB41EC42
:104BD000100B51EC180B53EC102B002C0EDAFBF7DA
:104BE00044FB9DED061B53EC112BFBF7E5FB9DED04
:104BF000061B53EC112BFBF7DCFB35E0FBF735FB19
:104C00009DED061B53EC112BFBF7D6FB41EC100B73
:104C10002F48784400EBC40090ED001B51EC100BC2
:104C200053EC112BFBF7C2FB9DED061B53EC112B34
:104C3000FBF7BCFB41EC100B2648784400EBC400AA
:104C400090ED001B51EC100B53EC112BFBF7B1FB5B
:104C500041EC100B002DA2BFBDEC068B02B070BD65
:104C600051EC100B81F0004141EC100B01E700000A
:104C7000000010440000F07F182D4454FB21F93F40
:104C8000182D4454FB21F9BF0000DC3F0000203EFA
:104C90000000F33F00000000000000000000F03FB3
:104CA0000000E63F0000000000000000000000409F
:104CB0000080034000000000000000000000F83FFA
:104CC000000000000000F0BFBA0A0000700A0000F7
:104CD000FA090000B209000070B56B4E2DED040B0F
:104CE0002DED028B82B0DDF81CC0DDE905235C42AE
:104CF0002CF000411C4341EAD474049D22F0004092
:104D0000B44205D86C422C4340EAD474B4420BD967
:104D10009DED061B9DED040B02B0BDEC028B04B0B3
:104D2000BDE8704000F093B9ACF14054A4F17F6449
:104D30001C430BD0022404EAAC7444EAD274054349
:104D40009FED538B9FED542B07D015E09DED040B89
:104D500051EC100B00F0C8FA42E0002C11BF012CFE
:104D60009DED040B02B0BDEC028B04BF04B070BD1E
:104D7000022C38D0032C3BD00B439FED491B9FEDF9
:104D80004A0B0AD0B14218D1B04209D121F080417A
:104D900020F08040079105900FE0002A15DA10E01E
:104DA000434B7B44002C08BF93ED000B0DD0012C2E
:104DB00010D0022C17D0032C1AD0B0421DD1002ADB
:104DC00003DAB0EE410AF0EE610A02B0BDEC028BEC
:104DD00004B070BD93ED000B51EC100B81F000415D
:104DE00041EC100BF1E7B0EE480AF0EE680AECE790
:104DF000B0EE420AF0EE620AE7E7401A00153C28DE
:104E0000C8BF8DED000B19DCBCF1000FBEBF10F167
:104E10003C0F9FED290B8DED000B0FDB9DED060B7D
:104E200053EC102B9DED040B51EC100BFBF736FBF4
:104E300000F062FA00F058FACDE90001002C08BF3A
:104E40009DED000BC1D0012C10D0022C9FED1C0B4E
:104E500053EC102B9DED000B51EC100B0DD0FBF71C
:104E6000A5FA53EC182BFBF7A1FAB9E7019880F0EB
:104E7000004001909DED000BA7E7FBF797FA53EC7C
:104E8000182BFBF796FAABE70000F07F000000005C
:104E9000182D4454FB210940182D4454FB2109C00E
:104EA000182D4454FB21F9BF182D4454FB21F93F20
:104EB000E208000000000000000000000000000008
:104EC000075C143326A6A13C00B52DED048BB0EE93
:104ED000409AF0EE609A83B051EC190BFBF752FC4C
:104EE00041EC180B18EE100A18EE901A8DED008B9D
:104EF000002818BF0120084320F00040C0F17F6067
:104F000000F1E040C00F14D019EE101A19EE900A0B
:104F10008DED009B002918BF0121084320F00040BF
:104F2000C0F17F6000F1E040C00F04BF012000F03D
:104F3000CBF8B0EE480A03B0F0EE680ABDEC048B83
:104F400000BD70B504462DED028B4D1E00EBC50073
:104F5000B0EE408AF0EE608A90ED000B35F006006E
:104F600017D053EC182B51EC100BFBF725FA41EC42
:104F7000100B6D1E04EBC50090ED001B51EC100BE7
:104F800053EC112BFBF771F941EC100B35F00600D7
:104F9000E7D1022D36D0042D1CD0062D1CBFBDEC50
:104FA000028B70BD53EC182B51EC100BFBF704FA7D
:104FB00094ED0A1B53EC112BFBF757F953EC182B0C
:104FC000FBF7FAF994ED081B53EC112BFBF74DF9A5
:104FD00041EC100B53EC182B51EC100BFBF7ECF9D8
:104FE00094ED061B53EC112BFBF73FF953EC182BF8
:104FF000FBF7E2F994ED040B53EC102BFBF735F9BA
:1050000041EC100B53EC182B51EC100BFBF7D4F9BF
:1050100094ED021B53EC112BFBF727F953EC182BE3
:10502000FBF7CAF994ED001B53EC112BFBF71DF9AC
:10503000BDEC028B41EC100B70BD10B553EC102B86
:1050400051EC100BFBF711F941EC100B10BD10B532
:1050500053EC112B51EC100BFBF707F941EC100B43
:1050600010BD0000000000009FED050B10B553ECD3
:10507000102B51EC100BFBF711FA41EC100B10BD8B
:1050800000000000000000009FED050B10B553EC80
:10509000102B51EC100BFBF78FF941EC100B10BDEE
:1050A000000000000000001002E008C8121F08C144
:1050B000002AFAD170477047002001E001C1121F99
:1050C000002AFBD1704700000149086070470000CA
:1050D000280200200FB4002230B5444D87B0802153
:1050E0002846FBF74DFE02208DF800000120FBF75B
:1050F00017FD01231A4669460AA8FCF70FFD012097
:10510000FBF70EFD01231A4601A90AA8FCF75EFC75
:105110000120FBF705FD012280212846FBF730FE28
:105120009DF80400324CC00955D003208DF80800CA
:105130000120FBF7F5FC002280212846FBF720FE2A
:105140000120FBF7EDFC01231A4602A90AA8FCF78F
:10515000E5FC0120FBF7E4FC01231A4603A90AA899
:10516000FCF734FC0120FBF7DBFC01228021284600
:10517000FBF706FE04208DF810000022802128464F
:10518000FBF7FEFD0120FBF7CBFC01231A4604A927
:105190000AA8FCF7C3FC0120FBF7C2FC01231A4656
:1051A00005A90AA8FCF712FC0120FBF7B9FC0122B3
:1051B00080212846FBF7E4FD0120FBF7B1FC4FF40A
:1051C00080410C48FBF7D5FD9DF80C0020709DF840
:1051D0001400607002E00020607020700120FBF776
:1051E0009FFC07B030BC5DF814FB000000100240CB
:1051F00088000020000C02400FB47FB50020374C1F
:105200008DF80000012280212046FBF7B9FD344DC6
:10521000012202212846FBF7B3FD0120FBF760FCC9
:10522000002202212846FBF7ABFD3220FBF758FC99
:10523000002280212046FBF7A3FD0220FBF770FC33
:1052400001231A46694608A8FCF768FC0120FBF711
:1052500067FC01231A4601A908A8FCF7B7FB012047
:10526000FBF75EFC9DF80400172804D1012211030E
:105270001C48FBF785FD012280212046FBF780FDBD
:105280000120FBF72DFC002280212046FBF778FD52
:105290000120FBF725FC8A208DF8080019208DF8E5
:1052A0000C0001231A4602A908A8FCF737FC0120CC
:1052B000FBF736FC01231A4603A908A8FCF72EFCCD
:1052C0000120FBF72DFC012280212046FBF758FD31
:1052D0000120FBF705FC7FBC5DF814FB00100240C9
:1052E00000040240000C024010B541EC100BFFF727
:1052F00087FB51EC100B10BD82B0CDE9000121F00D
:10530000004001909DED000B02B051EC100B704776
:10531000034991F900204868104448607047000034
:1053200088000020034991F90120886810448860B2
:10533000704700008800002010EE100AF6EE000A08
:10534000074960EE200AA1EB600000EE100A20EE93
:10535000801AF7EE080A41EE400A20EE800A7047F4
:10536000DF59375F2DED028BA8B0FBF79BFFFEF7EF
:105370001BFFFEF7C1F8FEF74FF9FEF791F9FEF7B4
:10538000FDF9FEF75FFAFEF767F9FEF78FFAFEF711
:10539000C1FAFDF7A9FFFBF781FB36224B4912A8A2
:1053A000FAF73FFF494CE08EADF87E0004F12C0087
:1053B000C1682091008AADF88400E08FADF88600C6
:1053C000112204F1400122A8FAF72BFF94F85100B2
:1053D0008DF89900606D2790482216A96846FAF763
:1053E00020FF0DF1480C9CE80F00FFF705FF00219E
:1053F00004F19800FDF79CF9042104F19800FDF7F1
:1054000097F9082104F19800FDF792F90C2104F1B5
:105410009800FDF78DF904F198014FF47A700A684D
:1054200050630A6890630A68D063096808644000A2
:10543000FBF7ACFB002104F15800FCF7EDFF08215D
:1054400004F15800FCF7E8FF042104F15800FCF7D0
:10545000E3FF0C2104F15800FCF7DEFF002104F506
:10546000AC70FCF7D9FF04F1D800FCF7FDFD012278
:10547000D1031748FBF784FC164D0120164C9FED15
:10548000178A05F18006E861002202212046FBF719
:1054900077FC0120FBF75AFB012202212046FBF793
:1054A0006FFC0A20FBF752FB002202212046FBF78B
:1054B00067FC96ED120A3220B8EE400A20EE080A88
:1054C00085ED0E0AFBF70CFBDEE70000B8090020B3
:1054D000000C024098000020000802407AC18C3C79
:1054E000F8B50C46094916460A2508700A460123F4
:1054F000D02107480095FBF703FE23463246D02112
:1055000003480095FBF70CFDF8BD00004C0000209F
:105510006409002000B52DED048B83B041EC190B1C
:10552000FBF730F941EC180B18EE100A18EE901A40
:105530008DED008B002818BF0120084320F00040AB
:10554000C0F17F6000F1E040C00F14D019EE101AD6
:1055500019EE900A8DED009B002918BF0121084328
:1055600020F00040C0F17F6000F1E040C00F04BFB8
:105570000120FFF7A9FD51EC180B03B0BDEC048B23
:1055800000BD000000000000000001020304060747
:1055900008090000000001020304000000000000F0
:1055A000555555555555C53F7D6FEB0312D6D4BFA4
:1055B0005544880E55C1C93F3B8F68B52882A4BFAA
:1055C00088B20175E0EF493F09F7FD0DE13D023F6B
:1055D0004B2D8A1C273A03C0C88A599CE52A0040F3
:1055E00059018D1B6C06E6BF82922EB1C5B8B33F40
:1055F0004FBB610567ACDD3F182D4454FB21E93FEB
:105600009BF681D20B73EF3F182D4454FB21F93FD9
:10561000E2652F227F2B7A3C075C143326A6813C5F
:10562000BDCBF07A8807703C075C143326A6913C0A
:10563000C4EB98999999C9BF711623FEC671BCBF76
:105640006D9A74AFF2B0B3BF9AFDDE522DDEADBFDE
:105650002F6C6A2C44B4A2BF0D5555555555D53FF6
:10566000FF8300922449C23F6E204CC5CD45B73F11
:10567000513DD0A0660DB13FEB0D76244B7BA93F89
:1056800011DA22E33AAD903F000000000000000074
:10569000B0560008000000202C0200004C08000852
:1056A000085700082C020020240D0000B850000804
:1056B000210792803F6F1203434BE8030201440A23
:1056C000117AE01A4814091218092A2C0B14C8423E
:1056D0002C091218F968021744061660666606401F
:1056E0002A0418368006F0863F0D2DA099992828A7
:1056F0002AE01001132AF8185D40E17A742013188B
:08570000401324F43201B21041
:040000050800018965
:00000001FF
