:020000040800F2
:10000000E80D00209D010008032F000823200008B0
:10001000012F0008750A00080739000800000000D9
:10002000000000000000000000000000A9340008EB
:10003000770A00080000000079340008AB3400089B
:10004000B7010008B7010008B7010008B7010008B0
:10005000B7010008B7010008B7010008B7010008A0
:10006000B7010008B7010008B7010008B701000890
:10007000B7010008B7010008B7010008B701000880
:10008000B7010008B7010008B7010008B701000870
:10009000B7010008B7010008B7010008B701000860
:1000A000B7010008B7010008B7010008853500084E
:1000B000B701000891350008B7010008B701000832
:1000C000B7010008B7010008B7010008B701000830
:1000D000B7010008B7010008B7010008B701000820
:1000E000B7010008B7010008B7010008B701000810
:1000F000B7010008B7010008B7010008B701000800
:10010000B7010008B7010008B7010008B7010008EF
:10011000B7010008B7010008B7010008B7010008DF
:10012000B7010008B7010008B7010008B7010008CF
:10013000B7010008B7010008B7010008B7010008BF
:10014000B7010008B7010008B7010008B7010008AF
:10015000B7010008B7010008B7010008B70100089F
:10016000B7010008B7010008B7010008B70100088F
:10017000B7010008B7010008B7010008000000003F
:10018000B7010008B7010008DFF80CD000F03AFB17
:1001900000480047C1430008E80D0020064880479A
:1001A00006480047FEE7FEE7FEE7FEE7FEE7FEE75C
:1001B000FEE7FEE7FEE7FEE73135000889010008AB
:1001C0002DE9F05F0546002092469B46884606468C
:1001D000814640241BE0284641464746224600F01F
:1001E00009FA53465A46C01A914110D3114618468F
:1001F000224600F0F0F92D1A67EB01084F4622461F
:100200000120002100F0E7F917EB00094E41201E04
:10021000A4F10104DFDC484631462A464346BDE8E6
:10022000F09FD2B201E000F8012B491EFBD27047CB
:100230000022F6E710B513460A4604461946FFF7B2
:10024000F0FF204610BD2DE9FE4F804681EA0300F5
:10025000C00F0C46009021F0004123F00045B8EBA0
:100260000200A94105D24046214690461C460B4655
:10027000024623F00040104347D0270DC7F30A0081
:10028000C3F30A510290401A019040286BDAC3F37D
:10029000130040F4801B0098924620B10023D2EB5B
:1002A000030A63EB0B0B01985946C0F1400250461C
:1002B00000F091F906460D4650465946019A00F065
:1002C000A9F910EB08006141002487EA115284EA81
:1002D000E7731A4340D0009A62B3019A012A4FEAA9
:1002E000075215DC001B61EB02014FF0004202EAED
:1002F0000752CDE90042001C41F5801132462B46E1
:1003000000F0E0F903B0BDE8F08F40462146F9E780
:10031000001B61EB0201001C41F5801300185B41DA
:100320002018A2F5001747EB030140EAD570B61973
:100330006D4111E06D084FEA360645EAC0754FEA97
:100340000752001B61EB0201001C41F580114908B6
:100350004FEA30000019514132462B4603B0BDE848
:10036000F04F00F0A0B90098012240000023D0EB2C
:10037000020263EBE073009821464FEAE074B8EBA9
:10038000000061EB0401E9E783F000435BE781F0E3
:10039000004158E72DE9FE4F81EA030404F00044D0
:1003A00021F0004100944FF0000B23F0004350EA8D
:1003B00001045ED052EA03045BD0C3F30A54C1F3D4
:1003C0000A552C44A4F2F3340194A0FB0254C1F367
:1003D000130141F48011C3F3130343F4801301FBB1
:1003E000024400FB034E840A970A44EA815447EA18
:1003F0008357A4FB076802958D0A05FB07854FEA22
:10040000932C04FB0C542705029D4FEA065847EA3B
:100410001637B5EB08056EEB070C870E920E47EA10
:10042000811742EA8312A7FB0201B6EB0B0164EBD2
:1004300000042B0D43EA0C335E1844EB1C50DA46E3
:100440005146E7FB0201C5F313044FEA0B3343EABD
:1004500014534FEA0432019C43EA0603A4F10C044E
:100460000294009CCDE900B400F02CF903B0BDE883
:10047000F08F00200146F9E72DE9F04D81EA0304F1
:1004800004F0004B21F0004514464FF0000A23F021
:10049000004150EA050220D054EA01021DD0C5F304
:1004A0000A570246C5F31303C1F31300C1F30A56FA
:1004B00040F4801543F48013A7EB0608101BD646C2
:1004C00008F2FD3873EB050002D308F1010801E0E2
:1004D00092185B41B8F1000F03DA00200146BDE835
:1004E000F08D00204FF48011064684460EE0171B65
:1004F00073EB050705D3121B63EB050306434CEAB8
:10050000010C49084FEA300092185B4150EA01079C
:10051000EDD152EA030012D082EA040083EA050119
:10052000084305D0101BAB4106D20122002306E090
:1005300000224FF0004302E06FF0010253101AEB6B
:1005400006004CEB085110EB0A0041EB0B01BDE833
:10055000F04D00F0A8B80EB5C10F80EAE070084475
:10056000CA07002140F233438DE80E000A460B46CD
:1005700000F0A8F803B000BD00F0004230F00040E9
:100580000AD0C10D01F56071C0F3160042EA0151B5
:10059000C20840071143704700200146704701F030
:1005A000004330B421F0004150EA010206D00A0DA8
:1005B000A2F56072C1F31301002A02DC30BC0020F6
:1005C0007047440F44EAC104C100E01830BC00EB9E
:1005D000C25000F031B8202A04DB203A00FA02F1C0
:1005E000002070479140C2F1200320FA03F3194321
:1005F00090407047202A04DB203A21FA02F00021C3
:10060000704721FA02F3D040C2F120029140084322
:1006100019467047202A06DBCB17203A41FA02F030
:1006200043EAE07306E041FA02F3D040C2F120024F
:1006300091400843194670470029A8BF7047401CE5
:10064000490008BF20F00100704710B4B0FA80FCE8
:1006500000FA0CF050EA010404BF10BC704749B125
:10066000CCF1200421FA04F411FA0CF118BF012195
:1006700021430843A3EB0C01CB1D4FEA00614FEA75
:10068000102042BF002010BC704700EBC350104444
:100690000029A4BF10BC7047401C490008BF20F0CF
:1006A000010010BC704710B5141E73F1000408DA85
:1006B000401C41F1000192185B411A4301D120F026
:1006C000010010BD2DE9F04D92469B4611B1B1FAE3
:1006D00081F202E0B0FA80F220329046FFF77BFF11
:1006E00004460F4640EA0A0041EA0B0153465A46C7
:1006F000084313D0114653EA010019D0C8F1400253
:100700005046FFF777FF05460E465046594642468B
:10071000FFF761FF084305D0012004E02046394679
:10072000BDE8F08D0020054346EAE0762C433743D0
:100730000A986305E40AA0EB08000022FD0A44EAD7
:1007400047540A3002D500200146E9E70105101997
:100750006941DDE9084500196941BDE8F04DA2E7AE
:100760002DE9F04D00231A461B1A8A4103DB0020B5
:100770000146BDE8F08DC1F30A52C1F3130141F403
:1007800080154FF0000BD10702D100186D41521EA9
:100790000027044640F2FF11384601EB620A3E464C
:1007A0008046024600204FF48011FFF723FFC21954
:1007B0007141BB1846EB0100B4EB030C75EB000C68
:1007C00004D3E41A65EB000517460E46241908F118
:1007D00001006D4180463428E3DDF91946EB06003F
:1007E000091BA84103D24FF0FF32134601E000225B
:1007F00013461BEB070046EB0A51BDE8F04DFFF72F
:1008000052BF0000064C074D06E0E06840F00103CF
:1008100094E8070098471034AC42F6D3FFF7B8FCD1
:10082000C0460008E046000870B58C1810F8015B5F
:1008300015F0070301D110F8013B2A1106D110F879
:10084000012B03E010F8016B01F8016B5B1EF9D17D
:100850002B0705D40023521E0DD401F8013BFAE703
:1008600010F8013BCB1A921C03E013F8015B01F86E
:10087000015B521EF9D5A142D8D3002070BD000003
:100880002DE9F05F764C00EE100A2DED028BDFF8BB
:10089000D4B1B8EEC00AA578D4ED020ADDE90C7631
:1008A0003BF915C070EE800A00EE10CA0BF1C80CBF
:1008B0000BF5C87EB8EEC00AABF5167A0AF1C80986
:1008C00070EEC02A00EE101AC4ED022AB8EEC00A7B
:1008D000D4ED030A3CF915C070EE800A00EE10CA90
:1008E000B8EEC00A70EEC00A00EE102AC4ED030A8A
:1008F000B8EEC00A94ED041A3EF915C031EE001AA4
:1009000000EE10CAB8EEC00A31EE402A00EE103AEE
:1009100084ED042AB8EEC00A94ED081A3AF915C01D
:1009200031EE001A00EE10CAB8EEC00A31EE403ABD
:1009300000EE107A84ED083AB8EEC00A94ED091A78
:1009400039F915C031EE001A00EE10CA09F1C80CD1
:10095000B8EEC00A31EE401A00EE106A84ED091AB2
:10096000B8EEC00AD4ED0A1A3CF9158071EE801A6F
:1009700000EE108AB8EEC00A71EEC01A9FED3A0A76
:10098000C4ED0A1AC2EE803A2BF8150009F516706C
:1009900020F815102EF815202AF8153029F81570B2
:1009A0002CF81560FDEEE32A04F13C0212EE900AE9
:1009B000C0EE802A01B21180FDEEE20A10EE900A2C
:1009C000C2EE000A00B250808046FDEEE00A10EE52
:1009D000900AC3EE000A06B2968004F14800FDEECC
:1009E000E00A10EE902AC1EE000A0280FDEEE00A55
:1009F00010EE902AC1EE800A4280BDEEE00A10EEB1
:100A0000102A82800846FFF7A6FD9FED188B53EC55
:100A1000182BFFF7BFFCFFF7C2FD09F264673860CF
:100A20004046FFF798FD53EC182BFFF7B3FCFFF798
:100A3000B6FD78603046FFF78EFD53EC182BFFF7BC
:100A4000A9FCFFF7ACFD6D1CB860E8B2A07064288B
:100A500001D10020A070BDEC028BBDE8F09F00002A
:100A600020000020FC0300200000C842000000001D
:100A70000000403FFEE7704770B5044600F0F0F814
:100A80000546601C02D004480078044400F0E8F8F1
:100A9000401BA042FAD370BD940100202DE9F84F0D
:100AA000DFF87CB100224FF001084FF0030A4FF04D
:100AB0000F090BF1040E00BF0B6808FA02F4234083
:100AC000A3426ED14D68022D01D0122D0ED1D50852
:100AD00000EB850CDCF820505607F70E09FA07F6F4
:100AE000B5430E69BE402E43CCF820600668550021
:100AF0000F790AFA05FC07F0030726EA0C06AF4057
:100B0000374307604E68012E05D0022E03D0112E08
:100B100001D0122E0ED18668CF6826EA0C06AF40AF
:100B2000374387604668A6430C79C4F300149440A9
:100B300034434460C6688C6826EA0C06AC403443F3
:100B4000C4604C68E40065D5364C256845F48045A2
:100B50002560246822F0030504F480440094324C9C
:100B60002E19D6F8084895072F0F09FA07F5AC4358
:100B70002E4DA84201D1002524E02D4DA84201D1DF
:100B800001251FE02B4DA84201D102251AE02A4D74
:100B9000A84201D1032515E0284DA84202D1042521
:100BA00010E037E0264DA84201D105250AE0254D89
:100BB000A84201D1062505E0234DA84201D1072511
:100BC00000E00825BD402543C6F80858DBF8004082
:100BD0005D464E689C43F60300D51C432C60DEF84E
:100BE000004075464E689C43B60300D51C432C60FC
:100BF0000B4D08352C684E689C43F60200D51C430B
:100C00002C60074D0C352C684E689C43B60200D50D
:100C10001C432C60521C102AFFF44EAFBDE8F88F25
:100C2000003C0140443802400030014000000240D6
:100C30000004024000080240000C02400010024084
:100C40000014024000180240001C024000690840E5
:100C500000D0012070470AB1816170470904FBE7A9
:100C600001488068704700009401002070B50400BE
:100C700004D094F83D00002510B106E0012070BDBD
:100C800084F83C50204600F005FA242084F83D000A
:100C90002068016821F00101016000F05FFB334929
:100CA0002268B0FBF1F15160314A6368934206D982
:100CB0004FF4967359434FF47A73B1FBF3F1236801
:100CC000491C1962616891420BD84900B0FBF1F2EE
:100CD000C2F30B02042A01D2042019E0B0FBF1F0A8
:100CE00016E0A3689BB301EBC10202EB0112B0FB5B
:100CF000F2F242F48042120530D04BB301EBC10254
:100D000002EB0111B0FBF1F040F4804040F40040F0
:100D10002168C861D4E90701084321680860D4E963
:100D20000310084321688860D4E90501084321685D
:100D3000C8602068016841F001010160256420203D
:100D400084F83D00256384F83E50002070BD00E02B
:100D500006E001EB4102B0FBF2F2CCE70120D7E75D
:100D600001EB4101B0FBF1F0D0E7000040420F0081
:100D7000A08601002DE9F84F1F4690468A4604469A
:100D8000DDF82890FFF76CFF054694F83D00202819
:100D90006FD1192301226E492046009501F037FAE0
:100DA0000028F5D194F83C00012862D0012084F895
:100DB0003C0020680168C90703D1016841F00101C6
:100DC00001602068016821F400610160222084F83C
:100DD0003D00102084F83E0000262664C4F82480DC
:100DE00067855C48E062608D20852B464A46514607
:100DF000204601F02BF928B1206C84F83C600428CF
:100E000041D04DE0208D544F68B1012814D0022804
:100E10002068016816D041F4806101602068416952
:100E20008069009085E020684169816900910168CE
:100E300041F4007101607CE02068016821F4806168
:100E40000160F0E721F4806101602068016841F4ED
:100E50000061E2E7032849D801280BD0022817D007
:100E60004B46002239462046009501F0D0F9B8B92A
:100E70002AE06AE02A464946204601F03DFA28B1B8
:100E8000206C20280CD00120BDE8F88F206845E0B8
:100E90004B46002239462046009501F0B8F908B1CA
:100EA0000320F1E72068016841F4007101602068C7
:100EB0000169606A421C62620170208D401E2085BB
:100EC000608D401E6085E1E72068016821F4806143
:100ED000016020680169606A421C62620170208DB5
:100EE000401E2085608D401E6085D1E72A46494618
:100EF000204601F001FA0028C2D120680269606A28
:100F0000411C61620270208D401E2085608D401E54
:100F1000608520684169C94349070AD40169606A4C
:100F2000421C62620170208D401E2085608D401E33
:100F30006085208D00288DD1202084F83D0084F824
:100F40003E6084F83C6000209EE702209CE70000A1
:100F5000020010000000FFFF040001002DE9F84F1F
:100F60001F4690468A460446DDF82890FFF778FE33
:100F7000064694F83D0020287ED1192301224349DA
:100F80002046009601F043F900287DD194F83C00FA
:100F9000012879D0012084F83C0020680168C90745
:100FA00003D1016841F0010101602068016821F46A
:100FB00000610160212084F83D00102084F83E008B
:100FC00000252564C4F8248067853148E062608D7F
:100FD000208533464A465146204601F0A7F828B1FD
:100FE000206C84F83C5004284CD00DE02068416906
:100FF0008069009030E032464946204601F0ADF964
:1010000028B1206C042838D00320BDE8F88F606A2E
:10101000411C6162216800780861608D401E608516
:10102000208D401E80B2208521684A69D243520734
:101030000BD450B1606A421C626200780861608D16
:10104000401E6085208D401E208532464946204640
:1010500001F0B6F80028D4D1208D0028CBD154F867
:101060003D0B016841F400710160202004F81E0965
:10107000E57765770020C8E706E02068016841F45D
:10108000007101600120C0E70220BEE702001000ED
:101090000000FFFF10B586B0044614216846FFF734
:1010A000C7F813492068884220D11248016841F0EE
:1010B000020101600068694600F002000590C0204E
:1010C0000090122001900120029003200390042040
:1010D00004900948FFF7E2FC06481030016841F42B
:1010E00000110160006800F40010059006B010BD0A
:1010F0000054004030380240000402400248816839
:101100000278114481607047940100200B4810B5AB
:10111000016841F400710160016841F4806101607F
:10112000016841F480710160032000F06DF8002037
:1011300000F006F800F024F8002010BD003C02404A
:1011400070B50D4D04464FF47A712878B1FBF0F07C
:101150000A490968B1FBF0F000F0CEFA48B9102C4A
:1011600007D200222146501E00F02EF800206C60AD
:1011700070BD012070BD000094010020900100208E
:101180000A4808B5016841F480410160006800F434
:10119000804000900548001F016841F080510160C7
:1011A000006800F08050009008BD00004438024004
:1011B00000F01F02012191404009800000F1E02071
:1011C000C0F8001170470000F0B40E4B1B680C46CD
:1011D000C3F30223C3F10705042D00D90425191D0B
:1011E000072901D2002300E0DB1E012606FA05F1E3
:1011F000491E214099409E40761E16403143F0BC66
:1012000001F080BE0CED00E0064900F0070208681E
:101210004FF6FF03184040EA0220034A10430860DB
:10122000704700000CED00E00000FA052DE9F047E2
:101230000E46050065D0DFF81481D8F80000F7B23B
:1012400000F00F00B04207D288F80070D8F8000014
:1012500000F00F00B04254D128683D4C810712D5F0
:10126000400703D5206840F4E0502060287800074C
:1012700003D5206840F4604020602068A96820F011
:10128000F000084320602878C0072DD030496868F6
:101290000839012812D0022813D0032811D0096878
:1012A000890700292DDA216821F00301014321601B
:1012B000FFF7D6FC814641F2883A0EE009688903BF
:1012C000EFE709688901ECE7FFF7CAFCA0EB090129
:1012D000514502D90320BDE8F0872068696800F015
:1012E0000C00B0EB810FEFD1D8F80010404601F0B0
:1012F0000F01B14207D90770006800F00F00B0423B
:1013000001D00120E7E72878400705D52068E96883
:1013100020F4E050084320602878000706D52068B4
:10132000296920F4604040EAC100206000F026F8FE
:101330002168084AC1F30311515CC840064908609E
:101340000020FFF7FDFE0020C5E70000003C024042
:1013500008380240B84500089001002004480549BB
:1013600000680968044AC1F38221515CC840704793
:101370009001002008380240C8450008154810B503
:10138000006810F00C02144813D04110042A0FD04A
:10139000082A0ED10F4C241F2268236802F03F0256
:1013A0005B0207D52068C0F38810A0FB010106E0AE
:1013B000084610BD2168C1F38811A1FB000100237C
:1013C000FEF7FEFE2168C1F30141491C4900B0FB54
:1013D000F1F010BD083802400024F4002DE9F84F68
:1013E000050076D02878DFF8F8B2BE4CC00749D0A7
:1013F000DBF800105846C1F38101012908D00068CC
:10140000C0F3810002280AD1201D0068400206D5E1
:101410002068800336D568680028E2D032E068682A
:10142000B0F5803F10D0B0F5A02F206810D020F488
:1014300080302060206820F4802020606868A0B19F
:10144000FFF70EFC06460CE0206840F48030F4E71D
:1014500040F480202060F7E7FFF702FC801B64283F
:1014600073D820688003F7D50CE0FFF7F9FB064638
:1014700005E000BFFFF7F4FB801B6428F0D820686C
:101480008003F7D42878DFF8608280074FF00009E6
:101490003ED5DBF80010584611F00C0F09D000685B
:1014A000C0F3810002280BD18D48001F0068400264
:1014B00006D42068800715D5E868012809D111E015
:1014C000E868B8B10120C8F80000FFF7C9FB06467C
:1014D00005E002E1FFF7C4FB801B0228C0D82068AA
:1014E0008007F7D52068296920F0F80040EAC1009C
:1014F00020600DE0C8F80090FFF7B2FB064604E05C
:10150000FFF7AEFB801B02281FD820688007F7D4A6
:101510002878000722D5724E744869696C3671B11B
:1015200001210160FFF79CFB074604E0FFF798FBF1
:10153000C01B022809D830688007F7D50EE0C0F834
:101540000090FFF78DFB074605E083E0FFF788FB7F
:10155000C01B02287ED830688007F7D4287840075F
:1015600068D5DFF87CA100270AF1380ADAF8000014
:10157000C0000BD4DAF8001041F08051CAF8001016
:10158000DAF80000012700F080500090584E3068D3
:10159000C00510D4306840F480703060FFF760FB05
:1015A000009005E0FFF75CFB0099401A022851D833
:1015B0003068C005F6D54A4EA868683601280FD0B5
:1015C0000528306810D020F001003060306820F02D
:1015D00004003060A868B8B1FFF742FB00900FE04C
:1015E000306840F00100F4E740F004003060F7E7B5
:1015F000FFF736FB0099411A41F28830814264D8E6
:1016000030688007F4D50EE0FFF72AFB009007E072
:10161000FFF726FB0099411A41F28830814254D8E5
:1016200030688007F4D42FB1DAF8001021F080512F
:10163000CAF80010A869C0B3DBF80010C1F381013B
:1016400002294AD00228484607D0C8F86000FFF7B0
:1016500007FB00E039E005463AE04746C8F860007D
:10166000FFF7FEFA064604E0FFF7FAFA801B0228AD
:101670002BD820688001F7D4D5E907010843A96A6F
:101680001C4A490802EB01416A6A41EA8211084397
:1016900095F82C1040EA01611148001F01600120FB
:1016A0003866FFF7DDFA054605E014E0FFF7D8FAE3
:1016B000401B022809D820688001F7D50BE000BF45
:1016C000FFF7CEFA401B022802D90320BDE8F88FAD
:1016D00020688001F4D40020F8E70120F6E700003C
:1016E000083802400038024000004742800E47425E
:1016F000007000400000FFFF10B5401EB0F1807F79
:1017000001D3012010BD4FF0E02460610F2160176C
:1017100001F0F8FB0020A06107202061002010BD2F
:101720007047704730B590F83820012A20D0012248
:1017300080F83820022380F8393003685C6824F090
:1017400070045C6003685C680D682C435C6003682F
:101750009C6824F080049C6003689C6849680C4382
:101760009C6080F83920002180F83810084630BD90
:10177000022030BD10B5040003D094F8390010B138
:1017800007E0012010BD002084F83800204600F05A
:101790000DF8022084F83900211D206801F0FEFEBA
:1017A000012084F83900002010BD000010B586B07B
:1017B000044614216846FEF73BFD274A21680020B5
:1017C000914226D125490A6842F001020A6009685F
:1017D00001F001010591214914390A6842F0100213
:1017E0000A60096801F0100105914FF4D44100919D
:1017F0000221CDE9011003900120049069461848A8
:10180000FFF74CF9002211461B20FFF7DDFC1B20DF
:1018100015E01248001FB1F1804F14D0114A9142D7
:101820000FD1016841F0020101600068002200F060
:101830000200059001211D20FFF7C6FC1D20FFF7C7
:10184000B7FC06B010BD016841F0010101600068FD
:1018500000F001000590F4E7000001404438024028
:1018600000100240000400400168CA6842F0010212
:10187000CA600068016841F0010101600020704702
:1018800070B5044690F83800012817D0012584F877
:101890003850022084F839002068826822F07702EC
:1018A00022F47F4282600868502837D00DDC20285F
:1018B00059D005DC88B3102841D151E0022070BD19
:1018C000302853D040283AD13FE060282ED07028ED
:1018D0000BD0B0F5805F03D0B0F5005F2FD110E0E2
:1018E0002068816821F0070115E0CB68D1E901216A
:1018F000206801F0BEFE2168886840F077008860AB
:101900001DE0CB68D1E90121206801F0B2FE20681A
:10191000816841F48041816011E01EE0CA68496835
:10192000206801F06FFF5021206806E0CA6849680E
:10193000206801F0BBFF6021206801F0A4FE84F85C
:101940003950002084F8380070BDCA6849682068A2
:1019500001F058FF40212068EFE700212068ECE704
:1019600010212068E9E720212068E6E7302120687F
:10197000E3E700002DE9F041054600682C49884264
:1019800050D1287EDFF8AC8000262B4C2B4F01284D
:101990000DD141024046FFF759F9012820680AD0CD
:1019A000406B00EE100AB8EE400A87ED040A287E6C
:1019B000022802D010E04662F9E74FF40061404689
:1019C000FFF744F9012820680AD0806B00EE100A66
:1019D000B8EE400A87ED060A287E042802D010E0FF
:1019E0004662F9E74FF400514046FFF72FF901280E
:1019F000206819D0C06B00EE100AB8EE400A87EDDF
:101A0000070A287E08280DD1C1024046FFF71EF9BB
:101A1000012820680AD0006C00EE100AB8EE400AD7
:101A200087ED050ABDE8F0814662EAE74662F9E71C
:101A3000000001400010024030090020800000201A
:101A40002DE9F041044690F838000D4601283DD0BC
:101A5000012684F83860022084F83900AAB3042AE9
:101A600046D02068082A55D0D5E90027E968036ADE
:101A700023F480530362D0F81CC0036A2CF4407C2A
:101A80004CEA07274FF6FF7C27F470470CEA013138
:101A900039434FF4204723F4204307EA02321A4324
:101AA000C16102622068C16921F44061C16120689E
:101AB000C169AA6841EA0221C0F81C1084F83960A3
:101AC000002084F83800BDE8F08101E00220FAE748
:101AD000D5E90012EB68206801F0A6FE2068816954
:101AE00021F00C01816120688169AA6811430FE02F
:101AF000D5E90012EB68206801F0EAFE20688169F0
:101B000021F44061816120688169AA6841EA02216B
:101B10008161D3E7D5E9002C2F7B016A21F4807124
:101B20000162C169036A21F0030141EA0C0121F05D
:101B3000F00C39074FF420674CEA116123F420635D
:101B400007EA02221A43C16102622068C16921F0DA
:101B50000C01C1612068C169AA681143ACE710B5E6
:101B6000040003D094F8390010B107E0012010BD43
:101B7000002084F83800204600F00CF8022084F899
:101B80003900211D206801F009FD012084F8390089
:101B9000002010BD704710B50268044631B1042919
:101BA00008D0082915D00C2908D116E0D06840F0DB
:101BB000020002E0D06840F00400D06001222068FA
:101BC00001F04CFD2068016841F001010160002036
:101BD00010BDD06840F00800EFE7D06840F010007A
:101BE000EBE770B50446006801694FF00005C94392
:101BF000890715D4C168C943890711D4E91E016159
:101C000001202076206880698007204602D0FFF7F7
:101C1000B1FE04E000F0C0F8204600F042F925765D
:101C200020680169C943490717D4C168C9434907F6
:101C300013D46FF0040101610220207620688069CE
:101C400010F4407F204602D0FFF794FE04E000F03D
:101C5000A3F8204600F025F9257620680169C943DC
:101C6000090716D4C168C943090712D46FF00801E7
:101C70000161042020762068C0698007204602D0D8
:101C8000FFF778FE04E000F087F8204600F009F93D
:101C9000257620680169C943C90617D4C168C943BC
:101CA000C90613D46FF01001016108202076206866
:101CB000C06910F4407F204602D0FFF75BFE04E0CD
:101CC00000F06AF8204600F0ECF8257620680169FB
:101CD000C943C90708D1C168C943C90704D1891ECE
:101CE0000161204600F0FAF820680169C94309063D
:101CF00009D4C168C943090605D46FF080010161A8
:101D00002046FFF70DFD20680169C943490609D443
:101D1000C168C943490605D46FF0400101612046FE
:101D200000F07EF920680169C94389060BD4C168B7
:101D3000C943890607D46FF0200101612046BDE840
:101D40007040FFF7EEBC70BD10B586B0044614219C
:101D50006846FEF76DFA2068B0F1804F15D10C4847
:101D60000021026842F001020260006800F00100F8
:101D700005900F2000900220CDE901010120CDE95E
:101D8000031069460348FEF789FE06B010BD000047
:101D90003038024000000240704770B5044690F8A9
:101DA00038000D4601280DD0012684F83860022045
:101DB00084F8390042B1042A18D0082A2AD00C2A03
:101DC0004DD139E0022070BD206801F065FC20682B
:101DD000816941F0080181612068816921F0040175
:101DE0008161206881692A69114311E0206801F04E
:101DF0007FFC2068816941F400618161206881690C
:101E000021F480618161206881692A6941EA0221A7
:101E1000816124E0206801F09DFC2068C16941F0E7
:101E20000801C1612068C16921F00401C161206815
:101E3000C1692A69114311E0206801F0BBFC2068E8
:101E4000C16941F40061C1612068C16921F4806108
:101E5000C1612068C1692A6941EA0221C16184F82F
:101E60003960002084F8380070BD10B5040003D03C
:101E700094F8390010B107E0012010BD002084F86B
:101E80003800204600F00CF8022084F83900211DAB
:101E9000206801F083FB012084F83900002010BD88
:101EA0007047704710B504460068012201F0D6FB68
:101EB00008492068884202D00749884203D1416C12
:101EC00041F4004141642068016841F00101016072
:101ED000002010BD000001400004014010B5006862
:101EE0004B4988427ED100F065FD00F073FC494CFF
:101EF00049496069884276DD01F014F801F050F933
:101F000094ED040A4FF4E161BCEEC00A10EE100A31
:101F1000E060884200D9E160D4ED030A94ED0F1A25
:101F2000B8EE600A70EE411A94ED190A31EEC02A3B
:101F3000D4ED1E1A32EE612ABCEEC22A12EE100A4D
:101F4000A080B8EE602A32EE412A32EE002A32EE4C
:101F5000212ABCEEC22A12EE100AE080B8EE602AF6
:101F600032EE012A32EE002A32EE612ABCEEC22A9B
:101F700012EE100A2081F8EE600A70EE810A30EE4F
:101F8000C00A30EE210ABCEEC00A10EE100A6081D1
:101F9000A18840F24C40814200D2A080E188814279
:101FA00000D2E0802189814200D220816189814272
:101FB00000D26081A18840F26C70814200D9A0807B
:101FC000E188814200D9E0802189814200D92081C5
:101FD0006189814200D9608121891048026851637A
:101FE000A18801E00AE00AE002689163E1880068E4
:101FF000C1636189016444F61E61416210BD01F054
:102000003DFA4FF47A70A080E0802081E3E7000081
:1020100000040040800000200080BB446C090020C8
:102020007047FEE701684A69D24352050CD46FF449
:1020300080624A6104210164002140F8301F20229F
:102040004273017301207047002070472DE9F84F5B
:102050000446C06A1E4692460D4621680A6842F44C
:1020600080620A60042807D0012805D010F5803F5F
:1020700002D0206B112804D12068016841F48071DE
:1020800001604FF001185346002241462046009659
:1020900000F0BDF8B8BB206908F10109B0F5804F28
:1020A00012D00620216800EAD51747F0F000086139
:1020B0003346524608F10701204600F0D9F838B1FE
:1020C000206C04282FD01EE0E8B240F001001FE091
:1020D0002168E8B20861334652464946204600F07E
:1020E000C7F80028ECD12068416981690091016836
:1020F00041F480710160534600224146204600961B
:1021000000F085F810B10320BDE8F88F47F0F1002A
:1021100021680861334652464946204600F0A8F837
:102120000028CDD1F0E70120EEE70000F8B5044625
:10213000C06A1E460D461746042807D0012805D060
:1021400010F5803F02D0206B122804D1206801686E
:1021500041F480710160134600224FF001112046C6
:10216000009600F054F8A0B92069B0F5804F12D065
:102170000620216800EAD51040F0F00008613346DF
:102180003A460E49204600F073F838B1206C042816
:1021900011D00320F8BD05F0FE0000E0E8B2216890
:1021A0000861064933463A46891F204600F060F828
:1021B0000028EBD1F8BD0120F8BD000008000100A7
:1021C00070B516460D4604461AE02046FFF72AFF72
:1021D00008B1012070BD681C12D025B1FEF740FD8A
:1021E000801BA8420CD954F8400F40F0200044F85E
:1021F000100900202060202161732073032070BD2E
:1022000020684069C0434007DFD4002070BD2DE93D
:10221000F0471E4690460D460446C1F30747DDF8D9
:10222000209012E0701C10D02EB1FEF719FDA0EB2B
:102230000900B04209D9002044F8300F2021617311
:10224000A07320730320BDE8F0872068012F0AD017
:10225000806925EA00000004000C06D000214145F9
:10226000E0D00020EFE74069F3E70121F7E7000045
:102270002DE9F0479A4691460D46044600264FF058
:102280002008C1F307472AE020684069C0434005A1
:1022900012D42068016841F40071016021686FF474
:1022A0008060486104202064266384F83D8084F8BF
:1022B0003C600120BDE8F087B9F1FF3F0FD0B9F1D4
:1022C000000F05D0FEF7CCFCA0EB0A01494506D96A
:1022D00044F8306F84F80D8026730320EAE7206805
:1022E000012F07D0D0F8180025EA00000004000CE8
:1022F000E0D0C9E74069F7E72DE9F04100259046B5
:102300000E460446202721E04069C043C0060CD495
:1023100021686FF0100048612564256384F83D70E2
:1023200084F83C500120BDE8F0812EB1FEF798FC06
:10233000A0EB0800B04209D954F8400F40F020004B
:1023400044F80409677025700320ECE720684169B0
:10235000C9434906D8D40020E5E770B516460D46B6
:1023600004461AE02046FFF75DFE08B1012070BD6B
:10237000681C12D025B1FEF773FC801BA8420CD953
:1023800054F8400F40F0200044F81009002020606D
:10239000202161732073032070BD20684069C04311
:1023A0000006DFD4002070BD10B52DED0A0B2DED19
:1023B000108B88B0F0EE418AB0EE609AF0EE409A51
:1023C0009FEDD60A8DED000A8DED010A8DED020A12
:1023D0009FEDD38AD34C94ED000AD4ED000A20EE91
:1023E000201A8DED071AD4ED000A94ED050A20EEAF
:1023F00080DA94ED000AD4ED060A60EE20CA94ED6E
:10240000000AD4ED070A20EE205A94ED050AD4ED17
:10241000050A60EE20FA94ED050AD4ED060A60EE96
:10242000204A94ED050AD4ED070A20EE20CA94ED67
:10243000060AD4ED060A60EE20BA94ED060AD4ED41
:10244000070A20EE20BA94ED070AD4ED070A60EEE1
:1024500020AA21EEA10A02EE020A02EEA20A01F06F
:1024600099FF61EE805ACDED1B5A62EE005ACDED18
:102470001C5A62EE805A23EE030ACDED1D5A03EE7C
:10248000A30A04EE040A01F085FFF6EE002A63EECB
:1024900000EA72EEEB0A23EE80EAB0EE00AA64EEE8
:1024A00000DA2EEE8A0A70EEEA0A2EEE0A2A34EEDE
:1024B000C54ACDED060A20EE201A6DEE8A1A7CEE92
:1024C0002C0A72EEEF2A02EE041A3CEE6CFA8DED45
:1024D000054A32EEEA3A72EEEB3A01EEA01A74EED9
:1024E000850ACDED043A60EE200A20EE0F0A42EE96
:1024F000030A3BEE4D3A41EE830A3BEE0D3A02EE03
:10250000030A01EEA30A8DED030A21EE010A00EE93
:10251000A00A10EE100AFEF72FF841EC100B01F0A4
:102520001FFE51EC100BFEF73AF89DED071A00EE76
:10253000900A9DED030A31EE6F1A20EE8A2A9DED76
:10254000054A7DEE0B3A31EE6B1A20EE0A0ADDEDFC
:10255000060A63EE8A2A31EE2A3A22EE041A62EE65
:10256000200ADDED1C5A6FEE0A1A00EE231A7CEEEB
:102570008C3A40EE0F0A22EE232ADDED043A00EEFB
:10258000232A25EE830ADDED1D5A05EEE20A6EEEE2
:10259000023A4DEEC13A2EEE811A0EEE601A30EE7E
:1025A000230A65EEA13ADDED1B5AB5EEC00A45EEF1
:1025B000C33A2DEEA03A65EEA22ADDED1C5A0EEECE
:1025C000C23A45EEE12A33EE832A72EE810AF1EE39
:1025D00010FA23D0B5EEC02AF1EE10FA1ED0F5EEB7
:1025E000C00AF1EE10FA19D0B1EE023A9DED001AD0
:1025F000DDED011ADDED022A00EE081A42EE081A9E
:1026000040EE882A40EE039A02EE039A40EE838A57
:1026100079EE819A39EE219A78EEA28A94ED050A34
:10262000D4ED060A29EEC00A00EEC90AD4ED070A65
:1026300000EEE80AD4ED000A40EE080AC4ED000AF4
:1026400094ED000AD4ED060A20EE290A00EEA80A4D
:10265000D4ED070A00EEC90AD4ED050A40EE080AD7
:10266000C4ED050A94ED000AD4ED050A20EE090A2E
:1026700000EEE80AD4ED070A00EEA90AD4ED060A36
:1026800040EE080AC4ED060A94ED000AD4ED050AEE
:1026900020EE280A00EE890AD4ED060A00EEE90AC7
:1026A000D4ED070A40EE080AC4ED070A94ED000ACB
:1026B000D4ED000A94ED051A20EE200AD4ED050AA7
:1026C00000EE810AD4ED060A94ED061A00EE810AA6
:1026D000D4ED070A94ED071A00EE810A01F05AFEC4
:1026E000D4ED000A60EE800AC4ED000AD4ED050ABC
:1026F00060EE800AC4ED050AD4ED060A60EE800A99
:10270000C4ED060AD4ED070A20EE800A84ED070A1C
:1027100008B0BDEC108B0AB010BD00000000000036
:10272000A69BC43C000000202548B0F9001000EE34
:10273000101A2449F8EEC00A91ED010AB0F902100E
:10274000B0F90400C0EE804A00EE901AB8EEE01A2C
:10275000C1EE000A01EE100A1B48F8EEC11AB0F9EA
:10276000001081EE801A00EE101AB0F90210B0F9D4
:102770000400F8EEC01A00EE101AB8EEC02A00EEFF
:10278000100A1248F8EEC02AB0F9001000EE101A34
:10279000B0F90210B0F90400B8EEC03A00EE101A19
:1027A000F8EEC03A00EE100AB8EEC04A9FED080AF3
:1027B00021EE001A60EE800A24EE800AFFF7F4BDD5
:1027C00056000020000000205C000020680000206F
:1027D000295C8F3C10B52DED088BFFF7A5FF534CFE
:1027E000F8EE008AB0EE008A94ED050AD4ED070AEF
:1027F00094ED061A20EE280A20EE200AD4ED000AF5
:1028000060EE880A00EE810A10EE100AFDF7B4FEB1
:1028100041EC100B01F090F89FED459B51EC100B33
:1028200053EC192BFDF7B6FDFDF7B9FEE06094ED12
:10283000050AD4ED050A94ED061A20EE280AB7EE33
:1028400000BA20EE200AD4ED060A60EE880A00EEF7
:10285000C10A30EE0B0A10EE100AFDF78DFE94ED62
:10286000060AD4ED070A94ED051A20EE080A41EC99
:102870001A0B20EE200AD4ED000A60EE880A00EE62
:10288000810A10EE100AFDF777FE41EC100BB0EE56
:102890004A1AF0EE6A1A01F06BFB53EC192B51EC5B
:1028A000100BFDF777FDFDF77AFEA06094ED060AA8
:1028B000D4ED060A94ED071A20EE080A20EE200A4D
:1028C000D4ED070A60EE880A00EE810A30EE4B0A6A
:1028D00010EE100AFDF750FE94ED050AD4ED060A3D
:1028E00094ED071A20EE280A41EC1A0B20EE200A7C
:1028F000D4ED000A60EE880A00EEC10A10EE100A5C
:10290000FDF73AFE41EC100BB0EE4A1AF0EE6A1AEF
:1029100001F02EFB53EC192B51EC100BFDF73AFD97
:10292000FDF73DFE2061BDEC088B10BD00000020CE
:102930000000006066A64C402DE9F0410026DFF85B
:102940006C80354634463746184A15213B2001F045
:10295000BDFDB8F8081049BA06FA81F6B8F80A10B1
:1029600049BA05FA81F5B8F80C0040BA04FA80F4C7
:102970001420FEF781F800F01DF8FFF72BFF7F1CF5
:10298000BFB2FF2FE0D9F01706EB10600112084824
:102990000180E91705EB116109124180E11704EB91
:1029A000116109128180BDE8F0810000AC080020AF
:1029B00050000020F0B54B4A15212DED088B83B057
:1029C0003B2001F083FD474C474B208840BA00B2C2
:1029D0001880618849BA09B25980A28852BA12B2E5
:1029E0009A8023895DBA404B123B1E88AE1B9D1D09
:1029F0002E8066895F8876BAF61B6E80A6899B88D2
:102A000076BAF31AAB8005F11806B4F90E303380AC
:102A1000B4F910707780B4F91240B480CDE9007435
:102A2000FDF72EFFB5F90000FDF795FD9FED2F9BFB
:102A300053EC192BFDF7AEFC9FED2EAB53EC1A2B8C
:102A4000FDF71AFD274C41EC1B0B18342068FDF7ED
:102A500093FD9FED2A8B53EC182BFDF79BFC53EC59
:102A60001B2BFDF7F0FBFDF79AFD2060B5F9020086
:102A7000FDF771FD53EC192BFDF78CFC53EC1A2B71
:102A8000FDF7FAFC41EC1B0B6068FDF775FD53EC9C
:102A9000182BFDF77FFC53EC1B2BFDF7D4FBFDF748
:102AA0007EFD6060B5F90400FDF755FD53EC192B70
:102AB000FDF770FC53EC1A2BFDF7DEFC41EC190B13
:102AC000A068FDF759FD53EC182BFDF763FC53ECA0
:102AD000192BFDF7B8FBFDF762FDA06003B0BDEC5C
:102AE000088BF0BDAC08002062000020AE47E17A00
:102AF00014AED73FFCA9F1D24D626040295C8FC271
:102B0000F528E43F2DE9F84F01216B2001F044FD49
:102B1000754C4FF06A094FF0200A84F8009084F851
:102B200001A00A2502232246D02170480095FEF715
:102B300015FA4FF0240B84F800B00D2060700223CA
:102B40002246D02169480095FEF708FA00210A20A4
:102B500001F00DFD80216B2001F01EFD0120FDF72D
:102B60008BFF01210B2001F002FD01216B2001F000
:102B700013FD7520207001232246D0215B4800956B
:102B8000FEF7ECF90123A4F12C02D021574800955F
:102B9000FEF7F0F86420FDF76FFFA4F12C084FF466
:102BA000005198F8000073287DD000225048FEF7AD
:102BB00052F86C2020700026667002234A4AD02109
:102BC0004A480095FEF7CAF91C2020701820607052
:102BD0000223454AD02145480095FEF7BFF91B2046
:102BE000207066700223404AD02140480095FEF7CD
:102BF000B5F91D2020700127677002233A4AD021C1
:102C00003A480095FEF7AAF91A202070677002234F
:102C1000354AD02135480095FEF7A0F919202070DB
:102C200066700223304AD02130480095FEF796F9AD
:102C300084F8009084F801A002232B4AD0212B486D
:102C40000095FEF78BF984F800B00D206070022328
:102C5000254AD02125480095FEF780F9224A012116
:102C60002B3A002001F016FC6420FDF705FF98F8D0
:102C700001003903482835D000221D48FDF7EBFF3D
:102C800000210A2001F073FC6420FDF7F5FE0F21FE
:102C90000A2001F06CFC6420FDF7EEFE124A0321CD
:102CA000293A102000E01BE001F0F4FB00210A208B
:102CB00001F05DFC6420FDF7DFFE16210A2001F023
:102CC00056FC6420FDF7D8FE01216B2001F064FC66
:102CD000BDE8F84F044A07212832032001F0DABB8F
:102CE000012263E70122C8E74C000020DC08002035
:102CF000000C024070B586B014216846FDF798FAC2
:102D00001E480024016841F080010160016801F063
:102D100080010591016841F001010160016801F045
:102D200001010591016841F010010160016801F0A5
:102D300010010591016841F008010160016801F08E
:102D400008010591016841F00201016000680C4E24
:102D500000F002004FF4304505900022294630462D
:102D6000FDF779FF01200095CDE901046946304661
:102D70000394FDF793FE06B070BD000030380240AA
:102D8000000C024010B58AB0002423480494059436
:102D900006940794089409940094019402941D49A0
:102DA000039401605321C0E9011447F22F51C0E997
:102DB00003144461FEF7DEFC4FF48050049004A934
:102DC0001548FEF75DFD1448FEF7C9FE089408A9F2
:102DD00011480994FEF7A6FC0A2000900120CDE9D5
:102DE00001040F200390002269460B48FEF728FEDD
:102DF000042269460848FEF723FE08226946064871
:102E0000FEF71EFE0C2269460348FEF719FE0AB0C3
:102E100010BD0000000001403009002010B58EB048
:102E200000240794089409940A940B941C21684682
:102E30000C94FDF7FDF91D484FF0804101605321CE
:102E4000C0E9011444F61F61C0E90314FEF792FCC7
:102E50004FF48050079007A91448FEF711FD13485E
:102E6000FFF703F80B940BA910480C94FEF75AFCDB
:102E70006020CDE900040294002269460B480494C6
:102E8000FEF78BFF042269460848FEF786FF0822FA
:102E900069460648FEF781FF0C2269460348FEF7A3
:102EA0007CFF0248FEF750FF0EB010BD6C090020F9
:102EB00010B586B000241148009401940294039444
:102EC00004940D49059401605321C0E9011440F6B2
:102ED0009F71C0E90314FEF74DFC4FF48050009041
:102EE00069460648FEF7CCFC049404A903480594FF
:102EF000FEF718FC06B010BD00040040A809002031
:102F0000FEE770470907090E002806DA00F00F00F7
:102F100000F1E02080F8141D704700F1E02080F8F7
:102F20000014704770B5994C40F2D5522DED0A8BC4
:102F300094ED060ABCEEC00A10EE100A80B22080A2
:102F400094ED070A9042BCEEC00A10EE101A89B246
:102F5000618002D9A0F2D55005E040F2C5529042FE
:102F600007D2A0F2C55000EE100AB8EEC00A84EDF8
:102F7000080A94ED081AF2EE0E0AB1F5BF6F81EE61
:102F8000200A84ED080A02D9A1F5BF6107E0B1F576
:102F9000BD6F02D394ED091A07E0A1F5BD6101EE02
:102FA000101AB8EEC11A84ED091AC1EE209A7848B9
:102FB000C4ED099AD0ED000A30EE600ADFED750A23
:102FC00030EE208A84ED0B8A18EE100AFDF7D4FA51
:102FD0006E4D803595ED0A1B53EC112BFDF7DAF998
:102FE00041EC1A0B206BFDF7C7FA53EC1A2BFDF7D7
:102FF0002AF9FDF7D4FA00EE100A84ED0C0A94EDDC
:103000000E9AB4EEC90AF1EE498AF1EE10FA02DD29
:1030100084ED0C9A06E0B4EEE80AF1EE10FA01D263
:10302000C4ED0C8A94ED0D0A38EE400A10EE100A39
:10303000FDF7A2FA95ED0C1B53EC112BFDF7AAF945
:1030400041EC1C0B206BFDF797FA41EC1B0B18EEC3
:10305000100AFDF791FA95ED08AB53EC1A2BFDF72A
:1030600099F953EC1B2BFDF7EEF853EC1C2BFDF7F5
:103070008BF9FDF794FA00EE100A84ED0A0AB4EE1B
:10308000C90AF1EE10FA02DD84ED0A9A06E0B4EE08
:10309000E80AF1EE10FA01D2C4ED0A8A3E4884ED46
:1030A0000D8ADFED3E0A90ED000A39EEC00A30EEDF
:1030B000608A84ED158A18EE100AFDF75DFA95ED29
:1030C000141B53EC112BFDF765F941EC190BA06DA6
:1030D000FDF752FA53EC192BFDF7B5F8FDF75FFA3F
:1030E00000EE100A84ED160A94ED189AB4EEC90A9F
:1030F000F1EE498AF1EE10FA02DD84ED169A06E04F
:10310000B4EEE80AF1EE10FA01D2C4ED168A94ED9D
:10311000170A38EE400A10EE100AFDF72DFA95ED69
:10312000161B53EC112BFDF735F941EC1C0BA06D70
:10313000FDF722FA41EC1B0B18EE100AFDF71CFA02
:1031400053EC1A2BFDF726F953EC1B2BFDF77BF8FC
:1031500053EC1C2BFDF718F9FDF721FA00EE100ACD
:1031600084ED140AB4EEC90AF1EE10FA02DD84ED22
:10317000149A06E0B4EEE80AF1EE10FA01D2C4EDBA
:10318000148A84ED178ABDEC0A8B70BD8000002084
:1031900008000020C3F5E83F0C000020B81E453FA2
:1031A00070B5B24EB24C2DED088B96ED000AD4ED01
:1031B0000A0A30EEC08A84ED108A18EE100AFDF774
:1031C000DBF904F1800595ED101B53EC112BFDF795
:1031D000E1F841EC190B606CFDF7CEF953EC192BBB
:1031E000FDF731F8FDF7DBF900EE100A84ED110A66
:1031F00094ED139AB4EEC90AF1EE498AF1EE10FA91
:1032000002DD84ED119A06E0B4EEE80AF1EE10FA60
:1032100001D2C4ED118A94ED120A38EE400A10EE84
:10322000100AFDF7A9F995ED121B53EC112BFDF7D0
:10323000B1F841EC1A0B606CFDF79EF941EC1B0BE9
:1032400018EE100AFDF798F995ED0E1B53EC112BB3
:10325000FDF7A0F853EC1B2BFCF7F5FF53EC1A2BF2
:10326000FCF7F1FFFDF79BF900EE100A84ED0F0A61
:10327000B4EEC90AF1EE10FA02DD84ED0F9A06E011
:10328000B4EEE80AF1EE10FA01D2C4ED0F8A84ED33
:10329000128A6869E86096ED010AD4ED140A30EEEE
:1032A000C08A84ED1A8A18EE100AFDF765F995EDCB
:1032B0001A1B53EC112BFDF76DF841EC190BE06E66
:1032C000FDF75AF953EC192BFCF7BDFFFDF767F931
:1032D00000EE100A84ED1B0A94ED1D9AB4EEC90AA3
:1032E000F1EE498AF1EE10FA02DD84ED1B9A06E058
:1032F000B4EEE80AF1EE10FA01D2C4ED1B8A94EDA7
:103300001C0A38EE400A10EE100AFDF735F995ED6B
:103310001C1B53EC112BFDF73DF841EC1A0BE06E32
:10332000FDF72AF941EC1B0B18EE100AFDF724F902
:1033300095ED181B53EC112BFDF72CF853EC1B2BC0
:10334000FCF781FF53EC1A2BFCF77DFFFDF727F903
:1033500000EE100A84ED190AB4EEC90AF1EE10FA73
:1033600002DD84ED199A06E0B4EEE80AF1EE10FAF7
:1033700001D2C4ED198A84ED1C8AA869286196EDF2
:10338000020AB1EE408A84ED1F8A18EE100AFDF79A
:10339000F3F8384E96ED001B53EC112BFCF7FAFFB7
:1033A00041EC190B2868FDF7E7F853EC192BFCF7F3
:1033B0004AFFFDF7F4F800EE100A85ED000AD5ED9E
:1033C000028AB4EEE80AF1EE10FA02DDC5ED008AD9
:1033D00008E0F1EE680AB4EEE00AF1EE10FA01D26C
:1033E000C5ED000A95ED010A38EE400A10EE100A0C
:1033F000FDF7C2F896ED021B53EC112BFCF7CAFF48
:1034000041EC190B2868FDF7B7F841EC1A0B18EEE0
:10341000100AFDF7B1F895ED1E1B53EC112BFCF7CC
:10342000B9FF53EC1A2BFCF70EFF53EC192BFCF7EA
:103430000AFFFDF7B4F800EE100A84ED1E0AB4EEA0
:10344000E80AF1EE10FA02DDC4ED1E8A08E0F1EEA2
:10345000680AB4EEE00AF1EE10FA01D2C4ED1E0AD9
:1034600085ED018ABDEC088B70BD0000C40800200A
:1034700080000020800100207047000009499FED76
:10348000080AA1F1800081ED000A80ED1B0A80EDA1
:10349000110A81ED010A80ED1C0A80ED120A7047C5
:1034A00000000000000100207047FDF727BE00006B
:1034B00030B593B030216846FCF7BAFE14210CA851
:1034C000FCF7B6FE18480025016841F08051016004
:1034D000006800F0805011901448016841F4804168
:1034E00001600068022400F48040119001200090E7
:1034F000000401908001CDE9064008AA042054216F
:1035000082E813000B906846FDF768FF0CA90F20B6
:1035100081E83100E002CDE90F0502210CA8FDF79A
:1035200085FE13B030BD00004038024000700040FE
:103530001048016841F4700101600F48016841F0D2
:10354000010101600C4A00210832116002680B4B36
:103550001A400260031D0A4A1A60026822F480229F
:10356000026005480C300160024958068039086045
:103570007047000088ED00E000380240FFFFF6FED3
:10358000103000240148FEF72CBB00003009002059
:103590000148FEF726BB0000A8090020F0B502682C
:1035A000234B244D244E254F254C4FF0804C984200
:1035B00009D0604507D0A84205D0B04203D0B84238
:1035C00001D0A04204D122F0700E4A6842EA0E02F5
:1035D00098421BD0604519D0A84217D0B04215D0F0
:1035E000B84213D0A04211D0164DA8420ED0164DAD
:1035F000A8420BD0154DA84208D0154DA84205D0C1
:10360000144DA84202D0144DA84203D122F44075B3
:10361000CA682A4302608A68C2620A688262984263
:1036200001D0A04201D10969016301214161F0BDCE
:10363000000001400004004000080040000C004071
:1036400000040140004001400044014000480140A6
:1036500000180040001C00400020004010B501236D
:10366000046A8B409C430462036A8A4013430362EA
:1036700010BD10B5846842EA032224F47F440A4353
:103680002243826010BD826822F070020A4342F039
:10369000070181607047000030B5026A22F0010224
:1036A0000262026A436884690D6824F0730425434A
:1036B00022F002048A6822430B4CA04202D00B4C39
:1036C000A0420BD122F00804CA6823F440732243BD
:1036D0004C6922F004021C438B69234343608561DB
:1036E00049684163026230BD0000014000040140AE
:1036F00030B5026A22F010020262026A43688469ED
:103700000D6824F4E64444EA05248D6822F0200282
:1037100042EA05120D4DA84202D00D4DA8420ED12D
:10372000CD6822F0800242EA05124D6923F440631D
:1037300043EA85038D6922F0400243EA8503436032
:10374000846149688163026230BD0000000001406D
:103750000004014030B5026A22F480720262036AFA
:103760004268C46923F4007324F073050C682C4389
:103770008D6843EA05230D4DA84202D00C4DA842A6
:103780000ED1CD6823F4006343EA05234D6922F48A
:10379000405242EA05128D6923F4806342EA051221
:1037A0004260C4614968C163036230BD00000140EA
:1037B0000004014030B5026A22F480520262046AB9
:1037C0004268C3690D6823F4E64343EA05238D6824
:1037D00024F4005444EA0534084DA84202D0084DB0
:1037E000A84204D14D6922F4804242EA8512426027
:1037F000C36149680164046230BD000000000140FB
:103800000004014010B5036A046A24F00104046254
:10381000846924F0F00444EA021423F00A020A4303
:103820008461026210BD000070B5046A24F00104D6
:1038300004628469056A164EB04214D0B0F1804F1C
:1038400011D0144EB0420ED0134EB0420BD0134ED6
:10385000B04208D0124EB04205D0124EB04202D053
:10386000114EB04203D124F00304144303E024F0CA
:10387000030242F001041A0724F0F00444EA126241
:1038800025F00A0301F00A0119438261016270BD4B
:10389000000001400004004000080040000C00400F
:1038A00000040140004001400018004010B5036AC8
:1038B00023F0100303628369046A23F4704343EA2C
:1038C000023224F0A00343EA01118261016210BDBB
:1038D00030B5046A24F0100404628469056A24F493
:1038E000407444EA022222F470444FF6FF7202EA66
:1038F00003322243A02425F0A00304EA0111194356
:103900008261016230BDFEE703B401984100009876
:1039100050EAC12018BF04204A0D18BF40F0010032
:1039200040F2FF72B2EB515F08BF40F00200012885
:1039300008BF052002B0704770B5C1482DED020BDD
:103940002DED0E8B82B0119D25F000449FEDBEDB66
:103950009FEDBFEB84423EDBA4F140511098A1F1F2
:103960007F6108430FD0BC48844202DC28D1109804
:1039700030B39DED100B02B0BDEC0E8B02B0BDE874
:10398000704000F0A6BC9DED100B53EC1D2B51ECCC
:10399000100BFCF7FFFC9DED100B41EC180B53ECEA
:1039A0001E2B51EC100BFCF7F5FC53EC182BFCF71D
:1039B0004AFC41EC100B02B0BDEC0E8B02B070BDA6
:1039C000012000F0CDFC02B0BDEC0E8B02B0BDE8D2
:1039D000704000F095BCA1489FEDA18B844256DA5F
:1039E0009DED100BB4F1795F0ADA51EC100BFFF783
:1039F0008BFF042808BF00F093FC9DED100BDAE765
:103A000053EC102B51EC100BFCF7C4FC41EC190BE0
:103A100095480621B0EE490AF0EE690A784400F0B4
:103A2000DCFB53EC192B51EC100BFCF7B3FC41EC15
:103A30001A0B8E48B0EE490AF0EE690A0421784468
:103A400000F0CBFB53EC192B51EC100BFCF7A2FC54
:103A500053EC182BFCF7F7FB41EC100B51EC1A0B55
:103A600053EC102BFCF708FDCDE900019DED000B98
:103A700053EC102B9DED100B51EC100BFCF78AFC56
:103A80009DED101B53EC112BFCF7DDFBD2E09DEDFF
:103A9000100B51EC100B00F071FC53EC182BFCF7E1
:103AA00076FC9FED730BCDE9000153EC102B9DEDDF
:103AB000000B51EC100BFCF76DFC41EC190B6E4840
:103AC0000621B0EE490AF0EE690A784400F085FB61
:103AD00053EC192B51EC100BFCF75CFC41EC1B0B6D
:103AE0006648B0EE490AF0EE690A0421784400F015
:103AF00074FB53EC192B51EC100BFCF74BFC53EC03
:103B0000182BFCF7A0FB41EC1C0B51EC190B00F03F
:103B1000F7FC41EC180B5A489FED5BABA04222DC4E
:103B200053EC1C2B51EC1B0BFCF7A6FCCDE9000160
:103B30009DED000B51EC180B53EC102BFCF72AFCFD
:103B400053EC182BFCF77FFB53EC1A2BFCF722FCF1
:103B500053EC1D2BFCF718FC53EC1E2BFCF717FC49
:103B600041EC100B5FE08DED008B002000909DED8F
:103B7000000B51EC180B53EC102BFCF764FB9DED84
:103B8000000B41EC1E0B53EC102B51EC100BFCF70F
:103B900001FC53EC192BFCF7FAFB53EC1E2BFCF742
:103BA0006BFC41EC190B53EC1C2B51EC1B0BFCF781
:103BB00063FC41EC1B0B53EC1A2B51EC190BFCF77B
:103BC000E9FB53EC1D2BFCF7E2FB41EC190B53EC2A
:103BD0001A2B51EC180BFCF7DDFB53EC1B2BFCF7FD
:103BE000D9FB53EC192BFCF7CFFB9DED000B41ECFF
:103BF000180B53EC1A2B51EC100BFCF7CBFB9FED81
:103C0000249B53EC192BFCF7C2FB41EC100B51EC3D
:103C1000180B53EC102BFCF7B7FB53EC192BFCF7EC
:103C2000B6FB41EC100B002D3FF7C5AE51EC100B6D
:103C300081F0004141EC100BBDE6000000000000E7
:103C40000000F03F00000000075C143326A6913C02
:103C5000182D4454FB21F93F0000F07F0000E03FA5
:103C6000000000000000F03FB00B0000BE0B0000A1
:103C7000000000000000E03F020B0000100B0000FD
:103C80003333EF3F00000000000000000000004060
:103C9000182D4454FB21E93F70B59B482DED020BD4
:103CA0002DED068B079D25F00044A04218DC9748B7
:103CB000844202DC0AD1069840B19DED060BBDECB2
:103CC000068B02B0BDE8704000F003BB002DCCBFF6
:103CD0009FED8F0B9FED900BBDEC068B02B070BD7E
:103CE0008F48A04215DD8F48A042D8BF4FF0FF3467
:103CF00058DD9DED060B51EC100BFFF705FE042877
:103D000008BF00F00DFB9DED060BBDEC068B02B06D
:103D100070BD9DED060B51EC100B00F02FFBCDE9B3
:103D2000060181489FED828BA0423CDD8248A04283
:103D30001FDD00249FED82AB9DED060B53EC1A2B8B
:103D400051EC100BFCF77FFA9DED060B41EC190BC3
:103D500053EC1A2B51EC100BFCF71CFB53EC182BFB
:103D6000FCF712FB53EC192BFCF786FBCDE906019F
:103D700049E09DED060B012453EC182B51EC100B80
:103D8000FCF761FA9DED060B41EC190B53EC182B77
:103D900051EC100BFCF7F8FA53EC192BFCF76CFB09
:103DA000CDE906012FE06848A0421FDD02249FED07
:103DB000689B9DED060B53EC192B51EC100BFCF797
:103DC000E9FA53EC182BFCF73EFA9DED060B41EC9B
:103DD000180B53EC192B51EC100BFCF7D5FA53ECE4
:103DE000182BFCF749FBCDE906010CE09DED060B15
:103DF000032453EC102B9FED580B51EC100BFCF7E8
:103E00003BFBCDE906019DED060B53EC102B51EC6D
:103E1000100BFCF7BFFA41EC180B53EC182BFCF716
:103E2000B9FA41EC190B4E480621B0EE490AF0EE02
:103E3000690A784400F0D1F953EC182B51EC100BBF
:103E4000FCF7A8FA41EC180B4648B0EE490AF0EE30
:103E5000690A0521784400F0C0F953EC192B51ECA4
:103E6000100BFCF797FA41EC100B51EC180B53ECCC
:103E7000102B002C0EDAFCF7E6F99DED061B53EC37
:103E8000112BFCF787FA9DED061B53EC112BFCF769
:103E90007EFA35E0FCF7D7F99DED061B53EC112BAC
:103EA000FCF778FA41EC100B2F48784400EBC40083
:103EB00090ED001B51EC100B53EC112BFCF764FA46
:103EC0009DED061B53EC112BFCF75EFA41EC100B39
:103ED0002648784400EBC40090ED001B51EC100B19
:103EE00053EC112BFCF753FA41EC100B002DA2BF41
:103EF000BDEC068B02B070BD51EC100B81F000419F
:103F000041EC100B01E70000000010440000F07FBE
:103F1000182D4454FB21F93F182D4454FB21F9BFBF
:103F20000000DC3F0000203E0000F33F00000000E6
:103F3000000000000000F03F0000E63F000000002D
:103F4000000000000000004000800340000000006E
:103F5000000000000000F83F000000000000F0BF7B
:103F60005208000008080000920700004A070000FD
:103F700070B56B4E2DED040B2DED028B82B0DDF88C
:103F80001CC0DDE905235C422CF000411C4341EAE2
:103F9000D474049D22F00040B44205D86C422C43F6
:103FA00040EAD474B4420BD99DED061B9DED040B81
:103FB00002B0BDEC028B04B0BDE8704000F093B9D4
:103FC000ACF14054A4F17F641C430BD0022404EAFA
:103FD000AC7444EAD27405439FED538B9FED542B90
:103FE00007D015E09DED040B51EC100B00F0BEF96D
:103FF00042E0002C11BF012C9DED040B02B0BDEC82
:10400000028B04BF04B070BD022C38D0032C3BD00F
:104010000B439FED491B9FED4A0B0AD0B14218D1CB
:10402000B04209D121F0804120F0804007910590F5
:104030000FE0002A15DA10E0434B7B44002C08BF48
:1040400093ED000B0DD0012C10D0022C17D0032CB7
:104050001AD0B0421DD1002A03DAB0EE410AF0EEC8
:10406000610A02B0BDEC028B04B070BD93ED000B91
:1040700051EC100B81F0004141EC100BF1E7B0EE78
:10408000480AF0EE680AECE7B0EE420AF0EE620A87
:10409000E7E7401A00153C28C8BF8DED000B19DC7E
:1040A000BCF1000FBEBF10F13C0F9FED290B8DED51
:1040B000000B0FDB9DED060B53EC102B9DED040B5D
:1040C00051EC100BFCF7D8F900F058F900F04EF95C
:1040D000CDE90001002C08BF9DED000BC1D0012CE3
:1040E00010D0022C9FED1C0B53EC102B9DED000B00
:1040F00051EC100B0DD0FCF747F953EC182BFCF7E3
:1041000043F9B9E7019880F0004001909DED000B64
:10411000A7E7FCF739F953EC182BFCF738F9ABE7B4
:104120000000F07F00000000182D4454FB210940DE
:10413000182D4454FB2109C0182D4454FB21F9BF0C
:10414000182D4454FB21F93F7A06000000000000BE
:104150000000000000000000075C143326A6A13C0C
:1041600000B52DED048BB0EE409AF0EE609A83B06E
:1041700051EC190BFCF7F4FA41EC180B18EE100A8D
:1041800018EE901A8DED008B002818BF012008430F
:1041900020F00040C0F17F6000F1E040C00F14D07B
:1041A00019EE101A19EE900A8DED009B002918BF28
:1041B0000121084320F00040C0F17F6000F1E040A1
:1041C000C00F04BF012000F0CBF8B0EE480A03B0E6
:1041D000F0EE680ABDEC048B00BD70B504462DED11
:1041E000028B4D1E00EBC500B0EE408AF0EE608AF7
:1041F00090ED000B35F0060017D053EC182B51EC66
:10420000100BFCF7C7F841EC100B6D1E04EBC5005A
:1042100090ED001B51EC100B53EC112BFCF713F835
:1042200041EC100B35F00600E7D1022D36D0042DFD
:104230001CD0062D1CBFBDEC028B70BD53EC182B9F
:1042400051EC100BFCF7A6F894ED0A1B53EC112B64
:10425000FBF7F9FF53EC182BFCF79CF894ED081BC7
:1042600053EC112BFBF7EFFF41EC100B53EC182B29
:1042700051EC100BFCF78EF894ED061B53EC112B50
:10428000FBF7E1FF53EC182BFCF784F894ED040BDB
:1042900053EC102BFBF7D7FF41EC100B53EC182B12
:1042A00051EC100BFCF776F894ED021B53EC112B3C
:1042B000FBF7C9FF53EC182BFCF76CF894ED001BCF
:1042C00053EC112BFBF7BFFFBDEC028B41EC100B45
:1042D00070BD10B553EC102B51EC100BFBF7B3FF76
:1042E00041EC100B10BD10B553EC112B51EC100B21
:1042F000FBF7A9FF41EC100B10BD0000000000000F
:104300009FED050B10B553EC102B51EC100BFCF787
:10431000B3F841EC100B10BD0000000000000000DD
:104320009FED050B10B553EC102B51EC100BFCF767
:1043300031F841EC100B10BD00000000000000102F
:1043400002E008C8121F08C1002AFAD1704770475E
:10435000002001E001C1121F002AFBD170470000BC
:104360000149086070470000A001002010B541EC31
:10437000100BFFF791FC51EC100B10BD82B0CDE992
:10438000000121F0004001909DED000B02B051ECC6
:10439000100B704710EE100AF6EE000A074960EEA7
:1043A000200AA1EB600000EE100A20EE801AF7EE62
:1043B000080A41EE400A20EE800A7047DF59375F55
:1043C000FCF7A4FEFFF774F8FEF794FC2E482D4985
:1043D0004FF4804201602D49416000218160C0E9B5
:1043E000031241618161C1610162FCF73FFCFEF78C
:1043F000C9FCFEF713FDFEF75BFDFEF783FBFEF73E
:104400009BFA214800219030FDF74CFD1E48042105
:104410009030FDF747FD1C4808219030FDF742FD24
:1044200019480C219030FDF73DFD17494FF47A7083
:1044300090310A6850630A6890630968C863086429
:1044400040F6C410FCF718FB0122D1031048FCF71A
:1044500002FC0D4800215430FDF79DFB0A48042161
:104460005430FDF798FB084808215430FDF793FBC2
:1044700005480C215430FDF78EFB0348CC30FDF786
:10448000F3F9FEE700540040DC080020801A060023
:10449000000C024070B50C46054616468C212520BE
:1044A00000F07AF82946262000F076F844F08001E2
:1044B000272000F071F80A20FCF7DEFA3246214688
:1044C000BDE87040492000F001B80000F8B50C4686
:1044D000094916460A2508700A460123D0210748D3
:1044E0000095FCF73BFD23463246D021034800955A
:1044F000FCF740FCF8BD00004C000020DC08002068
:1045000000B52DED048B83B041EC190BFCF728F9B5
:1045100041EC180B18EE100A18EE901A8DED008B76
:10452000002818BF0120084320F00040C0F17F6040
:1045300000F1E040C00F14D019EE101A19EE900AE5
:104540008DED009B002918BF0121084320F0004099
:10455000C0F17F6000F1E040C00F04BF0120FFF711
:10456000FFFE51EC180B03B0BDEC048B00BD70B521
:104570000D4604460C21252000F00EF82146262089
:1045800000F00AF82946632000F006F8BDE8704004
:1045900081212720AFF3008008B5054A022310705F
:1045A00051700A200090D0210248FCF7D7FC08BDCA
:1045B0004C000020DC08002000000000000000008B
:1045C00001020304060708090000000001020304B9
:1045D000555555555555C53F7D6FEB0312D6D4BF84
:1045E0005544880E55C1C93F3B8F68B52882A4BF8A
:1045F00088B20175E0EF493F09F7FD0DE13D023F4B
:104600004B2D8A1C273A03C0C88A599CE52A0040D2
:1046100059018D1B6C06E6BF82922EB1C5B8B33F1F
:104620004FBB610567ACDD3F182D4454FB21E93FCA
:104630009BF681D20B73EF3F182D4454FB21F93FB9
:10464000E2652F227F2B7A3C075C143326A6813C3F
:10465000BDCBF07A8807703C075C143326A6913CEA
:10466000C4EB98999999C9BF711623FEC671BCBF56
:104670006D9A74AFF2B0B3BF9AFDDE522DDEADBFBE
:104680002F6C6A2C44B4A2BF0D5555555555D53FD6
:10469000FF8300922449C23F6E204CC5CD45B73FF1
:1046A000513DD0A0660DB13FEB0D76244B7BA93F69
:1046B00011DA22E33AAD903F000000000000000054
:1046C000E046000800000020A401000028080008BF
:1046D00028470008A4010020440C000050430008B3
:1046E00021077C803F6F1203434BE80302012E0A2F
:1046F000117AB40A11C81409262834C843012904C0
:1047000001120313144036A09999F13F2DE04D6238
:104710005008310A2D28282A08085D40E17A9418AB
:08472000313B24F484B21000C7
:040000050800018965
:00000001FF
