:020000040800F2
:10000000880F00209D010008333C0008CF2900081C
:10001000313C0008F10A0008134A00080000000003
:10002000000000000000000000000000694500081A
:10003000D10B000800000000F14300086B450008E8
:10004000B7010008B7010008B7010008B7010008B0
:10005000B7010008B7010008B7010008B7010008A0
:10006000B7010008B7010008B7010008B701000890
:10007000B7010008B7010008B7010008B701000880
:10008000B7010008B7010008B7010008B701000870
:10009000B7010008B7010008B7010008B701000860
:1000A00055460008B7010008B7010008714600086E
:1000B000B70100087D460008B7010008B701000835
:1000C000B7010008B7010008B7010008B701000830
:1000D000B7010008B7010008B7010008B701000820
:1000E000B7010008B7010008B7010008B701000810
:1000F000B7010008B7010008B7010008B701000800
:10010000B7010008B7010008B7010008B7010008EF
:10011000B7010008B7010008B7010008B7010008DF
:10012000B7010008B7010008B7010008B7010008CF
:10013000B7010008B7010008B7010008B7010008BF
:10014000B7010008B7010008B7010008B7010008AF
:10015000B7010008B7010008B7010008B70100089F
:10016000B7010008B7010008B7010008B70100088F
:10017000B7010008B7010008B7010008000000003F
:10018000B7010008B7010008DFF80CD000F04CFB05
:100190000048004789610008880F00200648804712
:1001A00006480047FEE7FEE7FEE7FEE7FEE7FEE75C
:1001B000FEE7FEE7FEE7FEE70146000889010008CA
:1001C0002DE9F05F0546002092469B46884606468C
:1001D000814640241BE0284641464746224600F01F
:1001E0001BFA53465A46C01A914110D3114618467D
:1001F000224600F002FA2D1A67EB01084F4622460C
:100200000120002100F0F9F917EB00094E41201EF2
:10021000A4F10104DFDC484631462A464346BDE8E6
:10022000F09F40EA01039B0703D009E008C9121FB1
:1002300008C0042AFAD203E011F8013B00F8013BA0
:10024000521EF9D27047D2B201E000F8012B491ECC
:10025000FBD270470022F6E710B513460A46044663
:100260001946FFF7F0FF204610BD2DE9FE4F8046EE
:1002700081EA0300C00F0C46009021F0004123F0FA
:100280000045B8EB0200A94105D240462146904600
:100290001C460B46024623F00040104347D0270D72
:1002A000C7F30A00C3F30A510290401A0190402894
:1002B0006BDAC3F3130040F4801B0098924620B120
:1002C0000023D2EB030A63EB0B0B01985946C0F1F4
:1002D0004002504600F091F906460D4650465946F8
:1002E000019A00F0A9F910EB08006141002487EAA7
:1002F000115284EAE7731A4340D0009A62B3019A1C
:10030000012A4FEA075215DC001B61EB02014FF096
:10031000004202EA0752CDE90042001C41F580117B
:1003200032462B4600F0E0F903B0BDE8F08F4046BE
:100330002146F9E7001B61EB0201001C41F5801327
:1003400000185B412018A2F5001747EB030140EAB3
:10035000D570B6196D4111E06D084FEA360645EAD1
:10036000C0754FEA0752001B61EB0201001C41F50A
:10037000801149084FEA30000019514132462B469E
:1003800003B0BDE8F04F00F0A0B900980122400092
:100390000023D0EB020263EBE073009821464FEAA2
:1003A000E074B8EB000061EB0401E9E783F000437F
:1003B0005BE781F0004158E72DE9FE4F81EA030435
:1003C00004F0004421F0004100944FF0000B23F0B2
:1003D000004350EA01045ED052EA03045BD0C3F349
:1003E0000A54C1F30A552C44A4F2F3340194A0FB3F
:1003F0000254C1F3130141F48011C3F3130343F416
:10040000801301FB024400FB034E840A970A44EA6E
:10041000815447EA8357A4FB076802958D0A05FBC0
:1004200007854FEA932C04FB0C542705029D4FEAE5
:10043000065847EA1637B5EB08056EEB070C870E32
:10044000920E47EA811742EA8312A7FB0201B6EB3C
:100450000B0164EB00042B0D43EA0C335E1844EBF4
:100460001C50DA465146E7FB0201C5F313044FEA7C
:100470000B3343EA14534FEA0432019C43EA060368
:10048000A4F10C040294009CCDE900B400F02CF916
:1004900003B0BDE8F08F00200146F9E72DE9F04DEB
:1004A00081EA030404F0004B21F0004514464FF0AC
:1004B000000A23F0004150EA050220D054EA01026C
:1004C0001DD0C5F30A570246C5F31303C1F3130049
:1004D000C1F30A5640F4801543F48013A7EB0608D5
:1004E000101BD64608F2FD3873EB050002D308F165
:1004F000010801E092185B41B8F1000F03DA002017
:100500000146BDE8F08D00204FF480110646844678
:100510000EE0171B73EB050705D3121B63EB0503F6
:1005200006434CEA010C49084FEA300092185B413F
:1005300050EA0107EDD152EA030012D082EA04002A
:1005400083EA0501084305D0101BAB4106D2012206
:10055000002306E000224FF0004302E06FF00102AA
:1005600053101AEB06004CEB085110EB0A0041EB5C
:100570000B01BDE8F04D00F0A8B80EB5C10F80EA40
:10058000E0700844CA07002140F233438DE80E00B2
:100590000A460B4600F0A8F803B000BD00F0004288
:1005A00030F000400AD0C10D01F56071C0F31600B3
:1005B00042EA0151C208400711437047002001463A
:1005C000704701F0004330B421F0004150EA0102CD
:1005D00006D00A0DA2F56072C1F31301002A02DCF5
:1005E00030BC00207047440F44EAC104C100E01849
:1005F00030BC00EBC25000F031B8202A04DB203AB6
:1006000000FA02F1002070479140C2F1200320FA65
:1006100003F3194390407047202A04DB203A21FA63
:1006200002F00021704721FA02F3D040C2F120020B
:100630009140084319467047202A06DBCB17203A21
:1006400041FA02F043EAE07306E041FA02F3D040D7
:10065000C2F1200291400843194670470029A8BF03
:100660007047401C490008BF20F00100704710B4DB
:10067000B0FA80FC00FA0CF050EA010404BF10BC90
:10068000704749B1CCF1200421FA04F411FA0CF1BD
:1006900018BF012121430843A3EB0C01CB1D4FEAF6
:1006A00000614FEA102042BF002010BC704700EBF1
:1006B000C35010440029A4BF10BC7047401C49001F
:1006C00008BF20F0010010BC704710B5141E73F174
:1006D000000408DA401C41F1000192185B411A4302
:1006E00001D120F0010010BD2DE9F04D92469B464E
:1006F00011B1B1FA81F202E0B0FA80F220329046F4
:10070000FFF77BFF04460F4640EA0A0041EA0B016F
:1007100053465A46084313D0114653EA010019D0F4
:10072000C8F140025046FFF777FF05460E46504697
:1007300059464246FFF761FF084305D0012004E017
:1007400020463946BDE8F08D0020054346EAE076B4
:100750002C4337430A986305E40AA0EB0800002203
:10076000FD0A44EA47540A3002D500200146E9E771
:10077000010510196941DDE9084500196941BDE825
:10078000F04DA2E72DE9F04D00231A461B1A8A41CD
:1007900003DB00200146BDE8F08DC1F30A52C1F32E
:1007A000130141F480154FF0000BD10702D100185E
:1007B0006D41521E0027044640F2FF11384601EBFE
:1007C000620A3E468046024600204FF48011FFF741
:1007D00023FFC2197141BB1846EB0100B4EB030CB7
:1007E00075EB000C04D3E41A65EB000517460E46C2
:1007F000241908F101006D4180463428E3DDF91920
:1008000046EB0600091BA84103D24FF0FF32134606
:1008100001E0002213461BEB070046EB0A51BDE83E
:10082000F04DFFF752BF0000064C074D06E0E068B0
:1008300040F0010394E8070098471034AC42F6D327
:10084000FFF7A6FC00670008206700080EB540F21D
:10085000334102910021CDE900110A460B46FFF712
:1008600043FF03B000BD70B5C1F30A5201F000456B
:100870000024C1F3130140F2FF3341F480119A4286
:1008800001DA002070BD40F233439A42A2F23342B3
:1008900003DC5242FFF7C0FE00E090402C43F1D051
:1008A000404270BD70B58C1810F8015B15F007035D
:1008B00001D110F8013B2A1106D110F8012B03E0F9
:1008C00010F8016B01F8016B5B1EF9D12B0705D401
:1008D0000023521E0DD401F8013BFAE710F8013B4A
:1008E000CB1A921C03E013F8015B01F8015B521E66
:1008F000F9D5A142D8D3002070BD00002DE9F05FEA
:10090000764C00EE100A2DED028BDFF8D4B1B8EE74
:10091000C00AA578D4ED020ADDE90C763BF915C0D2
:1009200070EE800A00EE10CA0BF1C80C0BF5C87E01
:10093000B8EEC00AABF5167A0AF1C80970EEC02A03
:1009400000EE101AC4ED022AB8EEC00AD4ED030A74
:100950003CF915C070EE800A00EE10CAB8EEC00A6D
:1009600070EEC00A00EE102AC4ED030AB8EEC00A09
:1009700094ED041A3EF915C031EE001A00EE10CACB
:10098000B8EEC00A31EE402A00EE103A84ED042A97
:10099000B8EEC00A94ED081A3AF915C031EE001A03
:1009A00000EE10CAB8EEC00A31EE403A00EE107AFE
:1009B00084ED083AB8EEC00A94ED091A39F915C069
:1009C00031EE001A00EE10CA09F1C80CB8EEC00AE8
:1009D00031EE401A00EE106A84ED091AB8EEC00A32
:1009E000D4ED0A1A3CF9158071EE801A00EE108AD7
:1009F000B8EEC00A71EEC01A9FED3A0AC4ED0A1AA9
:100A0000C2EE803A2BF8150009F5167020F8151083
:100A10002EF815202AF8153029F815702CF81560D5
:100A2000FDEEE32A04F1480212EE900AC0EE802A9D
:100A300001B21180FDEEE20A10EE900AC2EE000A49
:100A400000B250808046FDEEE00A10EE900AC3EE40
:100A5000000A06B2968004F15400FDEEE00A10EEA2
:100A6000902AC1EE000A0280FDEEE00A10EE902A04
:100A7000C1EE800A4280BDEEE00A10EE102A8280AC
:100A80000846FFF77AFD9FED188B53EC182BFFF704
:100A900093FCFFF796FD09F2646738604046FFF764
:100AA0006CFD53EC182BFFF787FCFFF78AFD78608D
:100AB0003046FFF762FD53EC182BFFF77DFCFFF784
:100AC00080FD6D1CB860E8B2A070642801D10020E0
:100AD000A070BDEC028BBDE8F09F0000200000205C
:100AE000BC0400200000C842000000000000403F9D
:100AF000FEE700000E48016821F080710160016886
:100B000041F0807101600B48016821F00101016032
:100B1000016841F0010101600021416000BF00BF98
:100B200000BF406808B100207047012070470000F6
:100B3000FCED00E0001000E02DE9F84304464FF41E
:100B40007A77DFF82C800B4D0DE000976E6800F08F
:100B500001FDB0FBF8F000994843009068680099E7
:100B6000801B8842FAD3641EEFD2BDE8F8830000F0
:100B700040420F00001000E031B5084D6C6800F0F5
:100B8000E9FC0749B0FBF1F0009948430090686820
:100B90000099001B8842FAD338BD0000001000E025
:100BA00040420F0031B5084D6C6800F0D3FC074996
:100BB000B0FBF1F000994843009068680099001B71
:100BC0008842FAD338BD0000001000E040420F0018
:100BD000704700004FF40041014800F0F6B80000F3
:100BE000000C024070B5044600F0FCF80546601C9D
:100BF00002D004480078044400F0F4F8401BA042FE
:100C0000FAD370BD540200202DE9F84F00224FF0B6
:100C1000010803254FF00F0E0B6808FA02F4234079
:100C2000A3426ED14E68012E05D0022E03D0112EA4
:100C300001D0122E12D186684FEA420C05FA0CF749
:100C4000BE43CF6807FA0CF7374387604668A64370
:100C50000C79C4F30014944034434460C6685700D0
:100C600005FA07FC8C6826EA0C06BC403443C460D5
:100C70004C68022C01D0122C13D1D40800EB840450
:100C8000A346D4F8209054074FEAD46A0EFA0AF625
:100C900029EA06090E6906FA0AF646EA0906CBF8B9
:100CA000206006680C7926EA0C0604F00304BC40B8
:100CB000344304604C68E40065D5364C266846F43D
:100CC00080462660246822F0030604F480440094E1
:100CD000314C3444A446D4F808489607370F0EFA2E
:100CE00007F6B4432D4EB04201D1002624E02C4E2D
:100CF000B04201D101261FE02A4EB04202D10226A5
:100D00001AE040E0284EB04201D1032614E0274EFD
:100D1000B04201D104260FE0254EB04201D1052694
:100D20000AE0244EB04201D1062605E0224EB04230
:100D300001D1072600E00826BE402643CCF808680B
:100D40001E4E34684F689C43FF0300D51C4334603B
:100D50001A4C241D26684F689E43BF0300D51E43CE
:100D60002660164E083634684F689C43FF0200D553
:100D70001C433460114E0C3634684F689C43BF02EC
:100D800000D51C433460521C102AFFF445AFBDE867
:100D9000F88F00004438024000300140000002405B
:100DA0000004024000080240000C02400010024013
:100DB0000014024000180240001C0240003C0140A8
:100DC0000069084000D001207047426931EA020200
:100DD00000D10904816170470AB18161704709043B
:100DE000FBE70000014880687047000054020020C3
:100DF00070B5040025D094F83D00002520B984F892
:100E00003C50204600F03EFA242084F83D00206843
:100E1000016821F0010101602068016841F400418E
:100E200001602068016821F40041016000F098FB36
:100E30004D4A6168914201D84C4900E04C498842D2
:100E400001D2012070BD4B492368B0FBF1F15E680F
:100E500026F03F060E435E606368934206D94FF466
:100E6000967359434FF47A73B1FBF3F12368491C2D
:100E70001E6A26F03F06314319626168914210D81C
:100E80004900401EB0FBF1F2521CC2F30B02042ACF
:100E900001D2042022E0B0FBF1F0401CC0F30B00B3
:100EA0001CE0A268F2B301EBC10303EB0116431E81
:100EB000B3FBF6F35B1C43F480431B0549D092B3AC
:100EC00001EBC10202EB0111401EB0FBF1F0401C2E
:100ED000C0F30B0040F4804040F400402168CA6930
:100EE0004CF6FF739A431043C861D4E907100143DD
:100EF0002068026822F0C00211430160D4E90301B6
:100F000001432068826848F2FF339A4311438160AD
:100F1000D4E9050108432168CA6822F0FF021043A2
:100F2000C86001E00EE016E02068016841F00101B0
:100F300001602564202084F83D00256384F83E503C
:100F4000002070BD01EB4106431EB3FBF6F35B1CB2
:100F5000B3E70120C2E701EB4101401EB0FBF1F015
:100F6000401CC0F30B00B7E7A086010080841E0080
:100F700000093D0040420F002DE9F84F1F46904602
:100F80008A460446DDF82890FFF72CFF054694F8C2
:100F90003D00202875D1192301226C492046009577
:100FA00001F018FE0028F5D194F83C00012868D023
:100FB000012084F83C0020680168C90703D101685A
:100FC00041F0010101602068016821F400610160C5
:100FD000222084F83D00102084F83E00002626647C
:100FE000C4F824806785608D20855948E0622B46CF
:100FF0004A465146204601F003FD002878D1208D55
:10100000544F68B1012814D002282068016816D016
:1010100041F480610160206841698069009087E047
:101020002068416981690091016841F400710160A3
:101030007EE02068016821F480610160F0E721F41E
:10104000806101602068016841F40061E2E70328E3
:1010500048D801280AD0022814D04B46002239462D
:101060002046009501F0B6FDD8BB27E02A46494648
:10107000204601F02EFEA0BB20680069616A08705E
:101080004DE061E04B46002239462046009501F0D4
:10109000A1FD30BB2068016841F400710160206847
:1010A0000069616A0870606A401C6062218D491E97
:1010B0002185618D491E618521682EE020680168C7
:1010C00021F48061016020680069616A0870606ACB
:1010D000401C6062208D401E2085608D401E608512
:1010E000D0E705E02A464946204601F0F2FD10B15E
:1010F0000120BDE8F88F20680069616A0870606AA5
:10110000401C6062218D491E2185618D491E6185CB
:1011100021684A69D24352070AD409690170606A9A
:10112000401C6062208D401E2085608D401E6085C1
:10113000208D00288BD1202084F83D0084F83E606B
:1011400084F83C600020D4E70220D2E702001000BF
:101150000000FFFF040001002DE9F84F1F469046F4
:101160008A460446DDF82890FFF73CFE054694F8D1
:101170003D0020287FD119230122404920460095B7
:1011800001F028FD002876D194F83C00012872D0A7
:10119000012084F83C0020680168C90703D1016878
:1011A00041F0010101602068016821F400610160E3
:1011B000212084F83D00102084F83E00002626649B
:1011C000C4F824806785608D20852D48E0622B4619
:1011D0004A465146204601F089FC90B92068416991
:1011E0008069009036E02A464946204601F0A4FD79
:1011F00050B1206C042804D12068016841F40071CA
:1012000001600120BDE8F88F606A216800780861FC
:10121000606A401C6062618D491E6185218D491E96
:1012200089B2218522685369DB435B070BD451B136
:1012300000781061606A401C6062608D401E6085AD
:10124000208D401E20852A464946204601F09CFC00
:101250000028CED1208D0028C5D154F83D0B01685F
:1012600041F400710160202004F81E09E6776677DA
:101270000020C7E7FFE70220C4E7000002001000DB
:101280000000FFFF10B586B0044614216846FEF743
:10129000E1FF13492068884220D11248016841F0DB
:1012A000020101600068694600F002000590C0205C
:1012B000009012200190012002900320039004204E
:1012C00004900948FFF7A0FC06481030016841F47B
:1012D00000110160006800F40010059006B010BD18
:1012E0000054004030380240000402400248816847
:1012F0000278114481607047540200200B4810B5F9
:10130000016841F400710160016841F4806101608D
:10131000016841F480710160032000F06FF8002043
:1013200000F006F800F024F8002010BD003C024058
:1013300070B50D4D04464FF47A712878B1FBF0F08A
:101340000A490968B1FBF0F000F0B3FD48B9102C70
:1013500007D200222146501E00F030F800206C60B9
:1013600070BD012070BD000054020020500200201A
:101370000A4808B5016841F480410160006800F442
:10138000804000900548001F016841F080510160D5
:10139000006800F08050009008BD00004438024012
:1013A000002809DB00F01F02012191404009800064
:1013B00000F1E020C0F8001170470000F0B40E4BBF
:1013C0001B680C46C3F30223C3F10705042D00D9A3
:1013D0000425191D072901D2002300E0DB1E012688
:1013E00006FA05F1491E214099409E40761E16409E
:1013F0003143F0BC03F026BB0CED00E0064900F0E1
:10140000070208684FF6FF03184040EA0220034A2B
:1014100010430860704700000CED00E00000FA0582
:101420002DE9F0470E46050065D0DFF81481D8F8A5
:101430000000F7B200F00F00B04207D288F8007049
:10144000D8F8000000F00F00B04254D128683D4C9D
:10145000810712D5400703D5206840F4E050206092
:101460002878000703D5206840F460402060206899
:10147000A96820F0F000084320602878C0072DD02C
:10148000304968680839012812D0022813D003288F
:1014900011D00968890700292DDA216821F003019C
:1014A00001432160FFF79EFC814641F2883A0EE03D
:1014B00009688903EFE709688901ECE7FFF792FC07
:1014C000A0EB0901514502D90320BDE8F08720684F
:1014D000696800F00C00B0EB810FEFD1D8F8001074
:1014E000404601F00F01B14207D90770006800F0D3
:1014F0000F00B04201D00120E7E72878400705D56A
:101500002068E96820F4E05008432060287800074C
:1015100006D52068296920F4604040EAC1002060B7
:1015200000F02EF82168084AC1F30311515CC8404D
:101530000649086006480068FFF7FAFE0020C4E785
:10154000003C024008380240B46400085002002009
:101550005802002001480068704700005002002037
:101560000448054900680968044AC1F38221515CB6
:10157000C84070475002002008380240C464000888
:10158000154810B5006810F00C02144813D0411033
:10159000042A0FD0082A0ED10F4C241F226823687A
:1015A00002F03F025B0207D52068C0F38810A0FB61
:1015B000010106E0084610BD2168C1F38811A1FBB6
:1015C00000010023FEF7FCFD2168C1F30141491C25
:1015D0004900B0FBF1F010BD083802400024F400CF
:1015E0002DE9F84F04006ED02078DFF83C93C00757
:1015F000A9F104054AD009F104000168C1F3810191
:10160000012908D00068C0F3810002280AD1D9F866
:101610000000400206D52868800337D5606800289E
:10162000E1D033E06068B0F5803F10D0B0F5A02F76
:10163000286810D020F480302860286820F48020AA
:1016400028606068A8B1FFF7CDFB06460DE028686A
:1016500040F48030F4E740F480202860F7E700BFD2
:10166000FFF7C0FB801B642873D828688003F7D578
:101670000CE0FFF7B7FB064605E000BFFFF7B2FB43
:10168000801B6428F0D828688003F7D42078DFF81E
:101690009C8280074FF0000A3ED5A348001D0168D8
:1016A00011F00C0F08D00068C0F3810002280BD1A4
:1016B000D9F80000400207D42868800716D5E068F2
:1016C000012800D112E02BE1E068B8B10120C8F890
:1016D0000000FFF787FB064605E000BFFFF782FB2F
:1016E000801B0228C0D828688007F7D528682169A0
:1016F00020F0F80040EAC10028600DE0C8F800A022
:10170000FFF770FB064604E0FFF76CFB801B022826
:101710001FD828688007F7D42078000722D5824E8A
:1017200083486169703671B101210160FFF75AFB8E
:10173000074604E0FFF756FBC01B022809D83068B3
:101740008007F7D50EE0C0F800A0FFF74BFB074677
:1017500005E082E0FFF746FBC01B02287DD8306819
:101760008007F7D42078400768D5DFF8BCB10027A0
:101770000BF13C0BDBF80000C0000BD4DBF80010D1
:1017800041F08051CBF80010DBF80000012700F099
:1017900080500090674E3068C00510D4306840F427
:1017A00080703060FFF71EFB009005E0FFF71AFB2A
:1017B0000099401A022850D83068C005F6D55A4E14
:1017C000A0686C3601280FD00528306810D020F0B2
:1017D00001003060306820F004003060A068B8B1CB
:1017E000FFF700FB00900FE0306840F00100F4E7E5
:1017F00040F004003060F7E7FFF7F4FA0099411A6F
:1018000041F28830814266D830688007F4D50EE016
:10181000FFF7E8FA009007E0FFF7E4FA0099411AB1
:1018200041F28830814256D830688007F4D42FB115
:10183000DBF8001021F08051CBF80010A069C8B38C
:101840003949091D0968C1F3810102294AD00228DA
:10185000504607D0C8F8600000E03CE0FFF7C2FA4D
:1018600004463BE04746C8F86000FFF7BBFA06466F
:1018700005E000BFFFF7B6FA801B02282BD82868C6
:101880008001F7D4D4E907010843A16A2A4A49082C
:1018900002EB0141626A41EA8211084394F82C107C
:1018A00040EA0161C9F8001001203866FFF79AFA92
:1018B000044606E036E000BFFFF794FA001B02285A
:1018C00009D828688001F7D52CE000BFFFF78AFA15
:1018D000001B022802D90320BDE8F88F2868800188
:1018E000F4D41FE00128F7D0D9F80000E26900F431
:1018F0008001914214D1226A00F03F0191420FD140
:1019000047F6C071626A0140914209D1A26A00F4AF
:101910004031914204D1E16A00F07060884201D008
:101920000120D9E70020D7E70438024000004742F1
:10193000800E4742007000400000FFFF70B50400B9
:1019400005D00025A56294F8510010B106E00120F1
:1019500070BD84F85050204600F030F8022084F822
:1019600051002068016821F040010160D4E90101C3
:101970000843D4E903121143084361690843218BEA
:1019800001F400710843E1690843216A0843A16A30
:10199000084321680860A069042101EA1040616AD7
:1019A0000843216848602068C16921F40061C16171
:1019B0006565012084F85100002070BD10B586B027
:1019C000044614216846FEF745FC13492068884206
:1019D00020D112480021026842F48052026000685F
:1019E00000F4805005900D481438026842F001025E
:1019F0000260006800F001000590E02000900220E5
:101A0000CDE90101032003900520049069460448B4
:101A1000FFF7FAF806B010BD00300140443802402C
:101A2000000002402DE9F84F044640680025984622
:101A300016460F464FF0040BB0F5827F01D1A06827
:101A400088B194F85000012818D0012084F8500083
:101A5000FFF7C8F9814694F851004FF0000A0128B9
:101A60000ED002257DE084F851B013460A46204688
:101A7000CDF8008000F02CF9BDE8F88F0220FBE7DC
:101A8000002F6DD0002E6BD084F851B0C4F854A054
:101A9000A763A687E687C4F830A0A4F834A0A4F80A
:101AA00036A0C4F840A0C4F844A0A068B0F5004F28
:101AB00004D12068016821F4804101602068016838
:101AC000490603D4016841F040010160E068D8B1E3
:101AD00039E020688168C90709D0007BA16B0870D4
:101AE000A06B401CA063E08F401EE0870CE0FFF776
:101AF00079F9A0EB0901414503D3B8F1FF3F03D0C9
:101B000036E0B8F1000F33D0E08F0028E1D11DE0BE
:101B100020688168C90709D0C068A16B0880A06BE4
:101B2000801CA063E08F401EE0870CE0FFF75AF9AD
:101B3000A0EB0901414503D3B8F1FF3F03D017E003
:101B4000B8F1000F14D0E08F0028E1D14A46414699
:101B5000204602F065FC08B120206065606D00B190
:101B60000125012084F8510084F850A0284683E71D
:101B70000325F6E72DE9F84F044690F850000027BA
:101B80001D461646894601280DD04FF0010B84F8FA
:101B900050B0FFF727F9804694F85100BA46012863
:101BA00004D002278EE00220BDE8F88FB9F1000FC3
:101BB0007DD0002E7BD0032084F85100C4F854A0BF
:101BC000C4F83090A686E686C4F838A0A4F83CA0F5
:101BD000A4F83EA0C4F844A0C4F840A0A068B0F5A2
:101BE000004F04D12068016841F480410160206801
:101BF0000168490603D4016841F040010160E068D2
:101C0000B0F5006F606803D030B3012E24D040E0FF
:101C100008B1012E1CD1206B21680088C86006E045
:101C200020688168890709D5216B0988C160206B0C
:101C3000801C2063E08E401EE08609E0FFF7D2F8AA
:101C4000A0EB0800A84202D3681C01D031E07DB3AC
:101C5000E08E0028E4D11FE0206B21680078087333
:101C600006E020688168890709D5216B097801732E
:101C7000206B401C2063E08E401EE08609E0FFF7E9
:101C8000B1F8A0EB0800A84202D3681C01D010E014
:101C900075B1E08E0028E4D142462946204602F084
:101CA000EDFB08B120206065A06820B107E008E0E6
:101CB000FFE7032706E02068C16880680090606D38
:101CC00000B1012784F851B084F850A038466BE782
:101CD0002DE9F84F044690F8500000270A9E1D4653
:101CE00092468B464FF0010901280ED0012084F85E
:101CF0005000FFF777F8804694F85100616801289A
:101D00000CD0B1F5827F07D102E00220BDE8F88F48
:101D1000A16809B9042801D00227C2E0BBF1000F75
:101D200027D0BAF1000F24D01DB394F85100042835
:101D300002D0052084F8510000206065C4F838A066
:101D4000E587A587C4F830B0E586A5862064606481
:101D500020680168490603D4016841F04001016030
:101D6000E068B0F5006F606805D0E8B3012D46D09B
:101D70007FE0012795E008B1012D39D1206B216862
:101D80000088C860206B801C2063E08E401EE086C7
:101D90002EE02068816889070FD5E18E69B1B9F11D
:101DA000010F0AD1216B0988C160206B801C206360
:101DB000E08E401EE0864FF0000920688168C90768
:101DC0000CD0E18F51B1C068A16B0880A06B801C62
:101DD000A063E08F401EE0874FF00109FFF702F893
:101DE000A0EB0800B04200E009E001D3701C50D124
:101DF000E08E0028CDD1E08F0028CAD13FE0206BD3
:101E0000216800780873206B401C2063E08E401E20
:101E1000E0862EE02068816889070FD5E18E69B1E0
:101E2000B9F1010F0AD1216B09780173206B401CB5
:101E30002063E08E401EE0864FF000092068816834
:101E4000C9070CD0E18F51B1C068A16B0870A06BBD
:101E5000401CA063E08F401EE0874FF00109FEF7B1
:101E6000C1FFA0EB0800B04202D3701C01D010E00B
:101E70007EB1E08E0028CDD1E08F0028CAD1424645
:101E80003146204602F0FAFA28B101272020606589
:101E900007E0032705E0A06818B92068C1688068DA
:101EA0000090012084F85100002084F8500038464A
:101EB0002CE710B5401EB0F1807F01D3012010BD8A
:101EC0004FF0E02460610F21601702F0BBFD00209D
:101ED000A06107202061002010BD704770470000FE
:101EE00070B590F83C20012A32D0012480F83C40A3
:101EF000022280F83D2003685A689D6822F070062F
:101F00000A6832435A60134B02689A4214D0B2F105
:101F1000804F11D0104B9A420ED0104B9A420BD0EA
:101F20000F4B9A4208D00F4B9A4205D00E4B9A4263
:101F300002D00E4B9A4204D1496825F08003194320
:101F4000916080F83D40002180F83C10084670BD4B
:101F5000022070BD00000140000400400008004065
:101F6000000C004000040140004001400018004007
:101F700010B5040003D094F83D0010B107E0012033
:101F800010BD002084F83C00204600F00DF802202F
:101F900084F83D00211D206802F076FB012084F8C2
:101FA0003D00002010BD0000F0B587B004461421AC
:101FB0006846FEF74FF93E4A24683C4B00253C49F1
:101FC000143A02263B489C4229D10B6843F0010396
:101FD0000B60096801F001010591116841F01001E1
:101FE0001160116801F0100105914FF4D441009186
:101FF000CDE901650121CDE903516946FEF704FEF3
:10200000002201211820FFF7D9F91820FFF7C8F99D
:10201000002211461B20FFF7D1F91B2015E0244BAD
:102020001B1FB4F1804F14D0234FBC421AD1186843
:1020300040F0020018601868002200F002000590CD
:1020400002211D20FFF7BAF91D20FFF7A9F907B0FB
:10205000F0BD186840F001001860186800F0010039
:102060000590F4E7154B9C42F1D10B6843F48033A3
:102070000B60096801F480310591116841F010018D
:102080001160116801F01001059120210091CDE946
:1020900001650321CDE903516946FEF7B5FD002234
:1020A00001211820FFF78AF91820CEE7000001402F
:1020B000443802400010024000040040004001404B
:1020C0000168CA6842F00102CA600068816801F0D4
:1020D0000701062903D0016841F0010101600020D9
:1020E000704770B5044690F83C00012817D00125D0
:1020F00084F83C50022084F83D002068826822F079
:10210000770222F47F4282600868502830D00DDCCC
:1021100020284DD005DC98B310283BD148E00220A0
:1021200070BD302844D0402834D139E0602828D010
:10213000702806D0B0F5805F2CD0B0F5005F29D1B3
:102140000AE0CB68D1E90121206802F00EFB20688B
:10215000816841F0770109E0CB68D1E9012120686D
:1021600002F003FB2068816841F48041816011E046
:10217000CA684968206802F0CDFB5021206807E05A
:1021800016E0CA684968206802F016FC60212068E1
:1021900002F0F5FA84F83D50002084F83C0070BD50
:1021A000CA684968206802F0B5FB40212068EFE763
:1021B000226801461046EBE72DE9F041054600682C
:1021C0003549DFF8D8800026884251D1287F344C29
:1021D000344F01280DD141024046FEF7F1FD0128A0
:1021E00020680AD0406B00EE100AB8EE400A87ED76
:1021F0000A0A287F022802D010E04662F9E74FF46D
:1022000000614046FEF7DCFD012820680AD0806BA3
:1022100000EE100AB8EE400A87ED080A287F04286D
:1022200002D010E04662F9E74FF400514046FEF755
:10223000C7FD0128206819D0C06B00EE100AB8EE67
:10224000400A87ED090A287F08280DD1C1024046BF
:10225000FEF7B6FD012820681CD0006C00EE100AC5
:10226000B8EE400A87ED0B0ABDE8F0814662EAE766
:102270000D498842F8D1287F0128F5D12021404618
:10228000FEF79EFD09490128086803D0406B084904
:10229000C860E9E74662E7E700000140001002403D
:1022A000480A00209800002000400140480B002010
:1022B000980100202DE9F041044690F83C000D46BD
:1022C00001283DD0012684F83C60022084F83D00BE
:1022D000AAB3042A46D02068082A55D0D5E9002799
:1022E000E968036A23F480530362D0F81CC0036AD0
:1022F0002CF4407C4CEA07274FF6FF7C27F470470C
:102300000CEA013139434FF4204723F4204307EA14
:1023100002321A43C16102622068C16921F440613E
:10232000C1612068C169AA6841EA0221C0F81C1095
:1023300084F83D60002084F83C00BDE8F08101E0B5
:102340000220FAE7D5E90012EB68206802F0F4FAFF
:102350002068816921F00C01816120688169AA6887
:1023600011430FE0D5E90012EB68206802F036FB5C
:102370002068816921F44061816120688169AA68CF
:1023800041EA02218161D3E7D5E9002C2F7B016A64
:1023900021F480710162C169036A21F0030141EAFD
:1023A0000C0121F0F00C39074FF420674CEA116161
:1023B00023F4206307EA02221A43C1610262206803
:1023C000C16921F00C01C1612068C169AA6811438B
:1023D000ACE710B5040003D094F83D0010B107E05D
:1023E000012010BD002084F83C00204600F00CF8CD
:1023F000022084F83D00211D206802F045F90120EB
:1024000084F83D00002010BD10B586B004461421AC
:102410006846FDF71FFF1349206888421FD1124804
:102420000021026842F002020260006800F002002F
:1024300005900D481438026842F0040202600068FA
:1024400000F004000590402000900220CDE9010139
:102450000320CDE9031069460448FEF7D5FB06B01A
:1024600010BD000000040140443802400008024052
:1024700010B50268044631B1042908D008291AD0E1
:102480000C2908D11BE0D06840F0020002E0D068BF
:1024900040F00400D0600122206802F059F9206861
:1024A000816801F00701062903D0016841F00101AC
:1024B0000160002010BDD06840F00800EAE7D06855
:1024C00040F01000E6E770B50446006801694FF07F
:1024D0000005C943890715D4C168C943890711D4C8
:1024E000E91E01610120207720688069800720466D
:1024F00002D0FFF761FE04E000F0C0F8204600F0D3
:1025000042F9257720680169C943490717D4C16892
:10251000C943490713D46FF00401016102202077F9
:102520002068806910F4407F204602D0FFF744FE07
:1025300004E000F0A3F8204600F025F92577206894
:102540000169C943090716D4C168C943090712D4F0
:102550006FF008010161042020772068C0698007BE
:10256000204602D0FFF728FE04E000F087F820465E
:1025700000F009F9257720680169C943C90617D415
:10258000C168C943C90613D46FF010010161082066
:1025900020772068C06910F4407F204602D0FFF702
:1025A0000BFE04E000F06AF8204600F0ECF8257716
:1025B00020680169C943C90708D1C168C943C9076F
:1025C00004D1891E0161204600F000F920680169EC
:1025D000C943090609D4C168C943090605D46FF087
:1025E000800101612046FFF778FC20680169C9433A
:1025F000490609D4C168C943490605D46FF04001B2
:102600000161204600F0E2F920680169C9438906AA
:102610000BD4C168C943890607D46FF0200101615A
:102620002046BDE87040FFF759BC70BD10B586B0BC
:10263000044614216846FDF70DFE2068B0F1804F76
:1026400015D10C480021026842F0010202600068C6
:1026500000F0010005900F2000900220CDE901015B
:102660000120CDE9031069460348FEF7CDFA06B014
:1026700010BD00003038024000000240704770B5C5
:10268000044690F83C000D4601280DD0012684F840
:102690003C60022084F83D0042B1042A18D0082A88
:1026A0002AD00C2A4DD139E0022070BD206802F0FA
:1026B0006FF82068816941F00801816120688169B3
:1026C00021F004018161206881692A69114311E0C8
:1026D000206802F08DF82068816941F40061816111
:1026E0002068816921F480618161206881692A699B
:1026F00041EA0221816124E0206802F0AFF82068FD
:10270000C16941F00801C1612068C16921F004017B
:10271000C1612068C1692A69114311E0206802F093
:10272000D1F82068C16941F40061C1612068C169C4
:1027300021F48061C1612068C1692A6941EA0221EE
:10274000C16184F83D60002084F83C0070BD10B584
:10275000040003D094F83D0010B107E0012010BD43
:10276000002084F83C00204600F00CF8022084F899
:102770003D00211D206801F087FF012084F83D0005
:10278000002010BD7047704710B504460068012254
:1027900001F0DEFF0B492068884202D00A498842D6
:1027A00003D1416C41F4004141642068816801F02B
:1027B0000701062903D0016841F0010101600020F2
:1027C00010BD0000000001400004014070B5006829
:1027D0007849A8B088427DD1774C00256078401CAC
:1027E000C0B260700A282FD13622744912A8FDF7B2
:1027F00018FD724EF08EADF87E0006F12C00C16817
:102800002091008AADF88400F08FADF88600112287
:1028100006F1400122A8FDF704FD96F851008DF85D
:102820009900706D2790482216A96846FDF7F9FCBB
:1028300012AE96E80F0003F05FFB03F07BFC206311
:1028400003F082FC6063657000F0F0FD00F0B0FC06
:102850005B49E06A4FF47A7688427DDDE089401C6E
:1028600080B2E0810A2878D1E581208A401C80B2BC
:10287000208203280BD101F045FA2582608A401C92
:1028800080B26082022802D1658201F0D3F901F0A2
:10289000CBFB49484B4AA16A803091420ADD90ED5A
:1028A0001D0ADFED490A30EE200ABCEEC00A84EDB5
:1028B000060A00E0A561D4ED060A94ED140AB8EE0C
:1028C000601A71EE401A94ED1F1A31EEC12AD0ED54
:1028D0000A1A00E06BE032EE612ABCEEC22A12EE68
:1028E000100A6080B8EE602A32EE402A32EE012AE9
:1028F00032EE212ABCEEC22A12EE100AA080B8EEF7
:10290000602A32EE002A32EE012A32EE612ABCEE53
:10291000C22A12EE100AE080F8EE600A30EE800A59
:1029200030EE410A30EE210ABCEEC00A10EE100A69
:102930002081618840F24C40814200D26080A188B1
:10294000814200D2A080E188814200D2E0802189CA
:10295000814200D2208101E013E011E0618840F261
:10296000D660814200D96080A188814200D9A080D0
:10297000E188814200D9E0802189814207D9208104
:1029800005E001F037FD6680A680E6802681E680BE
:102990006680E1880948983002685163618802685E
:1029A0009163A1880268D16321890068016428B01D
:1029B00070BD00000004004098000020F0090020D5
:1029C0000080BB440000964400007A447047FEE754
:1029D00001684A69D24352050FD46FF480624A619C
:1029E000002140F8301F202242738173026942F0B7
:1029F000040202610173012070470020704700004B
:102A00002DE9F84F0446C06A1E4693460D462168DC
:102A10000A6842F480620A60082807D0012805D0BD
:102A200010F5803F02D0206B112804D12068016886
:102A300041F4807101604FF001195B460022494664
:102A40002046009600F0C6F84FF4007840B12068A8
:102A50000068C00501D5C4F840800320BDE8F88FA8
:102A60002069DFF884A0B0F5804F0FD006202168E0
:102A700000EAD51747F0F000086133465A460AF1DC
:102A80000601204600F0DAF858BB03E0E8B240F057
:102A900001001CE02168E8B2086133465A465146FD
:102AA000204600F0CBF8E0B92068416981690091C7
:102AB000016841F4807101605B460022494620466E
:102AC000009600F087F80028C1D147F0F100216896
:102AD000086133465A465146204600F0AFF80028B8
:102AE000BCD00120BAE7000002000100F8B504469E
:102AF000C06A1E460D461746082807D0012805D093
:102B000010F5803F02D0206B122804D120680168A4
:102B100041F480710160134600224FF001112046FC
:102B2000009600F057F840B120680068C00502D553
:102B30004FF4007020640320F8BD2069B0F5804F89
:102B40000ED00620216800EAD51040F0F0000861A0
:102B500033463A460B49204600F070F878B902E057
:102B600005F0FE0000E0E8B221680861054933463F
:102B70003A46891F204600F061F80028DCD0012089
:102B8000F8BD00000800010070B516460D46044669
:102B90000DE02046FFF71CFF08B1012070BD681C46
:102BA00005D0FEF71FF9801BA84207D835B1206871
:102BB0004069C0434007ECD4002070BD002044F8B9
:102BC000300F20216173A073216941F02001216140
:102BD0002073E2E72DE9F0471E4690460D46044675
:102BE000C1F30747DDF8209008E0701C06D0FEF71F
:102BF000F9F8A0EB0900B0420FD876B12068012F98
:102C000018D0806925EA00000004000C14D00021CF
:102C10004145EAD00020BDE8F087002044F8300F9D
:102C200020216173A073216941F02001216120738B
:102C30000120F0E74069E5E70121E9E72DE9F047E8
:102C40009A4691460E46044600254FF02008C1F3EF
:102C5000074725E020684069C043400514D4206838
:102C6000016841F40071016021686FF4806048617F
:102C7000256384F83D8084F83E50206C40F00400C9
:102C8000206484F83C501FE0B9F1FF3F08D0FEF704
:102C9000A9F8A0EB0A0149450CD8B9F1000F09D0F9
:102CA0002068012F13D0806926EA00000004000C80
:102CB0000BD0CFE744F8305F84F80D80A57320690E
:102CC00040F02000206125730120BDE8F0874069B5
:102CD000EAE72DE9F041002590460E4604462027FC
:102CE00017E04069C043C0060CD454F8301B6FF0A5
:102CF0001000486144F810596777A577206A206270
:102D0000257717E0FEF76EF8A0EB0800B04208D870
:102D10003EB120684169C9434906E2D40020BDE8BC
:102D2000F08144F8305F6773A573206940F020009C
:102D3000206125730120F2E770B516460D46044662
:102D40000DE02046FFF744FE08B1012070BD681C6D
:102D500005D0FEF747F8801BA84207D835B1206898
:102D60004069C0430006ECD4002070BD002044F848
:102D7000300F20216173A073216941F0200121618E
:102D80002073E2E710B52DED0A0B2DED108B88B006
:102D9000F0EE418AB0EE609AF0EE409A9FEDD60ACE
:102DA0008DED000A8DED010A8DED020A9FEDD38AAB
:102DB000D34C94ED000AD4ED000A20EE201A8DEDDC
:102DC000071AD4ED000A94ED050A20EE80DA94ED9E
:102DD000000AD4ED060A60EE20CA94ED000AD4ED94
:102DE000070A20EE205A94ED050AD4ED050A60EE9C
:102DF00020FA94ED050AD4ED060A60EE204A94ED1F
:102E0000050AD4ED070A20EE20CA94ED060AD4ED97
:102E1000060A60EE20BA94ED060AD4ED070A20EE09
:102E200020BA94ED070AD4ED070A60EE20AA21EE3D
:102E3000A10A02EE020A02EEA20A03F08FF961EE85
:102E4000805ACDED1B5A62EE005ACDED1C5A62EE4F
:102E5000805A23EE030ACDED1D5A03EEA30A04EEB9
:102E6000040A03F07BF9F6EE002A63EE00EA72EE44
:102E7000EB0A23EE80EAB0EE00AA64EE00DA2EEE52
:102E80008A0A70EEEA0A2EEE0A2A34EEC54ACDED21
:102E9000060A20EE201A6DEE8A1A7CEE2C0A72EEDB
:102EA000EF2A02EE041A3CEE6CFA8DED054A32EE82
:102EB000EA3A72EEEB3A01EEA01A74EE850ACDED15
:102EC000043A60EE200A20EE0F0A42EE030A3BEEBF
:102ED0004D3A41EE830A3BEE0D3A02EE030A01EE53
:102EE000A30A8DED030A21EE010A00EEA00A10EEFE
:102EF000100AFDF753FB41EC100B02F0D5FA51EC30
:102F0000100BFDF75EFB9DED071A00EE900A9DED9C
:102F1000030A31EE6F1A20EE8A2A9DED054A7DEEF6
:102F20000B3A31EE6B1A20EE0A0ADDED060A63EE6B
:102F30008A2A31EE2A3A22EE041A62EE200ADDEDE8
:102F40001C5A6FEE0A1A00EE231A7CEE8C3A40EE01
:102F50000F0A22EE232ADDED043A00EE232A25EEA5
:102F6000830ADDED1D5A05EEE20A6EEE023A4DEEE1
:102F7000C13A2EEE811A0EEE601A30EE230A65EE8B
:102F8000A13ADDED1B5AB5EEC00A45EEC33A2DEE6F
:102F9000A03A65EEA22ADDED1C5A0EEEC23A45EECD
:102FA000E12A33EE832A72EE810AF1EE10FA23D081
:102FB000B5EEC02AF1EE10FA1ED0F5EEC00AF1EE21
:102FC00010FA19D0B1EE023A9DED001ADDED011AAA
:102FD000DDED022A00EE081A42EE081A40EE882AB9
:102FE00040EE039A02EE039A40EE838A79EE819ACC
:102FF00039EE219A78EEA28A94ED050AD4ED060AFC
:1030000029EEC00A00EEC90AD4ED070A00EEE80A6C
:10301000D4ED000A40EE080AC4ED000A94ED000A5F
:10302000D4ED060A20EE290A00EEA80AD4ED070A1C
:1030300000EEC90AD4ED050A40EE080AC4ED050AFF
:1030400094ED000AD4ED050A20EE090A00EEE80A24
:10305000D4ED070A00EEA90AD4ED060A40EE080AEC
:10306000C4ED060A94ED000AD4ED050A20EE280A04
:1030700000EE890AD4ED060A00EEE90AD4ED070A4B
:1030800040EE080AC4ED070A94ED000AD4ED000AE8
:1030900094ED051A20EE200AD4ED050A00EE810A0F
:1030A000D4ED060A94ED061A00EE810AD4ED070A63
:1030B00094ED071A00EE810A03F050F8D4ED000AEF
:1030C00060EE800AC4ED000AD4ED050A60EE800AC5
:1030D000C4ED050AD4ED060A60EE800AC4ED060AC6
:1030E000D4ED070A20EE800A84ED070A08B0BDEC93
:1030F000108B0AB010BD000000000000A69BC43C6D
:10310000000000202548B0F9001000EE101A2449F4
:10311000F8EEC00A91ED010AB0F90210B0F904000E
:10312000C0EE804A00EE901AB8EEE01AC1EE000A36
:1031300001EE100A1B48F8EEC11AB0F9001081EE3A
:10314000801A00EE101AB0F90210B0F90400F8EE7F
:10315000C01A00EE101AB8EEC02A00EE100A12488B
:10316000F8EEC02AB0F9001000EE101AB0F9021003
:10317000B0F90400B8EEC03A00EE101AF8EEC03A0A
:1031800000EE100AB8EEC04A9FED080A21EE001AC0
:1031900060EE800A24EE800AFFF7F4BD5C00002098
:1031A000000000206800002074000020295C8F3C93
:1031B00010B52DED088BFFF7A5FF534CF8EE008AF4
:1031C000B0EE008A94ED050AD4ED070A94ED061AD4
:1031D00020EE280A20EE200AD4ED000A60EE880ACC
:1031E00000EE810A10EE100AFDF7D8F941EC100B41
:1031F00001F03AFC9FED459B51EC100B53EC192B61
:10320000FDF7DAF8FDF7DDF9E06094ED050AD4ED9D
:10321000050A94ED061A20EE280AB7EE00BA20EE51
:10322000200AD4ED060A60EE880A00EEC10A30EEEC
:103230000B0A10EE100AFDF7B1F994ED060AD4ED71
:10324000070A94ED051A20EE080A41EC1A0B20EE4D
:10325000200AD4ED000A60EE880A00EE810A10EE22
:10326000100AFDF79BF941EC100BB0EE4A1AF0EE94
:103270006A1A01F015FF53EC192B51EC100BFDF7F6
:103280009BF8FDF79EF9A06094ED060AD4ED060ABE
:1032900094ED071A20EE080A20EE200AD4ED070A62
:1032A00060EE880A00EE810A30EE4B0A10EE100A3A
:1032B000FDF774F994ED050AD4ED060A94ED071AAA
:1032C00020EE280A41EC1A0B20EE200AD4ED000A69
:1032D00060EE880A00EEC10A10EE100AFDF75EF9F2
:1032E00041EC100BB0EE4A1AF0EE6A1A01F0D8FE6B
:1032F00053EC192B51EC100BFDF75EF8FDF761F95B
:103300002061BDEC088B10BD0000002000000060B3
:1033100066A64C402DE9F0410026DFF86C8035466A
:1033200034463746184A15213B2003F04DF8B8F8CB
:10333000081049BA06FA81F6B8F80A1049BA05FA2F
:1033400081F5B8F80C0040BA04FA80F41420FDF7B7
:10335000F3FB00F06BF8FFF72BFF7F1CBFB2FF2FD2
:10336000E0D9F01706EB1060011208480180E91758
:1033700005EB116109124180E11704EB116109129B
:103380008180BDE8F08100006C090020560000201B
:10339000174810B5016886B041F008010160006867
:1033A000144C00F0080005904FF48050009001206C
:1033B000019003900220029069462046FDF724FC0C
:1033C0004FF40050009069462046FDF71DFC4FF475
:1033D0008040009069462046FDF716FC4FF40040FF
:1033E000009069462046FDF70FFC06B010BD0000B6
:1033F00030380240000C0240B0EE002AF7EE002AFE
:1034000021EE021A9FED082A21EE022A82EE821A8C
:1034100031EE212A81EE821A70EE601AB0EE600A57
:1034200001EE210A70470000F90F4940F0B5574AF4
:1034300015212DED028B83B03B2002F0C5FF534CCC
:10344000534B208840BA00B21880618849BA09B24B
:103450005980A28852BA12B29A8023895DBA4C4B25
:10346000183B1E88AE1B9D1D2E8066895F8876BA2C
:10347000F61B6E80A6899B8876BAF31AAB8005F19D
:103480001E06B4F90E303380B4F910707780B4F9A9
:103490001240B480CDE90074FDF730FAA5F10C01BB
:1034A0009FED3C3AB1F90000B2EE041A00EE100AAA
:1034B000A81DF0EE431AB0F90020F8EEC00A00EEA5
:1034C000102AB8EEC00AFFF797FFBDEEC00AF0EE73
:1034D000431AB2EE041A10EE102A2A80B1F9022023
:1034E00000EE102AB0F90220F8EEC00A00EE102A11
:1034F000B8EEC00AFFF780FFBDEEC00AF0EE431A37
:10350000B2EE041A10EE102A6A80B1F90420B0F964
:10351000040000EE102AF8EEC00A00EE100AB8EE21
:10352000C00AFFF769FFBDEEC00A10EE100A04B230
:10353000AC80B5F900000880B5F902504D808C8050
:10354000FDF71BF89FED148B53EC182BFCF7A6FF2F
:10355000FDF737F80D4E183630602846FDF70DF8A8
:1035600053EC182BFCF79AFFFDF72BF87060204600
:10357000FDF703F853EC182BFCF790FFFDF721F84B
:10358000B06003B0BDEC028BF0BD00006C09002000
:103590006E0000206F12033BFCA9F1D24D62604027
:1035A0002DE9F84F01216B2002F074FF754C4FF0AC
:1035B0006A094FF0200A84F8009084F801A00A25D7
:1035C00002232246D02170480095FDF7C5FD4FF03B
:1035D000240B84F800B00D20607002232246D02115
:1035E00069480095FDF7B8FD00210A2002F03DFF73
:1035F00080216B2002F04EFF0120FDF7F3FA01213C
:103600000B2002F032FF01216B2002F043FF7520F6
:10361000207001232246D0215B480095FDF79CFDD8
:103620000123A4F12C02D02157480095FDF7A4FCFA
:103630006420FDF7D7FAA4F12C084FF4005198F854
:10364000000073287DD000225048FDF7C5FB6C2098
:1036500020700026667002234A4AD0214A4800950D
:10366000FDF77AFD1C202070182060700223454A67
:10367000D02145480095FDF76FFD1B202070667036
:103680000223404AD02140480095FDF765FD1D20EA
:1036900020700127677002233A4AD0213A480095EA
:1036A000FDF75AFD1A20207067700223354AD02199
:1036B00035480095FDF750FD1920207066700223F3
:1036C000304AD02130480095FDF746FD84F800903F
:1036D00084F801A002232B4AD0212B480095FDF746
:1036E0003BFD84F800B00D2060700223254AD021F4
:1036F00025480095FDF730FD224A01212B3A002094
:1037000002F046FE6420FDF76DFA98F801003903D7
:10371000482835D000221D48FDF75EFB00210A2015
:1037200002F0A3FE6420FDF75DFA0F210A2002F0EB
:103730009CFE6420FDF756FA124A0321293A102014
:1037400000E01BE002F024FE00210A2002F08DFEC2
:103750006420FDF747FA16210A2002F086FE642055
:10376000FDF740FA01216B2002F094FEBDE8F84F0E
:10377000044A07213432032002F00ABE012263E723
:103780000122C8E74C0000209C090020000C0240E8
:103790002DE9F04786B014216846FCF75BFD3F48F1
:1037A0000024016841F010010160016801F010017E
:1037B0000591016841F080010160016801F080011C
:1037C0000591016841F004010160016801F0040104
:1037D0000591016841F001010160016801F00101FA
:1037E0000591016841F002010160016801F00201E8
:1037F0000591016841F0080101600068284F00F060
:1038000008000590002202213846FDF7E5FADFF8AE
:103810009480012202214046FDF7DEFADFF888900D
:10382000012280214846FDF7D7FADFF880A0002268
:103830004FF470415046FDF7CFFA02260125CDE93D
:103840000065CDE9024669463846FDF7DDF9CDE968
:103850000065CDE9024669464046FDF7D5F980206E
:10386000CDE90005CDE9024669464846FDF7CCF9A9
:103870004FF45040CDE9000569465046CDE9024578
:10388000FDF7C2F968030090CDE90154694650463E
:103890000394FDF7B9F906B0BDE8F087303802406F
:1038A000000802400004024000100240000C0240E8
:1038B0000D4810B50B4901600C49416000214FF4DF
:1038C00080428160C0E9031241618161C16101628E
:1038D000FDF78EFA002803D0BDE81040FDF77AB955
:1038E00010BD0000005400409C090020801A060012
:1038F000104810B50E4901604FF4827141600021FB
:1039000002228160C0E903120122426152028261F7
:103910002022C0E90721416281620A21C162FEF7CB
:103920000DF8002803D0BDE81040FDF753B910BDD5
:1039300000300140F009002010B58AB0002434485E
:1039400004940594069407940894099400940194AF
:1039500002942E49039401605321C0E9011447F2F7
:103960002F51C0E9031444618461FEF701FB08B1E3
:10397000FDF730F94FF48050049004A92448FEF775
:10398000B0FB08B1FDF726F92148FEF722FD08B18A
:10399000FDF720F9089408A91D480994FEF7A0FA3C
:1039A00008B1FDF717F90A2000900120CDE90104C4
:1039B0000F200390002269461548FEF77BFC08B1F2
:1039C000FDF708F9042269461148FEF773FC08B1B7
:1039D000FDF700F9082269460D48FEF76BFC08B1B7
:1039E000FDF7F8F80C2269460948FEF763FC08B1B8
:1039F000FDF7F0F8042269460548FEF75BFC002855
:103A000001D0FDF7E7F80AB010BD0000000001404A
:103A1000480A002010B58EB0002407940894099439
:103A20000A940B941C2168460C94FCF713FC2A485A
:103A30004FF0804101605321C0E9011444F61F6139
:103A4000C0E903148461FEF793FA08B1FDF7C2F8E8
:103A50004FF48050079007A91F48FEF742FB08B1BA
:103A6000FDF7B8F81C48FEF772FE08B1FDF7B2F892
:103A70000B940BA918480C94FEF732FA08B1FDF725
:103A8000A9F86020CDE9000402940022694612489A
:103A90000494FEF7F4FD08B1FDF79CF80422694692
:103AA0000D48FEF7ECFD08B1FDF794F808226946D1
:103AB0000948FEF7E4FD08B1FDF78CF80C226946D1
:103AC0000548FEF7DCFD08B1FDF784F80248FEF773
:103AD000ADFD0EB010BD0000880A002010B586B004
:103AE0000024174800940194029403940494134909
:103AF000059401605321C0E9011440F69F71C0E9AB
:103B000003148461FEF734FA08B1FDF763F84FF44B
:103B10008050009069460A48FEF7E3FA08B1FDF7C5
:103B200059F8049404A906480594FEF7D9F9002829
:103B300001D0FDF74FF806B010BD000000040040B2
:103B4000C80A002010B586B00024174805940494D4
:103B500000940194029413490394C0E90014846012
:103B6000C460046144618461FEF733FC08B1FDF771
:103B700031F8049404A90C480594FEF7B1F908B192
:103B8000FDF728F80120CDE90040029400226946A3
:103B900005480394FEF78EFB002801D0FDF71AF8C4
:103BA00006B010BD00040140080B002010B588B01D
:103BB00000241E48059406940794049400940194EC
:103BC00002941949039401605321C0E9011442F29F
:103BD0000F71C0E903148461FEF7CAF908B1FCF75C
:103BE000F9FF4FF48050049004A91048FEF779FAC9
:103BF00008B1FCF7EFFF0D48FEF7EBFB08B1FCF74F
:103C0000E9FF0A2000900120CDE90104042003907F
:103C1000002269460548FEF74DFB002801D0FCF75D
:103C2000D9FF08B010BD000000400140480B002043
:103C3000FEE770472E4A10B5D2ED0A0A2D4C10EE61
:103C4000903ADFED2D1A02F58070A0F18001A342B9
:103C50000EDB9FED2A1A9FED2A0A10EE810A80EDF5
:103C6000090AD2ED0E0A30EE600A81ED1B0A01E06E
:103C7000C0ED091A90ED0A0A90ED001AD1ED1B0A69
:103C800001EE200A80ED0A0A90ED021AB4EEC10A94
:103C9000F1EE10FA06DCB1EE411AB4EEC10AF1EE13
:103CA00010FA01D280ED0A1A90ED0A0A91ED1F1A5E
:103CB00090ED012A01EE200A91ED1C1A30EEC11A96
:103CC00002EE010A81ED1D0A91ED1E1AB4EEC10A41
:103CD000F1EE10FA02DD81ED1D1A06E0B5EEC00A24
:103CE000F1EE10FA01D2C1ED1D1AC1ED1C0A10BD92
:103CF0009800002000009644000000006666663EC2
:103D000000007A4370B5C34D2DED088B05F180049A
:103D100095ED080ABCEEC00A10EE100A81B2698166
:103D200095ED090ABCEEC00A10EE100A80B2A88117
:103D30002A7812B1012A34D035E040F2D5529142AE
:103D400002D9A1F2D55105E040F2C552914207D205
:103D5000A1F2C55100EE101AB8EEC00A84ED100AA7
:103D6000D4ED100AB2EE0E0AB0F5BF6F80EE801AE5
:103D700084ED101A02D9A0F5BF6007E0B0F5BD6F61
:103D800002D3D4ED110A07E0A0F5BD6000EE900A61
:103D9000F8EEE00AC4ED110A80EE801A84ED111AE3
:103DA00001E000F0B3FA9C4894ED100AD0ED000A4F
:103DB00030EE608A85ED108A18EE100AFCF7EEFBF3
:103DC000964E96ED0E1B53EC112BFCF7F5FA41ECD9
:103DD000190B686CFCF7E2FB53EC192BFCF745FA66
:103DE000FCF7EFFB00EE100A85ED110AD5ED130A82
:103DF000B4EEE00AF1EE10FA06DCF1EE600AB4EE81
:103E0000E00AF1EE10FA01D2C5ED110A95ED120AA1
:103E100038EE400A10EE100AFCF7C0FB96ED101BBE
:103E200053EC112BFCF7C8FA41EC1A0B686CFCF749
:103E3000B5FB41EC1B0B18EE100AFCF7AFFB96ED3F
:103E40000C9B53EC192BFCF7B7FA53EC1B2BFCF72C
:103E50000CFA53EC1A2BFCF7A9FAFCF7B2FBE86357
:103E60006F4885ED128A94ED110AD0ED000A30EE0C
:103E7000608A85ED1B8A18EE100AFCF78FFB96ED21
:103E8000181B53EC112BFCF797FA41EC1A0B286F17
:103E9000FCF784FB53EC1A2BFCF7E7F9FCF791FBDA
:103EA00000EE100A85ED1C0AD5ED1E0AB4EEE00AFC
:103EB000F1EE10FA06DCF1EE600AB4EEE00AF1EE83
:103EC00010FA01D2C5ED1C0A95ED1D0A38EE400A24
:103ED00010EE100AFCF762FB96ED1A1B53EC112B47
:103EE000FCF76AFA41EC1A0B286FFCF757FB41EC20
:103EF0001B0B18EE100AFCF751FB53EC192BFCF7C7
:103F00005BFA53EC1B2BFCF7B0F953EC1A2BFCF7C4
:103F10004DFAFCF756FBA866424885ED1D8A90EDE8
:103F2000000AB1EE408A84ED068A18EE100AFCF70A
:103F300035FB3A4E803696ED041B53EC112BFCF703
:103F40003BFA41EC190BE069FCF728FB53EC192B09
:103F5000FCF78BF9FCF735FB00EE100A84ED070A3D
:103F6000D4ED098AB4EEE80AF1EE10FA02DDC4EDF0
:103F7000078A08E0F1EE680AB4EEE00AF1EE10FA02
:103F800001D2C4ED070A94ED080A38EE400A10EE9B
:103F9000100AFCF703FB96ED061B53EC112BFCF704
:103FA0000BFA41EC190BE069FCF7F8FA41EC1A0B3B
:103FB00018EE100AFCF7F2FA96ED021B53EC112BE7
:103FC000FCF7FAF953EC1A2BFCF74FF953EC192BC9
:103FD000FCF7ECF9FCF7F5FA00EE100A84ED050A9F
:103FE000B4EEE80AF1EE10FA02DDC4ED058A08E04D
:103FF000F1EE680AB4EEE00AF1EE10FA01D2C4ED77
:10400000050A84ED088A6869401C6861BDEC088B6C
:1040100070BD0000980000200800002098010020DA
:104020000C000020100000202DE9F041B44FB54DE8
:104030002DED068B97ED000AD5ED0F0A30EEC08A04
:1040400085ED158A18EE100AFCF7A8FA05F58076BA
:1040500096ED141B53EC112BFCF7AEF941EC190B48
:10406000A86DFCF79BFA53EC192BFCF7FEF8FCF754
:10407000A8FA00EE100A85ED160AD5ED180AB4EE7E
:10408000E00AF1EE10FA06DCF1EE600AB4EEE00AA6
:10409000F1EE10FA01D2C5ED160A95ED170A38EEC9
:1040A000400A10EE100AFCF779FA96ED161B53EC55
:1040B000112BFCF781F941EC190BA86DFCF76EFA96
:1040C00041EC1A0B18EE100AFCF768FA96ED121B79
:1040D00053EC112BFCF770F953EC1A2BFCF7C5F8D5
:1040E00053EC192BFCF7C1F8FCF76BFA00EE100A41
:1040F00085ED140AD5ED190AB4EEE00AF1EE10FAD6
:1041000006DCF1EE600AB4EEE00AF1EE10FA01D23C
:10411000C5ED140A85ED178A97ED010AD5ED1A0A47
:10412000784C30EEC08A803484ED008A18EE100A94
:10413000FCF734FA96ED1E1B53EC112BFCF73CF9FF
:1041400041EC190B6068FCF729FA53EC192BFCF7CA
:104150008CF8FCF736FA00EE100A84ED010AD4ED73
:10416000030AB4EEE00AF1EE10FA06DCF1EE600AA2
:10417000B4EEE00AF1EE10FA01D2C4ED010A94EDBA
:10418000020A38EE400A10EE100AFCF707FADFF8D0
:10419000788198ED001B53EC112BFCF70DF941ECE5
:1041A000190B6068FCF7FAF941EC1A0B18EE100ACB
:1041B000FCF7F4F996ED1C1B53EC112BFCF7FCF803
:1041C00053EC1A2BFCF751F853EC192BFCF74DF874
:1041D000FCF7F7F900EE100A85ED1F0AD4ED040A8A
:1041E000B4EEE00AF1EE10FA06DCF1EE600AB4EE8D
:1041F000E00AF1EE10FA01D2C5ED1F0A84ED028A41
:1042000097ED020AD4ED050A30EEC08A84ED0B8AE0
:1042100018EE100AFCF7C2F998ED0A1B454653EC5C
:10422000112BFCF7C9F841EC190B206BFCF7B6F920
:1042300053EC192BFCF719F8FCF7C3F900EE100A40
:10424000304884ED0C0AD4ED0F0A8030D0ED0E8A90
:10425000B4EEE00AF1EE10FA02DDC4ED0C8A0AE0D9
:10426000F1EE600AB4EEE00AF1EE10FA03D2B1EE1C
:10427000680A84ED0C0A94ED0D0A38EE400A10EE3F
:10428000100AFCF78BF995ED0C1B53EC112BFCF786
:1042900093F841EC190B206BFCF780F941EC1A0BF9
:1042A00018EE100AFCF77AF995ED081B53EC112B68
:1042B000FCF782F853EC1A2BFBF7D7FF53EC192BC2
:1042C000FBF7D3FFFCF77DF900EE100A84ED0A0A34
:1042D000B4EEE80AF1EE10FA02DDC4ED0A8A08E055
:1042E000F1EE680AB4EEE00AF1EE10FA01D2C4ED84
:1042F0000A0A84ED0D8ABDEC068BBDE8F081000052
:10430000840900209800002018020020374810B5CA
:10431000A0F18003816C1A6B8A1A00F1800100EE13
:10432000102A4A61D0ED170AB8EE400A90ED151A2E
:1043300041EE000AC0ED170A90ED190AF4EEC00A2A
:10434000F1EE10FA09DCB1EE400AF4EEC00AF1EE2B
:1043500010FA02DC90ED170A01E080ED170A00EE7A
:10436000902A90ED142ACC69F8EE600A141BD0ED67
:10437000161A02EE200A00EE904AF8EE600A01EEEC
:10438000A00A80ED100ACA61C26C5B6BD21A00EE03
:10439000902A8A6190ED180AF8EE600A01EE200A70
:1043A00080ED180AD0ED1A0AB4EEE00AF1EE10FA28
:1043B00006DCF1EE600AB4EEE00AF1EE10FA01DD7F
:1043C000C0ED180A00EE902A90ED180A0B6AF8EE7C
:1043D000600AD31A02EE200A00EE903AF8EE600A64
:1043E00001EEA00A80ED100A0A6210BD180100203B
:1043F0007047000009489FED080AA0F1800180ED98
:104400000C0A80ED010A81ED160A80ED0D0A80ED9F
:10441000020A81ED170A7047000000001801002011
:10442000F8B5044640684FF48273984221D1A068E1
:104430004FF48065B0F5004F01D0A8420AD1206842
:10444000066826F0400606606068984211D1A068B0
:10445000A8420ED000920B4600228021204600F098
:1044600039F8002804D0606D40F02000606503201A
:10447000F8BD00920B4600220121EFE738B5044653
:104480001248134B0068B0FBF3F04FF47A735843B3
:1044900000906068B0F5827F0DD10B46009200223B
:1044A0008021204600F016F870B1606D40F02000C9
:1044B0006065032038BD009830B1401E0090206830
:1044C0008068C0430006F6D5002038BD50020020A9
:1044D00000366E012DE9F0411D4617460E46044692
:1044E000DDF8188008E0681C06D0FCF77BFCA0EB28
:1044F0000800A8420BD255B12068806836EA000057
:1045000030D00020B842EED10020BDE8F081206814
:10451000416821F0E00141606068B0F5827F0BD115
:10452000A068B0F5004F02D0B0F5806F04D12068CC
:10453000016821F040010160A06AB0F5005F09D177
:104540002068016821F4005101602068016841F48D
:1045500000510160012084F85100002084F85000CF
:104560000320D2E70120CDE77047FCF7BFBE000073
:1045700030B593B030216846FBF76CFE14210CA8CF
:10458000FBF768FE1C480025016841F0805101607E
:10459000006800F0805011901848016841F4804193
:1045A00001600068022400F4804011900120009016
:1045B000000401908001CDE9064008AA042054219E
:1045C00082E813000B906846FDF70AF808B1FCF783
:1045D00001FB0CA90F2081E831004FF48050CDE998
:1045E0000F0502210CA8FCF71BFF002801D0FCF7E7
:1045F000F1FA13B030BD00004038024000700040B6
:104600001048016841F4700101600F48016841F0F1
:10461000010101600C4A00210832116002680B4B55
:104620001A400260031D0A4A1A60026822F48022BE
:10463000026005480C300160024958068039086064
:104640007047000088ED00E000380240FFFFF6FEF2
:104650001030002410B50448FDF735FFBDE81040C8
:104660000248FDF730BF0000480A0020480B002038
:104670000148FDF728BF0000480A00200148FDF767
:1046800022BF0000C80A0020F0B50268254C264D64
:10469000264E274F274B4FF0804CA04209D0604553
:1046A00007D0A84205D0B04203D0B84201D098420A
:1046B00004D122F0700E4A6842EA0E02A0421BD0DA
:1046C000604519D0A84217D0B04215D0B84213D0D7
:1046D000984211D0184DA8420ED0184DA8420BD0C8
:1046E000174DA84208D0174DA84205D0164DA84234
:1046F00002D0164DA84203D122F44075CA682A435D
:104700004D6922F080022A4302608A68C2620A6808
:104710008262A04201D0984201D10969016301215E
:104720004161F0BD0000014000040040000800406D
:10473000000C0040000401400040014000440140E2
:104740000048014000180040001C004000200040CC
:1047500010B501F01F030121046A99408C430462E3
:10476000016A9A401143016210BD10B5846842EAA3
:10477000032224F47F440A432243826010BD8268EE
:1047800022F070020A4342F0070181607047000086
:10479000F0B5026A22F001020262036A426884698B
:1047A000124E24F073050C682C4323F002058B682D
:1047B0002B430D4DA84201D0B04205D123F008078C
:1047C000CB683B4323F00403A84201D0B04205D19B
:1047D0004D6922F4407215438A692A43426084611C
:1047E000496841630362F0BD0000014000040140DC
:1047F000F0B5026A22F010020262026A436884691C
:104800000D6824F4E64444EA05248D6822F0200271
:1048100042EA05120F4D104EA84201D0B04206D117
:10482000CF6822F0800242EA071222F04002A8423A
:1048300001D0B04207D14D6923F4406343EA8503B8
:104840008D6943EA8503436084614968816302623C
:10485000F0BD00000000014000040140F0B5026A14
:1048600022F480720262026A4368C46922F4007210
:1048700024F073050C68124E2C438D6842EA052221
:104880000E4DA84201D0B04206D1CF6822F400629A
:1048900042EA072222F48062A84201D0B04207D146
:1048A0004D6923F4405343EA05138D6943EA051328
:1048B0004360C4614968C1630262F0BD0000014009
:1048C0000004014030B5026A22F480520262046A98
:1048D0004268C3690D6823F4E64343EA05238D6803
:1048E00024F4005444EA0534084DA84202D0084D8F
:1048F000A84204D14D6922F4804242EA8512426006
:10490000C36149680164046230BD000000000140D9
:104910000004014010B5036A046A24F00104046233
:10492000846924F0F00444EA021423F00A020A43E2
:104930008461026210BD000070B5046A24F00104B5
:1049400004628469056A154EB04214D0B0F1804FFC
:1049500011D0134EB0420ED0124EB0420BD0124EB8
:10496000B04208D0114EB04205D0114EB04202D034
:10497000104EB04203D124F00304144301E044F08C
:1049800001041A0724F0F00444EA126225F00A0335
:1049900001F00A0119438261016270BD000001400B
:1049A0000004004000080040000C004000040140EA
:1049B000004001400018004010B5036A23F01003C6
:1049C00003628369046A23F4704343EA023224F0E9
:1049D000A00343EA01118261016210BD30B5046A8F
:1049E00024F0100404628469056A24F4407444EAE3
:1049F000022222F470444FF6FF7202EA033222438D
:104A0000A02425F0A00304EA011119438261016288
:104A100030BDFEE703B401984100009850EAC12080
:104A200018BF04204A0D18BF40F0010040F2FF7289
:104A3000B2EB515F08BF40F00200012808BF05201B
:104A400002B070470907090E002804DB00F1E020DE
:104A500080F80014704700F00F0000F1E02080F8AB
:104A6000141D70470000000070B5C1482DED020B09
:104A70002DED0E8B82B0119D25F000449FEDBEDB25
:104A80009FEDBFEB84423EDBA4F140511098A1F1B1
:104A90007F6108430FD0BC48844202DC28D11098C3
:104AA00030B39DED100B02B0BDEC0E8B02B0BDE833
:104AB000704001F021B99DED100B53EC1D2B51EC12
:104AC000100BFBF779FC9DED100B41EC180B53EC30
:104AD0001E2B51EC100BFBF76FFC53EC182BFBF764
:104AE000C4FB41EC100B02B0BDEC0E8B02B070BDEC
:104AF000012001F0FBF902B0BDEC0E8B02B0BDE865
:104B0000704001F00DB9A1489FEDA18B844256DAA7
:104B10009DED100BB4F1795F0ADA51EC100BFFF741
:104B200079FF042808BF01F00BF99DED100BDAE7BF
:104B300053EC102B51EC100BFBF73EFC41EC190B26
:104B400095480621B0EE490AF0EE690A784400F073
:104B5000BFFF53EC192B51EC100BFBF72DFC41EC74
:104B60001A0B8E48B0EE490AF0EE690A0421784427
:104B700000F0AEFF53EC192B51EC100BFBF71CFCB3
:104B800053EC182BFBF771FB41EC100B51EC1A0B9B
:104B900053EC102BFBF782FCCDE900019DED000BDF
:104BA00053EC102B9DED100B51EC100BFBF704FC9C
:104BB0009DED101B53EC112BFBF757FBD2E09DED45
:104BC000100B51EC100B01F0A9FA53EC182BFBF76A
:104BD000F0FB9FED730BCDE9000153EC102B9DED25
:104BE000000B51EC100BFBF7E7FB41EC190B6E4887
:104BF0000621B0EE490AF0EE690A784400F068FF39
:104C000053EC192B51EC100BFBF7D6FB41EC1B0BB3
:104C10006648B0EE490AF0EE690A0421784400F0D3
:104C200057FF53EC192B51EC100BFBF7C5FB53EC62
:104C3000182BFBF71AFB41EC1C0B51EC190B01F084
:104C4000DDFB41EC180B5A489FED5BABA04222DC28
:104C500053EC1C2B51EC1B0BFBF720FCCDE90001A6
:104C60009DED000B51EC180B53EC102BFBF7A4FB44
:104C700053EC182BFBF7F9FA53EC1A2BFBF79CFBC0
:104C800053EC1D2BFBF792FB53EC1E2BFBF791FB18
:104C900041EC100B5FE08DED008B002000909DED4E
:104CA000000B51EC180B53EC102BFBF7DEFA9DEDCB
:104CB000000B41EC1E0B53EC102B51EC100BFBF7CF
:104CC0007BFB53EC192BFBF774FB53EC1E2BFBF710
:104CD000E5FB41EC190B53EC1C2B51EC1B0BFBF7C8
:104CE000DDFB41EC1B0B53EC1A2B51EC190BFBF7C2
:104CF00063FB53EC1D2BFBF75CFB41EC190B53ECF6
:104D00001A2B51EC180BFBF757FB53EC1B2BFBF743
:104D100053FB53EC192BFBF749FB9DED000B41ECCA
:104D2000180B53EC1A2B51EC100BFBF745FB9FEDC6
:104D3000249B53EC192BFBF73CFB41EC100B51EC83
:104D4000180B53EC102BFBF731FB53EC192BFBF733
:104D500030FB41EC100B002D3FF7C5AE51EC100BB2
:104D600081F0004141EC100BBDE6000000000000A6
:104D70000000F03F00000000075C143326A6913CC1
:104D8000182D4454FB21F93F0000F07F0000E03F64
:104D9000000000000000F03F801900008E190000A4
:104DA000000000000000E03FD2180000E018000002
:104DB0003333EF3F0000000000000000000000401F
:104DC000182D4454FB21E93F70B59B482DED020B93
:104DD0002DED068B079D25F00044A04218DC974876
:104DE000844202DC0AD1069840B19DED060BBDEC71
:104DF000068B02B0BDE8704000F07EBF002DCCBF36
:104E00009FED8F0B9FED900BBDEC068B02B070BD3C
:104E10008F48A04215DD8F48A042D8BF4FF0FF3425
:104E200058DD9DED060B51EC100BFFF7F3FD042848
:104E300008BF00F085FF9DED060BBDEC068B02B0B0
:104E400070BD9DED060B51EC100B01F067F9CDE93B
:104E5000060181489FED828BA0423CDD8248A04242
:104E60001FDD00249FED82AB9DED060B53EC1A2B4A
:104E700051EC100BFBF7F9F99DED060B41EC190B0A
:104E800053EC1A2B51EC100BFBF796FA53EC182B42
:104E9000FBF78CFA53EC192BFBF700FBCDE906016D
:104EA00049E09DED060B012453EC182B51EC100B3F
:104EB000FBF7DBF99DED060B41EC190B53EC182BBE
:104EC00051EC100BFBF772FA53EC192BFBF7E6FAD7
:104ED000CDE906012FE06848A0421FDD02249FEDC6
:104EE000689B9DED060B53EC192B51EC100BFBF757
:104EF00063FA53EC182BFBF7B8F99DED060B41EC68
:104F0000180B53EC192B51EC100BFBF74FFA53EC29
:104F1000182BFBF7C3FACDE906010CE09DED060B5B
:104F2000032453EC102B9FED580B51EC100BFBF7A7
:104F3000B5FACDE906019DED060B53EC102B51ECB3
:104F4000100BFBF739FA41EC180B53EC182BFBF75D
:104F500033FA41EC190B4E480621B0EE490AF0EE47
:104F6000690A784400F0B4FD53EC182B51EC100B97
:104F7000FBF722FA41EC180B4648B0EE490AF0EE76
:104F8000690A0521784400F0A3FD53EC192B51EC7C
:104F9000100BFBF711FA41EC100B51EC180B53EC12
:104FA000102B002C0EDAFBF760F99DED061B53EC7D
:104FB000112BFBF701FA9DED061B53EC112BFBF7B0
:104FC000F8F935E0FBF751F99DED061B53EC112B79
:104FD000FBF7F2F941EC100B2F48784400EBC400CA
:104FE00090ED001B51EC100B53EC112BFBF7DEF98D
:104FF0009DED061B53EC112BFBF7D8F941EC100B80
:105000002648784400EBC40090ED001B51EC100BD7
:1050100053EC112BFBF7CDF941EC100B002DA2BF87
:10502000BDEC068B02B070BD51EC100B81F000415D
:1050300041EC100B01E70000000010440000F07F7D
:10504000182D4454FB21F93F182D4454FB21F9BF7E
:105050000000DC3F0000203E0000F33F00000000A5
:10506000000000000000F03F0000E63F00000000EC
:10507000000000000000004000800340000000002D
:10508000000000000000F83F000000000000F0BF3A
:1050900022160000D8150000621500001A15000045
:1050A00070B56B4E2DED040B2DED028B82B0DDF84B
:1050B0001CC0DDE905235C422CF000411C4341EAA1
:1050C000D474049D22F00040B44205D86C422C43B5
:1050D00040EAD474B4420BD99DED061B9DED040B40
:1050E00002B0BDEC028B04B0BDE8704000F00EBE13
:1050F000ACF14054A4F17F641C430BD0022404EAB9
:10510000AC7444EAD27405439FED538B9FED542B4E
:1051100007D015E09DED040B51EC100B00F0F6FFED
:1051200042E0002C11BF012C9DED040B02B0BDEC40
:10513000028B04BF04B070BD022C38D0032C3BD0CE
:105140000B439FED491B9FED4A0B0AD0B14218D18A
:10515000B04209D121F0804120F0804007910590B4
:105160000FE0002A15DA10E0434B7B44002C08BF07
:1051700093ED000B0DD0012C10D0022C17D0032C76
:105180001AD0B0421DD1002A03DAB0EE410AF0EE87
:10519000610A02B0BDEC028B04B070BD93ED000B50
:1051A00051EC100B81F0004141EC100BF1E7B0EE37
:1051B000480AF0EE680AECE7B0EE420AF0EE620A46
:1051C000E7E7401A00153C28C8BF8DED000B19DC3D
:1051D000BCF1000FBEBF10F13C0F9FED290B8DED10
:1051E000000B0FDB9DED060B53EC102B9DED040B1C
:1051F00051EC100BFBF752F900F090FF00F086FF26
:10520000CDE90001002C08BF9DED000BC1D0012CA1
:1052100010D0022C9FED1C0B53EC102B9DED000BBE
:1052200051EC100B0DD0FBF7C1F853EC182BFBF72A
:10523000BDF8B9E7019880F0004001909DED000BAA
:10524000A7E7FBF7B3F853EC182BFBF7B2F8ABE783
:105250000000F07F00000000182D4454FB2109409D
:10526000182D4454FB2109C0182D4454FB21F9BFCB
:10527000182D4454FB21F93F7A140000000000006F
:105280000000000000000000075C143326A6A13CCB
:1052900010B52F499FED2C1B2DED020B84B0059806
:1052A00020F000408842D8BF9DED040B2DDD294938
:1052B000884209D1049840B94FF0010000F016FE71
:1052C00000F02EFD06B010BD05DB9DED040B00F0D7
:1052D00013FD06B010BD68469DED040B00F024F9E7
:1052E00010F0030004BF9DED021B9DED000B0CD0E0
:1052F00001280ED09DED021B9DED000B022817D05A
:10530000012000F061FC06B010BD00F029FB06B0E2
:1053100010BD9DED021B9DED000B012000F054FC23
:1053200051EC100B81F0004106B041EC100B10BDA8
:1053300000F016FB51EC100B81F0004106B041EC7F
:10534000100B10BD00000000000000000000000075
:10535000FB21E93F0000F07F10EE101A08B5444A27
:105360006846B2EB410F28D94FF0E640B0EB410F51
:1053700094BF00204FF0FF3000900098002861DBC0
:1053800060EE000A10F0010F45D010F0020FDFEDC3
:10539000391A9FED391A00EEE11ADFED381A40EEA6
:1053A000811A21EEA01AF0EE400A40EE010A08BF71
:1053B000F1EE600AB0EE600A08BD314B21F0004208
:1053C00093423CD911F0004FDFED2E0A20EE201A57
:1053D000DFED2D0A19BF31EE601A71EE200A31EEB1
:1053E000201A71EE600ABDEEE01A11EE100A9FED70
:1053F000271A00F0030000EEC10A9FED251A009065
:1054000000EEC10A9FED231A00EEC10A9FED221A99
:1054100000EEC10AB1E79FED211A9FED210A10F0BD
:10542000020F00EE810A9FED1F1A00EE801AB7EE00
:10543000000A00EE810A18BFB1EE400A08BD00F074
:105440009BFC9AE710EE100A4000B0F17F4F3CBF82
:10545000B7EE000A08BD07D14FF0010000F046FD8D
:10546000BDE8084000F080BCBDE8084000F078BC12
:10547000B61F927E336D4C39DA82083CA0AA2ABE50
:10548000490E494683F9223F0000004B0000C93F06
:1054900000A0FD390020A2331A61342CB93AB2BA07
:1054A000CA9F2A3DDDFFFFBE00B52DED048BB0EE97
:1054B000409AF0EE609A83B051EC190BFBF762F959
:1054C00041EC180B18EE100A18EE901A8DED008BB7
:1054D000002818BF0120084320F00040C0F17F6081
:1054E00000F1E040C00F14D019EE101A19EE900A26
:1054F0008DED009B002918BF0121084320F00040DA
:10550000C0F17F6000F1E040C00F04BF012000F057
:10551000EDFCB0EE480A03B0F0EE680ABDEC048B77
:1055200000BD0000000000002DE9F14F04462DED04
:10553000020B2DED088B8AB09FEDE70B80ED020B7F
:10554000139EE74826F0004585420ADC9DED120BCC
:10555000002084ED000B0AB0BDEC088B03B0BDE861
:10556000F08FE0489FEDE0AB9FEDE1BBA84247DD47
:10557000E14F9FEDE39B9FEDE48B9DED120B53EC10
:105580001A2B51EC100B002E1CDDFAF70FFF41EC2B
:10559000100BBD4208D053EC1B2B51EC100BFAF74B
:1055A00005FFC4E900010BE053EC192B51EC100B83
:1055B000FAF7FCFE53EC182BFAF7F8FEC4E90001E9
:1055C0000120C8E7FAF751FE41EC100BBD4208D0AC
:1055D00053EC1B2B51EC100BFAF747FEC4E900010A
:1055E0000BE053EC192B51EC100BFAF73EFE53EC89
:1055F000182BFAF73AFEC4E900014FF0FF30AAE792
:10560000C348A84279DB9DED120B51EC100B00F062
:1056100085FD41EC180B9FEDC00B53EC102BFAF7F6
:10562000CBFE9FEDBF1B53EC112BFAF71EFEFBF7D1
:105630001AF90746FAF7A1FF41EC190B53EC1A2BA4
:10564000FAF7BAFE53EC182BFAF7B3FE41EC180B3D
:1056500053EC1B2B51EC190BFAF7AEFEDFF8C8A286
:1056600041EC100B4FEA15580125FA4453EC102B6E
:1056700051EC180BFAF79AFE032DC4E900013DD056
:10568000C1F30A5005EB4511A8EB00001139814226
:1056900034DA0AEB051BB0EE48AA9BED000BF0EEE6
:1056A00068AA53EC102B51EC190BFAF785FE41EC6C
:1056B0001B0B51EC1A0B53EC1B2BFAF777FE41EC4A
:1056C000180B51EC1A0B53EC182BFAF76FFE53EC36
:1056D0001B2BFAF76BFE9BED020B41EC1A0B53EC04
:1056E000102B51EC190BFAF767FE53EC1A2BFAF753
:1056F0005DFE41EC100B6D1CB8E70EE0002EA8BF5C
:105700003846BFF628AF94ED000B51EC100B81F03A
:105710000041C4E9000178421DE7C6F3130040F4DC
:10572000801EC6F30A50A0F2F530471100F01F05A5
:10573000C5F12000DDF848B00890002006900790E1
:105740000520EC467949002D07EB0002794408BF9B
:1057500051F8221009D051F8223001EB8201AB4000
:105760004A68089922FA01F11943A1FB0E26A1FB10
:105770000B131A449A4234BF0123002303EB06089B
:105780000CEB8003D3E901A60E448E4234BF012105
:10579000002192448A4411B1924502D903E0924516
:1057A00001D2012100E00021C3E901A641444CF8E7
:1057B0002010011EA0F10100C4DC029800F100508D
:1057C000850F0298DDE903678000DDF81480FAF7A1
:1057D000D4FE41EC1A0B3046FBF738F89FED541B12
:1057E00053EC112BFAF7E8FD41EC1B0B3846FBF7A5
:1057F0002DF89FED511B53EC112BFAF7DDFD41EC19
:10580000180B4046FBF722F89FED4D1B53EC112B74
:10581000FAF7D2FD41EC190B51EC180B53EC192B94
:10582000FAF723FD53EC1B2BFAF71FFD53EC1A2B51
:10583000FAF71BFDCDE90801002008909DED080B4B
:1058400053EC1A2B51EC100BFAF7B0FD53EC1B2B59
:10585000FAF7ACFD53EC182BFAF7A8FD53EC192B13
:10586000FAF7A7FD9FED381B53EC112BFAF7A4FDB7
:105870009FED370B41EC180B53EC102B9DED080BF3
:1058800051EC100BFAF798FD53EC182BFAF7EDFCDE
:105890009FED310B41EC180B53EC102B9DED080BD9
:1058A00051EC100BFAF788FD53EC182BFAF7DDFCDE
:1058B00041EC100B139810F0004F06D06D4251ECE4
:1058C000100B81F0004141EC100B284684ED000BD9
:1058D00041E60000000000000000000000000000A1
:1058E000FB21E93F7CD9024000004054FB21F93FF5
:1058F0003163621A61B4D03DFB21F93F0000000022
:105900000000601A61B4D03D7370032E8A19A33B66
:10591000FB2139410000000083C8C96D305FE43FBE
:10592000000000000000E03F820F0000D00E0000E9
:10593000000000000000103E000000000000103CCD
:10594000000000000000103A182D4454FB21F93DDE
:105950003326A611460B113C00000054FB21F93DF3
:1059600010B52DED040B2DED088B82B0B0EE419AF1
:10597000F0EE619A0B9820F000449FED4BABB4F130
:10598000795F11DA9DED0A0B51EC100BFAF76BFF02
:10599000002801BFB0EE4A0AF0EE6A0A02B0BDEC80
:1059A000088B04BF04B010BD9DED0A0B53EC102B07
:1059B00051EC100BFAF700FD41EC180B3C480621A6
:1059C000B0EE480AF0EE680A784400F081F853EC33
:1059D000182B51EC100BFAF7EFFC9DED0A0B41EC84
:1059E0001B0B53EC192B51EC100BFAF7E5FC41ECB7
:1059F000190B53EC1B2B51EC180BFAF7DDFC53EC95
:105A0000192BFAF7D3FC9FED2C0B41EC190B53EC3F
:105A1000102B51EC180BFAF7CFFC41EC100B284877
:105A2000844210DA53EC192B51EC100BFAF7BEFC40
:105A300053EC1A2BFAF7BDFC41EC100B02B0BDEC95
:105A4000088B04B010BD1F48A042BCBF9FED1E1BB9
:105A50008DED001B06DBA4F50010019000200090E6
:105A60009DED001B51EC100B53EC112BFAF79EFC33
:105A70009DED000B41EC180B53EC102B51EC1A0B65
:105A8000FAF794FC41EC1A0B53EC192B51EC180B60
:105A9000FAF78CFC53EC1A2BFAF78BFC41EC100B49
:105AA000CCE7000000000000000000000000F03F14
:105AB000EC0B000000000000000000000000E03FD0
:105AC0003333D33F0000E93F000000000000D23F25
:105AD00070B504462DED028B4D1E00EBC500B0EEF7
